{"contracts/DecentralizedNotary.sol":{"DecentralizedNotary":{"abi":[{"inputs":[{"internalType":"address","name":"_bkcTokenAddress","type":"address"},{"internalType":"address","name":"_delegationManagerAddress","type":"address"},{"internalType":"address","name":"_treasuryAddress","type":"address"},{"internalType":"address","name":"_initialOwner","type":"address"}],"stateMutability":"nonpayable","type":"constructor"},{"inputs":[],"name":"ERC721EnumerableForbiddenBatchMint","type":"error"},{"inputs":[{"internalType":"address","name":"sender","type":"address"},{"internalType":"uint256","name":"tokenId","type":"uint256"},{"internalType":"address","name":"owner","type":"address"}],"name":"ERC721IncorrectOwner","type":"error"},{"inputs":[{"internalType":"address","name":"operator","type":"address"},{"internalType":"uint256","name":"tokenId","type":"uint256"}],"name":"ERC721InsufficientApproval","type":"error"},{"inputs":[{"internalType":"address","name":"approver","type":"address"}],"name":"ERC721InvalidApprover","type":"error"},{"inputs":[{"internalType":"address","name":"operator","type":"address"}],"name":"ERC721InvalidOperator","type":"error"},{"inputs":[{"internalType":"address","name":"owner","type":"address"}],"name":"ERC721InvalidOwner","type":"error"},{"inputs":[{"internalType":"address","name":"receiver","type":"address"}],"name":"ERC721InvalidReceiver","type":"error"},{"inputs":[{"internalType":"address","name":"sender","type":"address"}],"name":"ERC721InvalidSender","type":"error"},{"inputs":[{"internalType":"uint256","name":"tokenId","type":"uint256"}],"name":"ERC721NonexistentToken","type":"error"},{"inputs":[{"internalType":"address","name":"owner","type":"address"},{"internalType":"uint256","name":"index","type":"uint256"}],"name":"ERC721OutOfBoundsIndex","type":"error"},{"inputs":[{"internalType":"address","name":"owner","type":"address"}],"name":"OwnableInvalidOwner","type":"error"},{"inputs":[{"internalType":"address","name":"account","type":"address"}],"name":"OwnableUnauthorizedAccount","type":"error"},{"inputs":[],"name":"ReentrancyGuardReentrantCall","type":"error"},{"anonymous":false,"inputs":[{"indexed":true,"internalType":"address","name":"owner","type":"address"},{"indexed":true,"internalType":"address","name":"approved","type":"address"},{"indexed":true,"internalType":"uint256","name":"tokenId","type":"uint256"}],"name":"Approval","type":"event"},{"anonymous":false,"inputs":[{"indexed":true,"internalType":"address","name":"owner","type":"address"},{"indexed":true,"internalType":"address","name":"operator","type":"address"},{"indexed":false,"internalType":"bool","name":"approved","type":"bool"}],"name":"ApprovalForAll","type":"event"},{"anonymous":false,"inputs":[{"indexed":true,"internalType":"address","name":"user","type":"address"},{"indexed":true,"internalType":"uint256","name":"tokenId","type":"uint256"},{"indexed":false,"internalType":"string","name":"documentURI","type":"string"},{"indexed":false,"internalType":"uint256","name":"feePaid","type":"uint256"}],"name":"DocumentNotarized","type":"event"},{"anonymous":false,"inputs":[{"indexed":false,"internalType":"uint256","name":"newMinPStake","type":"uint256"},{"indexed":false,"internalType":"uint256","name":"newFee","type":"uint256"},{"indexed":false,"internalType":"uint256","name":"newTreasuryBips","type":"uint256"}],"name":"NotarySettingsChanged","type":"event"},{"anonymous":false,"inputs":[{"indexed":true,"internalType":"address","name":"previousOwner","type":"address"},{"indexed":true,"internalType":"address","name":"newOwner","type":"address"}],"name":"OwnershipTransferred","type":"event"},{"anonymous":false,"inputs":[{"indexed":true,"internalType":"address","name":"from","type":"address"},{"indexed":true,"internalType":"address","name":"to","type":"address"},{"indexed":true,"internalType":"uint256","name":"tokenId","type":"uint256"}],"name":"Transfer","type":"event"},{"inputs":[{"internalType":"address","name":"to","type":"address"},{"internalType":"uint256","name":"tokenId","type":"uint256"}],"name":"approve","outputs":[],"stateMutability":"nonpayable","type":"function"},{"inputs":[{"internalType":"address","name":"owner","type":"address"}],"name":"balanceOf","outputs":[{"internalType":"uint256","name":"","type":"uint256"}],"stateMutability":"view","type":"function"},{"inputs":[],"name":"bkcToken","outputs":[{"internalType":"contract BKCToken","name":"","type":"address"}],"stateMutability":"view","type":"function"},{"inputs":[],"name":"delegationManager","outputs":[{"internalType":"contract DelegationManager","name":"","type":"address"}],"stateMutability":"view","type":"function"},{"inputs":[{"internalType":"uint256","name":"tokenId","type":"uint256"}],"name":"getApproved","outputs":[{"internalType":"address","name":"","type":"address"}],"stateMutability":"view","type":"function"},{"inputs":[{"internalType":"address","name":"owner","type":"address"},{"internalType":"address","name":"operator","type":"address"}],"name":"isApprovedForAll","outputs":[{"internalType":"bool","name":"","type":"bool"}],"stateMutability":"view","type":"function"},{"inputs":[],"name":"minimumPStakeRequired","outputs":[{"internalType":"uint256","name":"","type":"uint256"}],"stateMutability":"view","type":"function"},{"inputs":[],"name":"name","outputs":[{"internalType":"string","name":"","type":"string"}],"stateMutability":"view","type":"function"},{"inputs":[{"internalType":"string","name":"_documentURI","type":"string"}],"name":"notarizeDocument","outputs":[],"stateMutability":"nonpayable","type":"function"},{"inputs":[],"name":"notarizeFeeBKC","outputs":[{"internalType":"uint256","name":"","type":"uint256"}],"stateMutability":"view","type":"function"},{"inputs":[],"name":"owner","outputs":[{"internalType":"address","name":"","type":"address"}],"stateMutability":"view","type":"function"},{"inputs":[{"internalType":"uint256","name":"tokenId","type":"uint256"}],"name":"ownerOf","outputs":[{"internalType":"address","name":"","type":"address"}],"stateMutability":"view","type":"function"},{"inputs":[],"name":"renounceOwnership","outputs":[],"stateMutability":"nonpayable","type":"function"},{"inputs":[{"internalType":"address","name":"from","type":"address"},{"internalType":"address","name":"to","type":"address"},{"internalType":"uint256","name":"tokenId","type":"uint256"}],"name":"safeTransferFrom","outputs":[],"stateMutability":"nonpayable","type":"function"},{"inputs":[{"internalType":"address","name":"from","type":"address"},{"internalType":"address","name":"to","type":"address"},{"internalType":"uint256","name":"tokenId","type":"uint256"},{"internalType":"bytes","name":"data","type":"bytes"}],"name":"safeTransferFrom","outputs":[],"stateMutability":"nonpayable","type":"function"},{"inputs":[{"internalType":"address","name":"operator","type":"address"},{"internalType":"bool","name":"approved","type":"bool"}],"name":"setApprovalForAll","outputs":[],"stateMutability":"nonpayable","type":"function"},{"inputs":[{"internalType":"string","name":"newBaseURI","type":"string"}],"name":"setBaseURI","outputs":[],"stateMutability":"nonpayable","type":"function"},{"inputs":[{"internalType":"uint256","name":"_newMinPStake","type":"uint256"},{"internalType":"uint256","name":"_newFeeBKC","type":"uint256"},{"internalType":"uint256","name":"_newTreasuryBips","type":"uint256"}],"name":"setNotarySettings","outputs":[],"stateMutability":"nonpayable","type":"function"},{"inputs":[{"internalType":"bytes4","name":"interfaceId","type":"bytes4"}],"name":"supportsInterface","outputs":[{"internalType":"bool","name":"","type":"bool"}],"stateMutability":"view","type":"function"},{"inputs":[],"name":"symbol","outputs":[{"internalType":"string","name":"","type":"string"}],"stateMutability":"view","type":"function"},{"inputs":[{"internalType":"uint256","name":"index","type":"uint256"}],"name":"tokenByIndex","outputs":[{"internalType":"uint256","name":"","type":"uint256"}],"stateMutability":"view","type":"function"},{"inputs":[{"internalType":"address","name":"owner","type":"address"},{"internalType":"uint256","name":"index","type":"uint256"}],"name":"tokenOfOwnerByIndex","outputs":[{"internalType":"uint256","name":"","type":"uint256"}],"stateMutability":"view","type":"function"},{"inputs":[{"internalType":"uint256","name":"tokenId","type":"uint256"}],"name":"tokenURI","outputs":[{"internalType":"string","name":"","type":"string"}],"stateMutability":"view","type":"function"},{"inputs":[],"name":"totalSupply","outputs":[{"internalType":"uint256","name":"","type":"uint256"}],"stateMutability":"view","type":"function"},{"inputs":[{"internalType":"address","name":"from","type":"address"},{"internalType":"address","name":"to","type":"address"},{"internalType":"uint256","name":"tokenId","type":"uint256"}],"name":"transferFrom","outputs":[],"stateMutability":"nonpayable","type":"function"},{"inputs":[{"internalType":"address","name":"newOwner","type":"address"}],"name":"transferOwnership","outputs":[],"stateMutability":"nonpayable","type":"function"},{"inputs":[],"name":"treasuryFeeBips","outputs":[{"internalType":"uint256","name":"","type":"uint256"}],"stateMutability":"view","type":"function"},{"inputs":[],"name":"treasuryWallet","outputs":[{"internalType":"address","name":"","type":"address"}],"stateMutability":"view","type":"function"}],"evm":{"bytecode":{"linkReferences":{},"object":"60e060405234801561001057600080fd5b5060405161273b38038061273b83398101604081905261002f91610205565b806040518060400160405280601c81526020017f4261636b636861696e204e6f7461727920436572746966696361746500000000815250604051806040016040528060048152602001632125a1a760e11b815250816000908161009291906102f8565b50600161009f82826102f8565b5050506001600160a01b0381166100d157604051631e4fbdf760e01b8152600060048201526024015b60405180910390fd5b6100da81610197565b506001600b556001600160a01b0384161580159061010057506001600160a01b03831615155b801561011457506001600160a01b03821615155b6101605760405162461bcd60e51b815260206004820152601960248201527f4e6f746172793a20496e76616c6964206164647265737365730000000000000060448201526064016100c8565b506001600160a01b0392831660805290821660a0521660c0526103e8600c5568056bc75e2d63100000600d55611388600e556103b6565b600a80546001600160a01b038381166001600160a01b0319831681179093556040519116919082907f8be0079c531659141344cd1fd0a4f28419497f9722a3daafe3b4186f6b6457e090600090a35050565b80516001600160a01b038116811461020057600080fd5b919050565b6000806000806080858703121561021b57600080fd5b610224856101e9565b9350610232602086016101e9565b9250610240604086016101e9565b915061024e606086016101e9565b905092959194509250565b634e487b7160e01b600052604160045260246000fd5b600181811c9082168061028357607f821691505b6020821081036102a357634e487b7160e01b600052602260045260246000fd5b50919050565b601f8211156102f357806000526020600020601f840160051c810160208510156102d05750805b601f840160051c820191505b818110156102f057600081556001016102dc565b50505b505050565b81516001600160401b0381111561031157610311610259565b6103258161031f845461026f565b846102a9565b6020601f82116001811461035957600083156103415750848201515b600019600385901b1c1916600184901b1784556102f0565b600084815260208120601f198516915b828110156103895787850151825560209485019460019092019101610369565b50848210156103a75786840151600019600387901b60f8161c191681555b50505050600190811b01905550565b60805160a05160c05161231e61041d600039600081816102e60152610a980152600081816103e2015281816107ab01528181610b9d0152610c5701526000818161029901528181610898015281816109ba01528181610ac70152610bcc015261231e6000f3fe608060405234801561001057600080fd5b50600436106101c45760003560e01c806355f804b3116100f9578063a22cb46511610097578063c87b56dd11610071578063c87b56dd146103b7578063e985e9c5146103ca578063ea4d3c9b146103dd578063f2fde38b1461040457600080fd5b8063a22cb46514610388578063a7351d1c1461039b578063b88d4fde146103a457600080fd5b806370a08231116100d357806370a0823114610354578063715018a6146103675780638da5cb5b1461036f57806395d89b411461038057600080fd5b806355f804b31461031b5780636352211e1461032e5780636a33bf871461034157600080fd5b80631dd627e7116101665780632f745c59116101405780632f745c59146102bb57806342842e0e146102ce5780634626402b146102e15780634f6ccce71461030857600080fd5b80631dd627e71461026e57806323b872dd146102815780632402ff971461029457600080fd5b8063095ea7b3116101a2578063095ea7b314610231578063111079361461024657806318160ddd1461025d5780631c484cbb1461026557600080fd5b806301ffc9a7146101c957806306fdde03146101f1578063081812fc14610206575b600080fd5b6101dc6101d7366004611cbf565b610417565b60405190151581526020015b60405180910390f35b6101f9610428565b6040516101e89190611d2c565b610219610214366004611d3f565b6104ba565b6040516001600160a01b0390911681526020016101e8565b61024461023f366004611d74565b6104e3565b005b61024f600c5481565b6040519081526020016101e8565b60085461024f565b61024f600d5481565b61024461027c366004611d9e565b6104f2565b61024461028f366004611dca565b6105a6565b6102197f000000000000000000000000000000000000000000000000000000000000000081565b61024f6102c9366004611d74565b610631565b6102446102dc366004611dca565b610696565b6102197f000000000000000000000000000000000000000000000000000000000000000081565b61024f610316366004611d3f565b6106b6565b610244610329366004611e07565b61070f565b61021961033c366004611d3f565b610724565b61024461034f366004611e07565b61072f565b61024f610362366004611e7b565b610d4d565b610244610d95565b600a546001600160a01b0316610219565b6101f9610da9565b610244610396366004611ea4565b610db8565b61024f600e5481565b6102446103b2366004611ef1565b610dc3565b6101f96103c5366004611d3f565b610ddb565b6101dc6103d8366004611fd5565b611341565b6102197f000000000000000000000000000000000000000000000000000000000000000081565b610244610412366004611e7b565b61136f565b6000610422826113ad565b92915050565b60606000805461043790612008565b80601f016020809104026020016040519081016040528092919081815260200182805461046390612008565b80156104b05780601f10610485576101008083540402835291602001916104b0565b820191906000526020600020905b81548152906001019060200180831161049357829003601f168201915b5050505050905090565b60006104c5826113d2565b506000828152600460205260409020546001600160a01b0316610422565b6104ee82823361140b565b5050565b6104fa611418565b6127108111156105515760405162461bcd60e51b815260206004820181905260248201527f4e6f746172793a20426970732063616e6e6f742065786365656420313030303060448201526064015b60405180910390fd5b600c839055600d829055600e81905560408051848152602081018490529081018290527f01af8ad19e1d7698a019819d3503a4b10ef1522410c2ab0353b796370be26fc19060600160405180910390a1505050565b6001600160a01b0382166105d057604051633250574960e11b815260006004820152602401610548565b60006105dd838333611445565b9050836001600160a01b0316816001600160a01b03161461062b576040516364283d7b60e01b81526001600160a01b0380861660048301526024820184905282166044820152606401610548565b50505050565b600061063c83610d4d565b821061066d5760405163295f44f760e21b81526001600160a01b038416600482015260248101839052604401610548565b506001600160a01b03919091166000908152600660209081526040808320938352929052205490565b6106b183838360405180602001604052806000815250610dc3565b505050565b60006106c160085490565b82106106ea5760405163295f44f760e21b81526000600482015260248101839052604401610548565b600882815481106106fd576106fd612042565b90600052602060002001549050919050565b610717611418565b60116106b182848361209f565b6000610422826113d2565b61073761145a565b806107905760405162461bcd60e51b8152602060048201526024808201527f4e6f746172793a20446f63756d656e74205552492063616e6e6f7420626520656044820152636d70747960e01b6064820152608401610548565b600d5460405163c684e0e160e01b81523360048201526000907f00000000000000000000000000000000000000000000000000000000000000006001600160a01b03169063c684e0e190602401602060405180830381865afa1580156107fa573d6000803e3d6000fd5b505050506040513d601f19601f8201168201806040525081019061081e919061215f565b9050600c548110156108815760405162461bcd60e51b815260206004820152602660248201527f4e6f746172793a20496e73756666696369656e7420705374616b652064656c6560448201526533b0ba34b7b760d11b6064820152608401610548565b6040516370a0823160e01b815233600482015282907f00000000000000000000000000000000000000000000000000000000000000006001600160a01b0316906370a0823190602401602060405180830381865afa1580156108e7573d6000803e3d6000fd5b505050506040513d601f19601f8201168201806040525081019061090b919061215f565b101561096a5760405162461bcd60e51b815260206004820152602860248201527f4e6f746172793a20496e73756666696369656e7420424b432062616c616e636560448201526720666f722066656560c01b6064820152608401610548565b6000612710600e548461097d919061218e565b61098791906121a5565b9050600061099582856121c7565b6040516323b872dd60e01b8152336004820152306024820152604481018690529091507f00000000000000000000000000000000000000000000000000000000000000006001600160a01b0316906323b872dd906064016020604051808303816000875af1158015610a0b573d6000803e3d6000fd5b505050506040513d601f19601f82011682018060405250810190610a2f91906121da565b610a7b5760405162461bcd60e51b815260206004820152601b60248201527f4e6f746172793a20466565207472616e73666572206661696c656400000000006044820152606401610548565b8115610b805760405163a9059cbb60e01b81526001600160a01b037f000000000000000000000000000000000000000000000000000000000000000081166004830152602482018490527f0000000000000000000000000000000000000000000000000000000000000000169063a9059cbb906044016020604051808303816000875af1158015610b10573d6000803e3d6000fd5b505050506040513d601f19601f82011682018060405250810190610b3491906121da565b610b805760405162461bcd60e51b815260206004820181905260248201527f4e6f746172793a205472656173757279207472616e73666572206661696c65646044820152606401610548565b8015610cbc5760405163095ea7b360e01b81526001600160a01b037f000000000000000000000000000000000000000000000000000000000000000081166004830152602482018390527f0000000000000000000000000000000000000000000000000000000000000000169063095ea7b3906044016020604051808303816000875af1158015610c15573d6000803e3d6000fd5b505050506040513d601f19601f82011682018060405250810190610c3991906121da565b5060405163bdd071fb60e01b815260006004820152602481018290527f00000000000000000000000000000000000000000000000000000000000000006001600160a01b03169063bdd071fb90604401600060405180830381600087803b158015610ca357600080fd5b505af1158015610cb7573d6000803e3d6000fd5b505050505b600f805460009182610ccd836121f7565b909155506000818152601060205260409020909150610ced87898361209f565b50610cf83382611484565b80336001600160a01b03167f419030e125668803dc21ee11db79c28ba1b83cc44b89de30fa72c6c7268a02c7898989604051610d3693929190612210565b60405180910390a350505050506104ee6001600b55565b60006001600160a01b038216610d79576040516322718ad960e21b815260006004820152602401610548565b506001600160a01b031660009081526003602052604090205490565b610d9d611418565b610da7600061149e565b565b60606001805461043790612008565b6104ee3383836114f0565b610dce8484846105a6565b61062b338585858561158f565b60606000610de883610724565b6001600160a01b031603610e4e5760405162461bcd60e51b815260206004820152602760248201527f4552433732313a2055524920717565727920666f72206e6f6e6578697374656e6044820152663a103a37b5b2b760c91b6064820152608401610548565b6000610e586116ba565b600084815260106020526040812080549293509091610e7690612008565b80601f0160208091040260200160405190810160405280929190818152602001828054610ea290612008565b8015610eef5780601f10610ec457610100808354040283529160200191610eef565b820191906000526020600020905b815481529060010190602001808311610ed257829003601f168201915b505050505090508151600003610f06579392505050565b6007815111801561130b575080600081518110610f2557610f25612042565b6020910101516001600160f81b031916606960f81b148015610f6c575080600181518110610f5557610f55612042565b6020910101516001600160f81b031916600760fc1b145b8015610f9d575080600281518110610f8657610f86612042565b6020910101516001600160f81b031916603360f91b145b8015610fce575080600381518110610fb757610fb7612042565b6020910101516001600160f81b031916607360f81b145b8015610fff575080600481518110610fe857610fe8612042565b6020910101516001600160f81b031916601d60f91b145b801561103057508060058151811061101957611019612042565b6020910101516001600160f81b031916602f60f81b145b801561106157508060068151811061104a5761104a612042565b6020910101516001600160f81b031916602f60f81b145b806111b657508060008151811061107a5761107a612042565b6020910101516001600160f81b031916600d60fb1b1480156110c15750806001815181106110aa576110aa612042565b6020910101516001600160f81b031916601d60fa1b145b80156110f25750806002815181106110db576110db612042565b6020910101516001600160f81b031916601d60fa1b145b801561112357508060038151811061110c5761110c612042565b6020910101516001600160f81b031916600760fc1b145b801561115457508060048151811061113d5761113d612042565b6020910101516001600160f81b031916607360f81b145b801561118557508060058151811061116e5761116e612042565b6020910101516001600160f81b031916601d60f91b145b80156111b657508060068151811061119f5761119f612042565b6020910101516001600160f81b031916602f60f81b145b8061130b5750806000815181106111cf576111cf612042565b6020910101516001600160f81b031916600d60fb1b1480156112165750806001815181106111ff576111ff612042565b6020910101516001600160f81b031916601d60fa1b145b801561124757508060028151811061123057611230612042565b6020910101516001600160f81b031916601d60fa1b145b801561127857508060038151811061126157611261612042565b6020910101516001600160f81b031916600760fc1b145b80156112a957508060048151811061129257611292612042565b6020910101516001600160f81b031916601d60f91b145b80156112da5750806005815181106112c3576112c3612042565b6020910101516001600160f81b031916602f60f81b145b801561130b5750806006815181106112f4576112f4612042565b6020910101516001600160f81b031916602f60f81b145b61133a578181604051602001611322929190612249565b60405160208183030381529060405292505050919050565b9392505050565b6001600160a01b03918216600090815260056020908152604080832093909416825291909152205460ff1690565b611377611418565b6001600160a01b0381166113a157604051631e4fbdf760e01b815260006004820152602401610548565b6113aa8161149e565b50565b60006001600160e01b0319821663780e9d6360e01b14806104225750610422826116c9565b6000818152600260205260408120546001600160a01b03168061042257604051637e27328960e01b815260048101849052602401610548565b6106b18383836001611719565b600a546001600160a01b03163314610da75760405163118cdaa760e01b8152336004820152602401610548565b600061145284848461181f565b949350505050565b6002600b540361147d57604051633ee5aeb560e01b815260040160405180910390fd5b6002600b55565b6104ee8282604051806020016040528060008152506118ec565b600a80546001600160a01b038381166001600160a01b0319831681179093556040519116919082907f8be0079c531659141344cd1fd0a4f28419497f9722a3daafe3b4186f6b6457e090600090a35050565b6001600160a01b03821661152257604051630b61174360e31b81526001600160a01b0383166004820152602401610548565b6001600160a01b03838116600081815260056020908152604080832094871680845294825291829020805460ff191686151590811790915591519182527f17307eab39ab6107e8899845ad3d59bd9653f200f220920489ca2b5937696c31910160405180910390a3505050565b6001600160a01b0383163b156116b357604051630a85bd0160e11b81526001600160a01b0384169063150b7a02906115d1908890889087908790600401612278565b6020604051808303816000875af192505050801561160c575060408051601f3d908101601f19168201909252611609918101906122b5565b60015b611675573d80801561163a576040519150601f19603f3d011682016040523d82523d6000602084013e61163f565b606091505b50805160000361166d57604051633250574960e11b81526001600160a01b0385166004820152602401610548565b805160208201fd5b6001600160e01b03198116630a85bd0160e11b146116b157604051633250574960e11b81526001600160a01b0385166004820152602401610548565b505b5050505050565b60606011805461043790612008565b60006001600160e01b031982166380ac58cd60e01b14806116fa57506001600160e01b03198216635b5e139f60e01b145b8061042257506301ffc9a760e01b6001600160e01b0319831614610422565b808061172d57506001600160a01b03821615155b156117ef57600061173d846113d2565b90506001600160a01b038316158015906117695750826001600160a01b0316816001600160a01b031614155b801561177c575061177a8184611341565b155b156117a55760405163a9fbf51f60e01b81526001600160a01b0384166004820152602401610548565b81156117ed5783856001600160a01b0316826001600160a01b03167f8c5be1e5ebec7d5bd14f71427d1e84f3dd0314c0f7b2291e5b200ac8c7c3b92560405160405180910390a45b505b5050600090815260046020526040902080546001600160a01b0319166001600160a01b0392909216919091179055565b60008061182d858585611904565b90506001600160a01b03811661188a5761188584600880546000838152600960205260408120829055600182018355919091527ff3f7a9fe364faab93b216da50a3214154f22a0a2b415b23a84c8169e8b636ee30155565b6118ad565b846001600160a01b0316816001600160a01b0316146118ad576118ad81856119fd565b6001600160a01b0385166118c9576118c484611a7e565b611452565b846001600160a01b0316816001600160a01b031614611452576114528585611b2d565b6118f68383611b7d565b6106b133600085858561158f565b6000828152600260205260408120546001600160a01b039081169083161561193157611931818486611be2565b6001600160a01b0381161561196f5761194e600085600080611719565b6001600160a01b038116600090815260036020526040902080546000190190555b6001600160a01b0385161561199e576001600160a01b0385166000908152600360205260409020805460010190555b60008481526002602052604080822080546001600160a01b0319166001600160a01b0389811691821790925591518793918516917fddf252ad1be2c89b69c2b068fc378daa952ba7f163c4a11628f55a4df523b3ef91a4949350505050565b6000611a0883610d4d565b6000838152600760209081526040808320546001600160a01b0388168452600690925290912091925090818314611a5f57600083815260208281526040808320548584528184208190558352600790915290208290555b6000938452600760209081526040808620869055938552525081205550565b600854600090611a90906001906121c7565b60008381526009602052604081205460088054939450909284908110611ab857611ab8612042565b906000526020600020015490508060088381548110611ad957611ad9612042565b6000918252602080832090910192909255828152600990915260408082208490558582528120556008805480611b1157611b116122d2565b6001900381819060005260206000200160009055905550505050565b60006001611b3a84610d4d565b611b4491906121c7565b6001600160a01b039093166000908152600660209081526040808320868452825280832085905593825260079052919091209190915550565b6001600160a01b038216611ba757604051633250574960e11b815260006004820152602401610548565b6000611bb583836000611445565b90506001600160a01b038116156106b1576040516339e3563760e11b815260006004820152602401610548565b611bed838383611c46565b6106b1576001600160a01b038316611c1b57604051637e27328960e01b815260048101829052602401610548565b60405163177e802f60e01b81526001600160a01b038316600482015260248101829052604401610548565b60006001600160a01b038316158015906114525750826001600160a01b0316846001600160a01b03161480611c805750611c808484611341565b806114525750506000908152600460205260409020546001600160a01b03908116911614919050565b6001600160e01b0319811681146113aa57600080fd5b600060208284031215611cd157600080fd5b813561133a81611ca9565b60005b83811015611cf7578181015183820152602001611cdf565b50506000910152565b60008151808452611d18816020860160208601611cdc565b601f01601f19169290920160200192915050565b60208152600061133a6020830184611d00565b600060208284031215611d5157600080fd5b5035919050565b80356001600160a01b0381168114611d6f57600080fd5b919050565b60008060408385031215611d8757600080fd5b611d9083611d58565b946020939093013593505050565b600080600060608486031215611db357600080fd5b505081359360208301359350604090920135919050565b600080600060608486031215611ddf57600080fd5b611de884611d58565b9250611df660208501611d58565b929592945050506040919091013590565b60008060208385031215611e1a57600080fd5b823567ffffffffffffffff811115611e3157600080fd5b8301601f81018513611e4257600080fd5b803567ffffffffffffffff811115611e5957600080fd5b856020828401011115611e6b57600080fd5b6020919091019590945092505050565b600060208284031215611e8d57600080fd5b61133a82611d58565b80151581146113aa57600080fd5b60008060408385031215611eb757600080fd5b611ec083611d58565b91506020830135611ed081611e96565b809150509250929050565b634e487b7160e01b600052604160045260246000fd5b60008060008060808587031215611f0757600080fd5b611f1085611d58565b9350611f1e60208601611d58565b925060408501359150606085013567ffffffffffffffff811115611f4157600080fd5b8501601f81018713611f5257600080fd5b803567ffffffffffffffff811115611f6c57611f6c611edb565b604051601f8201601f19908116603f0116810167ffffffffffffffff81118282101715611f9b57611f9b611edb565b604052818152828201602001891015611fb357600080fd5b8160208401602083013760006020838301015280935050505092959194509250565b60008060408385031215611fe857600080fd5b611ff183611d58565b9150611fff60208401611d58565b90509250929050565b600181811c9082168061201c57607f821691505b60208210810361203c57634e487b7160e01b600052602260045260246000fd5b50919050565b634e487b7160e01b600052603260045260246000fd5b601f8211156106b157806000526020600020601f840160051c8101602085101561207f5750805b601f840160051c820191505b818110156116b3576000815560010161208b565b67ffffffffffffffff8311156120b7576120b7611edb565b6120cb836120c58354612008565b83612058565b6000601f8411600181146120ff57600085156120e75750838201355b600019600387901b1c1916600186901b1783556116b3565b600083815260209020601f19861690835b828110156121305786850135825560209485019460019092019101612110565b508682101561214d5760001960f88860031b161c19848701351681555b505060018560011b0183555050505050565b60006020828403121561217157600080fd5b5051919050565b634e487b7160e01b600052601160045260246000fd5b808202811582820484141761042257610422612178565b6000826121c257634e487b7160e01b600052601260045260246000fd5b500490565b8181038181111561042257610422612178565b6000602082840312156121ec57600080fd5b815161133a81611e96565b60006001820161220957612209612178565b5060010190565b604081528260408201528284606083013760006060848301015260006060601f19601f8601168301019050826020830152949350505050565b6000835161225b818460208801611cdc565b83519083019061226f818360208801611cdc565b01949350505050565b6001600160a01b03858116825284166020820152604081018390526080606082018190526000906122ab90830184611d00565b9695505050505050565b6000602082840312156122c757600080fd5b815161133a81611ca9565b634e487b7160e01b600052603160045260246000fdfea264697066735822122011daeac228229913a7e33ade916098845c4cc4f0b7c3db4bbc593952e6fd2e5564736f6c634300081c0033","opcodes":"PUSH1 0xE0 PUSH1 0x40 MSTORE CALLVALUE DUP1 ISZERO PUSH2 0x10 JUMPI PUSH1 0x0 DUP1 REVERT JUMPDEST POP PUSH1 0x40 MLOAD PUSH2 0x273B CODESIZE SUB DUP1 PUSH2 0x273B DUP4 CODECOPY DUP2 ADD PUSH1 0x40 DUP2 SWAP1 MSTORE PUSH2 0x2F SWAP2 PUSH2 0x205 JUMP JUMPDEST DUP1 PUSH1 0x40 MLOAD DUP1 PUSH1 0x40 ADD PUSH1 0x40 MSTORE DUP1 PUSH1 0x1C DUP2 MSTORE PUSH1 0x20 ADD PUSH32 0x4261636B636861696E204E6F7461727920436572746966696361746500000000 DUP2 MSTORE POP PUSH1 0x40 MLOAD DUP1 PUSH1 0x40 ADD PUSH1 0x40 MSTORE DUP1 PUSH1 0x4 DUP2 MSTORE PUSH1 0x20 ADD PUSH4 0x2125A1A7 PUSH1 0xE1 SHL DUP2 MSTORE POP DUP2 PUSH1 0x0 SWAP1 DUP2 PUSH2 0x92 SWAP2 SWAP1 PUSH2 0x2F8 JUMP JUMPDEST POP PUSH1 0x1 PUSH2 0x9F DUP3 DUP3 PUSH2 0x2F8 JUMP JUMPDEST POP POP POP PUSH1 0x1 PUSH1 0x1 PUSH1 0xA0 SHL SUB DUP2 AND PUSH2 0xD1 JUMPI PUSH1 0x40 MLOAD PUSH4 0x1E4FBDF7 PUSH1 0xE0 SHL DUP2 MSTORE PUSH1 0x0 PUSH1 0x4 DUP3 ADD MSTORE PUSH1 0x24 ADD JUMPDEST PUSH1 0x40 MLOAD DUP1 SWAP2 SUB SWAP1 REVERT JUMPDEST PUSH2 0xDA DUP2 PUSH2 0x197 JUMP JUMPDEST POP PUSH1 0x1 PUSH1 0xB SSTORE PUSH1 0x1 PUSH1 0x1 PUSH1 0xA0 SHL SUB DUP5 AND ISZERO DUP1 ISZERO SWAP1 PUSH2 0x100 JUMPI POP PUSH1 0x1 PUSH1 0x1 PUSH1 0xA0 SHL SUB DUP4 AND ISZERO ISZERO JUMPDEST DUP1 ISZERO PUSH2 0x114 JUMPI POP PUSH1 0x1 PUSH1 0x1 PUSH1 0xA0 SHL SUB DUP3 AND ISZERO ISZERO JUMPDEST PUSH2 0x160 JUMPI PUSH1 0x40 MLOAD PUSH3 0x461BCD PUSH1 0xE5 SHL DUP2 MSTORE PUSH1 0x20 PUSH1 0x4 DUP3 ADD MSTORE PUSH1 0x19 PUSH1 0x24 DUP3 ADD MSTORE PUSH32 0x4E6F746172793A20496E76616C69642061646472657373657300000000000000 PUSH1 0x44 DUP3 ADD MSTORE PUSH1 0x64 ADD PUSH2 0xC8 JUMP JUMPDEST POP PUSH1 0x1 PUSH1 0x1 PUSH1 0xA0 SHL SUB SWAP3 DUP4 AND PUSH1 0x80 MSTORE SWAP1 DUP3 AND PUSH1 0xA0 MSTORE AND PUSH1 0xC0 MSTORE PUSH2 0x3E8 PUSH1 0xC SSTORE PUSH9 0x56BC75E2D63100000 PUSH1 0xD SSTORE PUSH2 0x1388 PUSH1 0xE SSTORE PUSH2 0x3B6 JUMP JUMPDEST PUSH1 0xA DUP1 SLOAD PUSH1 0x1 PUSH1 0x1 PUSH1 0xA0 SHL SUB DUP4 DUP2 AND PUSH1 0x1 PUSH1 0x1 PUSH1 0xA0 SHL SUB NOT DUP4 AND DUP2 OR SWAP1 SWAP4 SSTORE PUSH1 0x40 MLOAD SWAP2 AND SWAP2 SWAP1 DUP3 SWAP1 PUSH32 0x8BE0079C531659141344CD1FD0A4F28419497F9722A3DAAFE3B4186F6B6457E0 SWAP1 PUSH1 0x0 SWAP1 LOG3 POP POP JUMP JUMPDEST DUP1 MLOAD PUSH1 0x1 PUSH1 0x1 PUSH1 0xA0 SHL SUB DUP2 AND DUP2 EQ PUSH2 0x200 JUMPI PUSH1 0x0 DUP1 REVERT JUMPDEST SWAP2 SWAP1 POP JUMP JUMPDEST PUSH1 0x0 DUP1 PUSH1 0x0 DUP1 PUSH1 0x80 DUP6 DUP8 SUB SLT ISZERO PUSH2 0x21B JUMPI PUSH1 0x0 DUP1 REVERT JUMPDEST PUSH2 0x224 DUP6 PUSH2 0x1E9 JUMP JUMPDEST SWAP4 POP PUSH2 0x232 PUSH1 0x20 DUP7 ADD PUSH2 0x1E9 JUMP JUMPDEST SWAP3 POP PUSH2 0x240 PUSH1 0x40 DUP7 ADD PUSH2 0x1E9 JUMP JUMPDEST SWAP2 POP PUSH2 0x24E PUSH1 0x60 DUP7 ADD PUSH2 0x1E9 JUMP JUMPDEST SWAP1 POP SWAP3 SWAP6 SWAP2 SWAP5 POP SWAP3 POP JUMP JUMPDEST PUSH4 0x4E487B71 PUSH1 0xE0 SHL PUSH1 0x0 MSTORE PUSH1 0x41 PUSH1 0x4 MSTORE PUSH1 0x24 PUSH1 0x0 REVERT JUMPDEST PUSH1 0x1 DUP2 DUP2 SHR SWAP1 DUP3 AND DUP1 PUSH2 0x283 JUMPI PUSH1 0x7F DUP3 AND SWAP2 POP JUMPDEST PUSH1 0x20 DUP3 LT DUP2 SUB PUSH2 0x2A3 JUMPI PUSH4 0x4E487B71 PUSH1 0xE0 SHL PUSH1 0x0 MSTORE PUSH1 0x22 PUSH1 0x4 MSTORE PUSH1 0x24 PUSH1 0x0 REVERT JUMPDEST POP SWAP2 SWAP1 POP JUMP JUMPDEST PUSH1 0x1F DUP3 GT ISZERO PUSH2 0x2F3 JUMPI DUP1 PUSH1 0x0 MSTORE PUSH1 0x20 PUSH1 0x0 KECCAK256 PUSH1 0x1F DUP5 ADD PUSH1 0x5 SHR DUP2 ADD PUSH1 0x20 DUP6 LT ISZERO PUSH2 0x2D0 JUMPI POP DUP1 JUMPDEST PUSH1 0x1F DUP5 ADD PUSH1 0x5 SHR DUP3 ADD SWAP2 POP JUMPDEST DUP2 DUP2 LT ISZERO PUSH2 0x2F0 JUMPI PUSH1 0x0 DUP2 SSTORE PUSH1 0x1 ADD PUSH2 0x2DC JUMP JUMPDEST POP POP JUMPDEST POP POP POP JUMP JUMPDEST DUP2 MLOAD PUSH1 0x1 PUSH1 0x1 PUSH1 0x40 SHL SUB DUP2 GT ISZERO PUSH2 0x311 JUMPI PUSH2 0x311 PUSH2 0x259 JUMP JUMPDEST PUSH2 0x325 DUP2 PUSH2 0x31F DUP5 SLOAD PUSH2 0x26F JUMP JUMPDEST DUP5 PUSH2 0x2A9 JUMP JUMPDEST PUSH1 0x20 PUSH1 0x1F DUP3 GT PUSH1 0x1 DUP2 EQ PUSH2 0x359 JUMPI PUSH1 0x0 DUP4 ISZERO PUSH2 0x341 JUMPI POP DUP5 DUP3 ADD MLOAD JUMPDEST PUSH1 0x0 NOT PUSH1 0x3 DUP6 SWAP1 SHL SHR NOT AND PUSH1 0x1 DUP5 SWAP1 SHL OR DUP5 SSTORE PUSH2 0x2F0 JUMP JUMPDEST PUSH1 0x0 DUP5 DUP2 MSTORE PUSH1 0x20 DUP2 KECCAK256 PUSH1 0x1F NOT DUP6 AND SWAP2 JUMPDEST DUP3 DUP2 LT ISZERO PUSH2 0x389 JUMPI DUP8 DUP6 ADD MLOAD DUP3 SSTORE PUSH1 0x20 SWAP5 DUP6 ADD SWAP5 PUSH1 0x1 SWAP1 SWAP3 ADD SWAP2 ADD PUSH2 0x369 JUMP JUMPDEST POP DUP5 DUP3 LT ISZERO PUSH2 0x3A7 JUMPI DUP7 DUP5 ADD MLOAD PUSH1 0x0 NOT PUSH1 0x3 DUP8 SWAP1 SHL PUSH1 0xF8 AND SHR NOT AND DUP2 SSTORE JUMPDEST POP POP POP POP PUSH1 0x1 SWAP1 DUP2 SHL ADD SWAP1 SSTORE POP JUMP JUMPDEST PUSH1 0x80 MLOAD PUSH1 0xA0 MLOAD PUSH1 0xC0 MLOAD PUSH2 0x231E PUSH2 0x41D PUSH1 0x0 CODECOPY PUSH1 0x0 DUP2 DUP2 PUSH2 0x2E6 ADD MSTORE PUSH2 0xA98 ADD MSTORE PUSH1 0x0 DUP2 DUP2 PUSH2 0x3E2 ADD MSTORE DUP2 DUP2 PUSH2 0x7AB ADD MSTORE DUP2 DUP2 PUSH2 0xB9D ADD MSTORE PUSH2 0xC57 ADD MSTORE PUSH1 0x0 DUP2 DUP2 PUSH2 0x299 ADD MSTORE DUP2 DUP2 PUSH2 0x898 ADD MSTORE DUP2 DUP2 PUSH2 0x9BA ADD MSTORE DUP2 DUP2 PUSH2 0xAC7 ADD MSTORE PUSH2 0xBCC ADD MSTORE PUSH2 0x231E PUSH1 0x0 RETURN INVALID PUSH1 0x80 PUSH1 0x40 MSTORE CALLVALUE DUP1 ISZERO PUSH2 0x10 JUMPI PUSH1 0x0 DUP1 REVERT JUMPDEST POP PUSH1 0x4 CALLDATASIZE LT PUSH2 0x1C4 JUMPI PUSH1 0x0 CALLDATALOAD PUSH1 0xE0 SHR DUP1 PUSH4 0x55F804B3 GT PUSH2 0xF9 JUMPI DUP1 PUSH4 0xA22CB465 GT PUSH2 0x97 JUMPI DUP1 PUSH4 0xC87B56DD GT PUSH2 0x71 JUMPI DUP1 PUSH4 0xC87B56DD EQ PUSH2 0x3B7 JUMPI DUP1 PUSH4 0xE985E9C5 EQ PUSH2 0x3CA JUMPI DUP1 PUSH4 0xEA4D3C9B EQ PUSH2 0x3DD JUMPI DUP1 PUSH4 0xF2FDE38B EQ PUSH2 0x404 JUMPI PUSH1 0x0 DUP1 REVERT JUMPDEST DUP1 PUSH4 0xA22CB465 EQ PUSH2 0x388 JUMPI DUP1 PUSH4 0xA7351D1C EQ PUSH2 0x39B JUMPI DUP1 PUSH4 0xB88D4FDE EQ PUSH2 0x3A4 JUMPI PUSH1 0x0 DUP1 REVERT JUMPDEST DUP1 PUSH4 0x70A08231 GT PUSH2 0xD3 JUMPI DUP1 PUSH4 0x70A08231 EQ PUSH2 0x354 JUMPI DUP1 PUSH4 0x715018A6 EQ PUSH2 0x367 JUMPI DUP1 PUSH4 0x8DA5CB5B EQ PUSH2 0x36F JUMPI DUP1 PUSH4 0x95D89B41 EQ PUSH2 0x380 JUMPI PUSH1 0x0 DUP1 REVERT JUMPDEST DUP1 PUSH4 0x55F804B3 EQ PUSH2 0x31B JUMPI DUP1 PUSH4 0x6352211E EQ PUSH2 0x32E JUMPI DUP1 PUSH4 0x6A33BF87 EQ PUSH2 0x341 JUMPI PUSH1 0x0 DUP1 REVERT JUMPDEST DUP1 PUSH4 0x1DD627E7 GT PUSH2 0x166 JUMPI DUP1 PUSH4 0x2F745C59 GT PUSH2 0x140 JUMPI DUP1 PUSH4 0x2F745C59 EQ PUSH2 0x2BB JUMPI DUP1 PUSH4 0x42842E0E EQ PUSH2 0x2CE JUMPI DUP1 PUSH4 0x4626402B EQ PUSH2 0x2E1 JUMPI DUP1 PUSH4 0x4F6CCCE7 EQ PUSH2 0x308 JUMPI PUSH1 0x0 DUP1 REVERT JUMPDEST DUP1 PUSH4 0x1DD627E7 EQ PUSH2 0x26E JUMPI DUP1 PUSH4 0x23B872DD EQ PUSH2 0x281 JUMPI DUP1 PUSH4 0x2402FF97 EQ PUSH2 0x294 JUMPI PUSH1 0x0 DUP1 REVERT JUMPDEST DUP1 PUSH4 0x95EA7B3 GT PUSH2 0x1A2 JUMPI DUP1 PUSH4 0x95EA7B3 EQ PUSH2 0x231 JUMPI DUP1 PUSH4 0x11107936 EQ PUSH2 0x246 JUMPI DUP1 PUSH4 0x18160DDD EQ PUSH2 0x25D JUMPI DUP1 PUSH4 0x1C484CBB EQ PUSH2 0x265 JUMPI PUSH1 0x0 DUP1 REVERT JUMPDEST DUP1 PUSH4 0x1FFC9A7 EQ PUSH2 0x1C9 JUMPI DUP1 PUSH4 0x6FDDE03 EQ PUSH2 0x1F1 JUMPI DUP1 PUSH4 0x81812FC EQ PUSH2 0x206 JUMPI JUMPDEST PUSH1 0x0 DUP1 REVERT JUMPDEST PUSH2 0x1DC PUSH2 0x1D7 CALLDATASIZE PUSH1 0x4 PUSH2 0x1CBF JUMP JUMPDEST PUSH2 0x417 JUMP JUMPDEST PUSH1 0x40 MLOAD SWAP1 ISZERO ISZERO DUP2 MSTORE PUSH1 0x20 ADD JUMPDEST PUSH1 0x40 MLOAD DUP1 SWAP2 SUB SWAP1 RETURN JUMPDEST PUSH2 0x1F9 PUSH2 0x428 JUMP JUMPDEST PUSH1 0x40 MLOAD PUSH2 0x1E8 SWAP2 SWAP1 PUSH2 0x1D2C JUMP JUMPDEST PUSH2 0x219 PUSH2 0x214 CALLDATASIZE PUSH1 0x4 PUSH2 0x1D3F JUMP JUMPDEST PUSH2 0x4BA JUMP JUMPDEST PUSH1 0x40 MLOAD PUSH1 0x1 PUSH1 0x1 PUSH1 0xA0 SHL SUB SWAP1 SWAP2 AND DUP2 MSTORE PUSH1 0x20 ADD PUSH2 0x1E8 JUMP JUMPDEST PUSH2 0x244 PUSH2 0x23F CALLDATASIZE PUSH1 0x4 PUSH2 0x1D74 JUMP JUMPDEST PUSH2 0x4E3 JUMP JUMPDEST STOP JUMPDEST PUSH2 0x24F PUSH1 0xC SLOAD DUP2 JUMP JUMPDEST PUSH1 0x40 MLOAD SWAP1 DUP2 MSTORE PUSH1 0x20 ADD PUSH2 0x1E8 JUMP JUMPDEST PUSH1 0x8 SLOAD PUSH2 0x24F JUMP JUMPDEST PUSH2 0x24F PUSH1 0xD SLOAD DUP2 JUMP JUMPDEST PUSH2 0x244 PUSH2 0x27C CALLDATASIZE PUSH1 0x4 PUSH2 0x1D9E JUMP JUMPDEST PUSH2 0x4F2 JUMP JUMPDEST PUSH2 0x244 PUSH2 0x28F CALLDATASIZE PUSH1 0x4 PUSH2 0x1DCA JUMP JUMPDEST PUSH2 0x5A6 JUMP JUMPDEST PUSH2 0x219 PUSH32 0x0 DUP2 JUMP JUMPDEST PUSH2 0x24F PUSH2 0x2C9 CALLDATASIZE PUSH1 0x4 PUSH2 0x1D74 JUMP JUMPDEST PUSH2 0x631 JUMP JUMPDEST PUSH2 0x244 PUSH2 0x2DC CALLDATASIZE PUSH1 0x4 PUSH2 0x1DCA JUMP JUMPDEST PUSH2 0x696 JUMP JUMPDEST PUSH2 0x219 PUSH32 0x0 DUP2 JUMP JUMPDEST PUSH2 0x24F PUSH2 0x316 CALLDATASIZE PUSH1 0x4 PUSH2 0x1D3F JUMP JUMPDEST PUSH2 0x6B6 JUMP JUMPDEST PUSH2 0x244 PUSH2 0x329 CALLDATASIZE PUSH1 0x4 PUSH2 0x1E07 JUMP JUMPDEST PUSH2 0x70F JUMP JUMPDEST PUSH2 0x219 PUSH2 0x33C CALLDATASIZE PUSH1 0x4 PUSH2 0x1D3F JUMP JUMPDEST PUSH2 0x724 JUMP JUMPDEST PUSH2 0x244 PUSH2 0x34F CALLDATASIZE PUSH1 0x4 PUSH2 0x1E07 JUMP JUMPDEST PUSH2 0x72F JUMP JUMPDEST PUSH2 0x24F PUSH2 0x362 CALLDATASIZE PUSH1 0x4 PUSH2 0x1E7B JUMP JUMPDEST PUSH2 0xD4D JUMP JUMPDEST PUSH2 0x244 PUSH2 0xD95 JUMP JUMPDEST PUSH1 0xA SLOAD PUSH1 0x1 PUSH1 0x1 PUSH1 0xA0 SHL SUB AND PUSH2 0x219 JUMP JUMPDEST PUSH2 0x1F9 PUSH2 0xDA9 JUMP JUMPDEST PUSH2 0x244 PUSH2 0x396 CALLDATASIZE PUSH1 0x4 PUSH2 0x1EA4 JUMP JUMPDEST PUSH2 0xDB8 JUMP JUMPDEST PUSH2 0x24F PUSH1 0xE SLOAD DUP2 JUMP JUMPDEST PUSH2 0x244 PUSH2 0x3B2 CALLDATASIZE PUSH1 0x4 PUSH2 0x1EF1 JUMP JUMPDEST PUSH2 0xDC3 JUMP JUMPDEST PUSH2 0x1F9 PUSH2 0x3C5 CALLDATASIZE PUSH1 0x4 PUSH2 0x1D3F JUMP JUMPDEST PUSH2 0xDDB JUMP JUMPDEST PUSH2 0x1DC PUSH2 0x3D8 CALLDATASIZE PUSH1 0x4 PUSH2 0x1FD5 JUMP JUMPDEST PUSH2 0x1341 JUMP JUMPDEST PUSH2 0x219 PUSH32 0x0 DUP2 JUMP JUMPDEST PUSH2 0x244 PUSH2 0x412 CALLDATASIZE PUSH1 0x4 PUSH2 0x1E7B JUMP JUMPDEST PUSH2 0x136F JUMP JUMPDEST PUSH1 0x0 PUSH2 0x422 DUP3 PUSH2 0x13AD JUMP JUMPDEST SWAP3 SWAP2 POP POP JUMP JUMPDEST PUSH1 0x60 PUSH1 0x0 DUP1 SLOAD PUSH2 0x437 SWAP1 PUSH2 0x2008 JUMP JUMPDEST DUP1 PUSH1 0x1F ADD PUSH1 0x20 DUP1 SWAP2 DIV MUL PUSH1 0x20 ADD PUSH1 0x40 MLOAD SWAP1 DUP2 ADD PUSH1 0x40 MSTORE DUP1 SWAP3 SWAP2 SWAP1 DUP2 DUP2 MSTORE PUSH1 0x20 ADD DUP3 DUP1 SLOAD PUSH2 0x463 SWAP1 PUSH2 0x2008 JUMP JUMPDEST DUP1 ISZERO PUSH2 0x4B0 JUMPI DUP1 PUSH1 0x1F LT PUSH2 0x485 JUMPI PUSH2 0x100 DUP1 DUP4 SLOAD DIV MUL DUP4 MSTORE SWAP2 PUSH1 0x20 ADD SWAP2 PUSH2 0x4B0 JUMP JUMPDEST DUP3 ADD SWAP2 SWAP1 PUSH1 0x0 MSTORE PUSH1 0x20 PUSH1 0x0 KECCAK256 SWAP1 JUMPDEST DUP2 SLOAD DUP2 MSTORE SWAP1 PUSH1 0x1 ADD SWAP1 PUSH1 0x20 ADD DUP1 DUP4 GT PUSH2 0x493 JUMPI DUP3 SWAP1 SUB PUSH1 0x1F AND DUP3 ADD SWAP2 JUMPDEST POP POP POP POP POP SWAP1 POP SWAP1 JUMP JUMPDEST PUSH1 0x0 PUSH2 0x4C5 DUP3 PUSH2 0x13D2 JUMP JUMPDEST POP PUSH1 0x0 DUP3 DUP2 MSTORE PUSH1 0x4 PUSH1 0x20 MSTORE PUSH1 0x40 SWAP1 KECCAK256 SLOAD PUSH1 0x1 PUSH1 0x1 PUSH1 0xA0 SHL SUB AND PUSH2 0x422 JUMP JUMPDEST PUSH2 0x4EE DUP3 DUP3 CALLER PUSH2 0x140B JUMP JUMPDEST POP POP JUMP JUMPDEST PUSH2 0x4FA PUSH2 0x1418 JUMP JUMPDEST PUSH2 0x2710 DUP2 GT ISZERO PUSH2 0x551 JUMPI PUSH1 0x40 MLOAD PUSH3 0x461BCD PUSH1 0xE5 SHL DUP2 MSTORE PUSH1 0x20 PUSH1 0x4 DUP3 ADD DUP2 SWAP1 MSTORE PUSH1 0x24 DUP3 ADD MSTORE PUSH32 0x4E6F746172793A20426970732063616E6E6F7420657863656564203130303030 PUSH1 0x44 DUP3 ADD MSTORE PUSH1 0x64 ADD JUMPDEST PUSH1 0x40 MLOAD DUP1 SWAP2 SUB SWAP1 REVERT JUMPDEST PUSH1 0xC DUP4 SWAP1 SSTORE PUSH1 0xD DUP3 SWAP1 SSTORE PUSH1 0xE DUP2 SWAP1 SSTORE PUSH1 0x40 DUP1 MLOAD DUP5 DUP2 MSTORE PUSH1 0x20 DUP2 ADD DUP5 SWAP1 MSTORE SWAP1 DUP2 ADD DUP3 SWAP1 MSTORE PUSH32 0x1AF8AD19E1D7698A019819D3503A4B10EF1522410C2AB0353B796370BE26FC1 SWAP1 PUSH1 0x60 ADD PUSH1 0x40 MLOAD DUP1 SWAP2 SUB SWAP1 LOG1 POP POP POP JUMP JUMPDEST PUSH1 0x1 PUSH1 0x1 PUSH1 0xA0 SHL SUB DUP3 AND PUSH2 0x5D0 JUMPI PUSH1 0x40 MLOAD PUSH4 0x32505749 PUSH1 0xE1 SHL DUP2 MSTORE PUSH1 0x0 PUSH1 0x4 DUP3 ADD MSTORE PUSH1 0x24 ADD PUSH2 0x548 JUMP JUMPDEST PUSH1 0x0 PUSH2 0x5DD DUP4 DUP4 CALLER PUSH2 0x1445 JUMP JUMPDEST SWAP1 POP DUP4 PUSH1 0x1 PUSH1 0x1 PUSH1 0xA0 SHL SUB AND DUP2 PUSH1 0x1 PUSH1 0x1 PUSH1 0xA0 SHL SUB AND EQ PUSH2 0x62B JUMPI PUSH1 0x40 MLOAD PUSH4 0x64283D7B PUSH1 0xE0 SHL DUP2 MSTORE PUSH1 0x1 PUSH1 0x1 PUSH1 0xA0 SHL SUB DUP1 DUP7 AND PUSH1 0x4 DUP4 ADD MSTORE PUSH1 0x24 DUP3 ADD DUP5 SWAP1 MSTORE DUP3 AND PUSH1 0x44 DUP3 ADD MSTORE PUSH1 0x64 ADD PUSH2 0x548 JUMP JUMPDEST POP POP POP POP JUMP JUMPDEST PUSH1 0x0 PUSH2 0x63C DUP4 PUSH2 0xD4D JUMP JUMPDEST DUP3 LT PUSH2 0x66D JUMPI PUSH1 0x40 MLOAD PUSH4 0x295F44F7 PUSH1 0xE2 SHL DUP2 MSTORE PUSH1 0x1 PUSH1 0x1 PUSH1 0xA0 SHL SUB DUP5 AND PUSH1 0x4 DUP3 ADD MSTORE PUSH1 0x24 DUP2 ADD DUP4 SWAP1 MSTORE PUSH1 0x44 ADD PUSH2 0x548 JUMP JUMPDEST POP PUSH1 0x1 PUSH1 0x1 PUSH1 0xA0 SHL SUB SWAP2 SWAP1 SWAP2 AND PUSH1 0x0 SWAP1 DUP2 MSTORE PUSH1 0x6 PUSH1 0x20 SWAP1 DUP2 MSTORE PUSH1 0x40 DUP1 DUP4 KECCAK256 SWAP4 DUP4 MSTORE SWAP3 SWAP1 MSTORE KECCAK256 SLOAD SWAP1 JUMP JUMPDEST PUSH2 0x6B1 DUP4 DUP4 DUP4 PUSH1 0x40 MLOAD DUP1 PUSH1 0x20 ADD PUSH1 0x40 MSTORE DUP1 PUSH1 0x0 DUP2 MSTORE POP PUSH2 0xDC3 JUMP JUMPDEST POP POP POP JUMP JUMPDEST PUSH1 0x0 PUSH2 0x6C1 PUSH1 0x8 SLOAD SWAP1 JUMP JUMPDEST DUP3 LT PUSH2 0x6EA JUMPI PUSH1 0x40 MLOAD PUSH4 0x295F44F7 PUSH1 0xE2 SHL DUP2 MSTORE PUSH1 0x0 PUSH1 0x4 DUP3 ADD MSTORE PUSH1 0x24 DUP2 ADD DUP4 SWAP1 MSTORE PUSH1 0x44 ADD PUSH2 0x548 JUMP JUMPDEST PUSH1 0x8 DUP3 DUP2 SLOAD DUP2 LT PUSH2 0x6FD JUMPI PUSH2 0x6FD PUSH2 0x2042 JUMP JUMPDEST SWAP1 PUSH1 0x0 MSTORE PUSH1 0x20 PUSH1 0x0 KECCAK256 ADD SLOAD SWAP1 POP SWAP2 SWAP1 POP JUMP JUMPDEST PUSH2 0x717 PUSH2 0x1418 JUMP JUMPDEST PUSH1 0x11 PUSH2 0x6B1 DUP3 DUP5 DUP4 PUSH2 0x209F JUMP JUMPDEST PUSH1 0x0 PUSH2 0x422 DUP3 PUSH2 0x13D2 JUMP JUMPDEST PUSH2 0x737 PUSH2 0x145A JUMP JUMPDEST DUP1 PUSH2 0x790 JUMPI PUSH1 0x40 MLOAD PUSH3 0x461BCD PUSH1 0xE5 SHL DUP2 MSTORE PUSH1 0x20 PUSH1 0x4 DUP3 ADD MSTORE PUSH1 0x24 DUP1 DUP3 ADD MSTORE PUSH32 0x4E6F746172793A20446F63756D656E74205552492063616E6E6F742062652065 PUSH1 0x44 DUP3 ADD MSTORE PUSH4 0x6D707479 PUSH1 0xE0 SHL PUSH1 0x64 DUP3 ADD MSTORE PUSH1 0x84 ADD PUSH2 0x548 JUMP JUMPDEST PUSH1 0xD SLOAD PUSH1 0x40 MLOAD PUSH4 0xC684E0E1 PUSH1 0xE0 SHL DUP2 MSTORE CALLER PUSH1 0x4 DUP3 ADD MSTORE PUSH1 0x0 SWAP1 PUSH32 0x0 PUSH1 0x1 PUSH1 0x1 PUSH1 0xA0 SHL SUB AND SWAP1 PUSH4 0xC684E0E1 SWAP1 PUSH1 0x24 ADD PUSH1 0x20 PUSH1 0x40 MLOAD DUP1 DUP4 SUB DUP2 DUP7 GAS STATICCALL ISZERO DUP1 ISZERO PUSH2 0x7FA JUMPI RETURNDATASIZE PUSH1 0x0 DUP1 RETURNDATACOPY RETURNDATASIZE PUSH1 0x0 REVERT JUMPDEST POP POP POP POP PUSH1 0x40 MLOAD RETURNDATASIZE PUSH1 0x1F NOT PUSH1 0x1F DUP3 ADD AND DUP3 ADD DUP1 PUSH1 0x40 MSTORE POP DUP2 ADD SWAP1 PUSH2 0x81E SWAP2 SWAP1 PUSH2 0x215F JUMP JUMPDEST SWAP1 POP PUSH1 0xC SLOAD DUP2 LT ISZERO PUSH2 0x881 JUMPI PUSH1 0x40 MLOAD PUSH3 0x461BCD PUSH1 0xE5 SHL DUP2 MSTORE PUSH1 0x20 PUSH1 0x4 DUP3 ADD MSTORE PUSH1 0x26 PUSH1 0x24 DUP3 ADD MSTORE PUSH32 0x4E6F746172793A20496E73756666696369656E7420705374616B652064656C65 PUSH1 0x44 DUP3 ADD MSTORE PUSH6 0x33B0BA34B7B7 PUSH1 0xD1 SHL PUSH1 0x64 DUP3 ADD MSTORE PUSH1 0x84 ADD PUSH2 0x548 JUMP JUMPDEST PUSH1 0x40 MLOAD PUSH4 0x70A08231 PUSH1 0xE0 SHL DUP2 MSTORE CALLER PUSH1 0x4 DUP3 ADD MSTORE DUP3 SWAP1 PUSH32 0x0 PUSH1 0x1 PUSH1 0x1 PUSH1 0xA0 SHL SUB AND SWAP1 PUSH4 0x70A08231 SWAP1 PUSH1 0x24 ADD PUSH1 0x20 PUSH1 0x40 MLOAD DUP1 DUP4 SUB DUP2 DUP7 GAS STATICCALL ISZERO DUP1 ISZERO PUSH2 0x8E7 JUMPI RETURNDATASIZE PUSH1 0x0 DUP1 RETURNDATACOPY RETURNDATASIZE PUSH1 0x0 REVERT JUMPDEST POP POP POP POP PUSH1 0x40 MLOAD RETURNDATASIZE PUSH1 0x1F NOT PUSH1 0x1F DUP3 ADD AND DUP3 ADD DUP1 PUSH1 0x40 MSTORE POP DUP2 ADD SWAP1 PUSH2 0x90B SWAP2 SWAP1 PUSH2 0x215F JUMP JUMPDEST LT ISZERO PUSH2 0x96A JUMPI PUSH1 0x40 MLOAD PUSH3 0x461BCD PUSH1 0xE5 SHL DUP2 MSTORE PUSH1 0x20 PUSH1 0x4 DUP3 ADD MSTORE PUSH1 0x28 PUSH1 0x24 DUP3 ADD MSTORE PUSH32 0x4E6F746172793A20496E73756666696369656E7420424B432062616C616E6365 PUSH1 0x44 DUP3 ADD MSTORE PUSH8 0x20666F7220666565 PUSH1 0xC0 SHL PUSH1 0x64 DUP3 ADD MSTORE PUSH1 0x84 ADD PUSH2 0x548 JUMP JUMPDEST PUSH1 0x0 PUSH2 0x2710 PUSH1 0xE SLOAD DUP5 PUSH2 0x97D SWAP2 SWAP1 PUSH2 0x218E JUMP JUMPDEST PUSH2 0x987 SWAP2 SWAP1 PUSH2 0x21A5 JUMP JUMPDEST SWAP1 POP PUSH1 0x0 PUSH2 0x995 DUP3 DUP6 PUSH2 0x21C7 JUMP JUMPDEST PUSH1 0x40 MLOAD PUSH4 0x23B872DD PUSH1 0xE0 SHL DUP2 MSTORE CALLER PUSH1 0x4 DUP3 ADD MSTORE ADDRESS PUSH1 0x24 DUP3 ADD MSTORE PUSH1 0x44 DUP2 ADD DUP7 SWAP1 MSTORE SWAP1 SWAP2 POP PUSH32 0x0 PUSH1 0x1 PUSH1 0x1 PUSH1 0xA0 SHL SUB AND SWAP1 PUSH4 0x23B872DD SWAP1 PUSH1 0x64 ADD PUSH1 0x20 PUSH1 0x40 MLOAD DUP1 DUP4 SUB DUP2 PUSH1 0x0 DUP8 GAS CALL ISZERO DUP1 ISZERO PUSH2 0xA0B JUMPI RETURNDATASIZE PUSH1 0x0 DUP1 RETURNDATACOPY RETURNDATASIZE PUSH1 0x0 REVERT JUMPDEST POP POP POP POP PUSH1 0x40 MLOAD RETURNDATASIZE PUSH1 0x1F NOT PUSH1 0x1F DUP3 ADD AND DUP3 ADD DUP1 PUSH1 0x40 MSTORE POP DUP2 ADD SWAP1 PUSH2 0xA2F SWAP2 SWAP1 PUSH2 0x21DA JUMP JUMPDEST PUSH2 0xA7B JUMPI PUSH1 0x40 MLOAD PUSH3 0x461BCD PUSH1 0xE5 SHL DUP2 MSTORE PUSH1 0x20 PUSH1 0x4 DUP3 ADD MSTORE PUSH1 0x1B PUSH1 0x24 DUP3 ADD MSTORE PUSH32 0x4E6F746172793A20466565207472616E73666572206661696C65640000000000 PUSH1 0x44 DUP3 ADD MSTORE PUSH1 0x64 ADD PUSH2 0x548 JUMP JUMPDEST DUP2 ISZERO PUSH2 0xB80 JUMPI PUSH1 0x40 MLOAD PUSH4 0xA9059CBB PUSH1 0xE0 SHL DUP2 MSTORE PUSH1 0x1 PUSH1 0x1 PUSH1 0xA0 SHL SUB PUSH32 0x0 DUP2 AND PUSH1 0x4 DUP4 ADD MSTORE PUSH1 0x24 DUP3 ADD DUP5 SWAP1 MSTORE PUSH32 0x0 AND SWAP1 PUSH4 0xA9059CBB SWAP1 PUSH1 0x44 ADD PUSH1 0x20 PUSH1 0x40 MLOAD DUP1 DUP4 SUB DUP2 PUSH1 0x0 DUP8 GAS CALL ISZERO DUP1 ISZERO PUSH2 0xB10 JUMPI RETURNDATASIZE PUSH1 0x0 DUP1 RETURNDATACOPY RETURNDATASIZE PUSH1 0x0 REVERT JUMPDEST POP POP POP POP PUSH1 0x40 MLOAD RETURNDATASIZE PUSH1 0x1F NOT PUSH1 0x1F DUP3 ADD AND DUP3 ADD DUP1 PUSH1 0x40 MSTORE POP DUP2 ADD SWAP1 PUSH2 0xB34 SWAP2 SWAP1 PUSH2 0x21DA JUMP JUMPDEST PUSH2 0xB80 JUMPI PUSH1 0x40 MLOAD PUSH3 0x461BCD PUSH1 0xE5 SHL DUP2 MSTORE PUSH1 0x20 PUSH1 0x4 DUP3 ADD DUP2 SWAP1 MSTORE PUSH1 0x24 DUP3 ADD MSTORE PUSH32 0x4E6F746172793A205472656173757279207472616E73666572206661696C6564 PUSH1 0x44 DUP3 ADD MSTORE PUSH1 0x64 ADD PUSH2 0x548 JUMP JUMPDEST DUP1 ISZERO PUSH2 0xCBC JUMPI PUSH1 0x40 MLOAD PUSH4 0x95EA7B3 PUSH1 0xE0 SHL DUP2 MSTORE PUSH1 0x1 PUSH1 0x1 PUSH1 0xA0 SHL SUB PUSH32 0x0 DUP2 AND PUSH1 0x4 DUP4 ADD MSTORE PUSH1 0x24 DUP3 ADD DUP4 SWAP1 MSTORE PUSH32 0x0 AND SWAP1 PUSH4 0x95EA7B3 SWAP1 PUSH1 0x44 ADD PUSH1 0x20 PUSH1 0x40 MLOAD DUP1 DUP4 SUB DUP2 PUSH1 0x0 DUP8 GAS CALL ISZERO DUP1 ISZERO PUSH2 0xC15 JUMPI RETURNDATASIZE PUSH1 0x0 DUP1 RETURNDATACOPY RETURNDATASIZE PUSH1 0x0 REVERT JUMPDEST POP POP POP POP PUSH1 0x40 MLOAD RETURNDATASIZE PUSH1 0x1F NOT PUSH1 0x1F DUP3 ADD AND DUP3 ADD DUP1 PUSH1 0x40 MSTORE POP DUP2 ADD SWAP1 PUSH2 0xC39 SWAP2 SWAP1 PUSH2 0x21DA JUMP JUMPDEST POP PUSH1 0x40 MLOAD PUSH4 0xBDD071FB PUSH1 0xE0 SHL DUP2 MSTORE PUSH1 0x0 PUSH1 0x4 DUP3 ADD MSTORE PUSH1 0x24 DUP2 ADD DUP3 SWAP1 MSTORE PUSH32 0x0 PUSH1 0x1 PUSH1 0x1 PUSH1 0xA0 SHL SUB AND SWAP1 PUSH4 0xBDD071FB SWAP1 PUSH1 0x44 ADD PUSH1 0x0 PUSH1 0x40 MLOAD DUP1 DUP4 SUB DUP2 PUSH1 0x0 DUP8 DUP1 EXTCODESIZE ISZERO DUP1 ISZERO PUSH2 0xCA3 JUMPI PUSH1 0x0 DUP1 REVERT JUMPDEST POP GAS CALL ISZERO DUP1 ISZERO PUSH2 0xCB7 JUMPI RETURNDATASIZE PUSH1 0x0 DUP1 RETURNDATACOPY RETURNDATASIZE PUSH1 0x0 REVERT JUMPDEST POP POP POP POP JUMPDEST PUSH1 0xF DUP1 SLOAD PUSH1 0x0 SWAP2 DUP3 PUSH2 0xCCD DUP4 PUSH2 0x21F7 JUMP JUMPDEST SWAP1 SWAP2 SSTORE POP PUSH1 0x0 DUP2 DUP2 MSTORE PUSH1 0x10 PUSH1 0x20 MSTORE PUSH1 0x40 SWAP1 KECCAK256 SWAP1 SWAP2 POP PUSH2 0xCED DUP8 DUP10 DUP4 PUSH2 0x209F JUMP JUMPDEST POP PUSH2 0xCF8 CALLER DUP3 PUSH2 0x1484 JUMP JUMPDEST DUP1 CALLER PUSH1 0x1 PUSH1 0x1 PUSH1 0xA0 SHL SUB AND PUSH32 0x419030E125668803DC21EE11DB79C28BA1B83CC44B89DE30FA72C6C7268A02C7 DUP10 DUP10 DUP10 PUSH1 0x40 MLOAD PUSH2 0xD36 SWAP4 SWAP3 SWAP2 SWAP1 PUSH2 0x2210 JUMP JUMPDEST PUSH1 0x40 MLOAD DUP1 SWAP2 SUB SWAP1 LOG3 POP POP POP POP POP PUSH2 0x4EE PUSH1 0x1 PUSH1 0xB SSTORE JUMP JUMPDEST PUSH1 0x0 PUSH1 0x1 PUSH1 0x1 PUSH1 0xA0 SHL SUB DUP3 AND PUSH2 0xD79 JUMPI PUSH1 0x40 MLOAD PUSH4 0x22718AD9 PUSH1 0xE2 SHL DUP2 MSTORE PUSH1 0x0 PUSH1 0x4 DUP3 ADD MSTORE PUSH1 0x24 ADD PUSH2 0x548 JUMP JUMPDEST POP PUSH1 0x1 PUSH1 0x1 PUSH1 0xA0 SHL SUB AND PUSH1 0x0 SWAP1 DUP2 MSTORE PUSH1 0x3 PUSH1 0x20 MSTORE PUSH1 0x40 SWAP1 KECCAK256 SLOAD SWAP1 JUMP JUMPDEST PUSH2 0xD9D PUSH2 0x1418 JUMP JUMPDEST PUSH2 0xDA7 PUSH1 0x0 PUSH2 0x149E JUMP JUMPDEST JUMP JUMPDEST PUSH1 0x60 PUSH1 0x1 DUP1 SLOAD PUSH2 0x437 SWAP1 PUSH2 0x2008 JUMP JUMPDEST PUSH2 0x4EE CALLER DUP4 DUP4 PUSH2 0x14F0 JUMP JUMPDEST PUSH2 0xDCE DUP5 DUP5 DUP5 PUSH2 0x5A6 JUMP JUMPDEST PUSH2 0x62B CALLER DUP6 DUP6 DUP6 DUP6 PUSH2 0x158F JUMP JUMPDEST PUSH1 0x60 PUSH1 0x0 PUSH2 0xDE8 DUP4 PUSH2 0x724 JUMP JUMPDEST PUSH1 0x1 PUSH1 0x1 PUSH1 0xA0 SHL SUB AND SUB PUSH2 0xE4E JUMPI PUSH1 0x40 MLOAD PUSH3 0x461BCD PUSH1 0xE5 SHL DUP2 MSTORE PUSH1 0x20 PUSH1 0x4 DUP3 ADD MSTORE PUSH1 0x27 PUSH1 0x24 DUP3 ADD MSTORE PUSH32 0x4552433732313A2055524920717565727920666F72206E6F6E6578697374656E PUSH1 0x44 DUP3 ADD MSTORE PUSH7 0x3A103A37B5B2B7 PUSH1 0xC9 SHL PUSH1 0x64 DUP3 ADD MSTORE PUSH1 0x84 ADD PUSH2 0x548 JUMP JUMPDEST PUSH1 0x0 PUSH2 0xE58 PUSH2 0x16BA JUMP JUMPDEST PUSH1 0x0 DUP5 DUP2 MSTORE PUSH1 0x10 PUSH1 0x20 MSTORE PUSH1 0x40 DUP2 KECCAK256 DUP1 SLOAD SWAP3 SWAP4 POP SWAP1 SWAP2 PUSH2 0xE76 SWAP1 PUSH2 0x2008 JUMP JUMPDEST DUP1 PUSH1 0x1F ADD PUSH1 0x20 DUP1 SWAP2 DIV MUL PUSH1 0x20 ADD PUSH1 0x40 MLOAD SWAP1 DUP2 ADD PUSH1 0x40 MSTORE DUP1 SWAP3 SWAP2 SWAP1 DUP2 DUP2 MSTORE PUSH1 0x20 ADD DUP3 DUP1 SLOAD PUSH2 0xEA2 SWAP1 PUSH2 0x2008 JUMP JUMPDEST DUP1 ISZERO PUSH2 0xEEF JUMPI DUP1 PUSH1 0x1F LT PUSH2 0xEC4 JUMPI PUSH2 0x100 DUP1 DUP4 SLOAD DIV MUL DUP4 MSTORE SWAP2 PUSH1 0x20 ADD SWAP2 PUSH2 0xEEF JUMP JUMPDEST DUP3 ADD SWAP2 SWAP1 PUSH1 0x0 MSTORE PUSH1 0x20 PUSH1 0x0 KECCAK256 SWAP1 JUMPDEST DUP2 SLOAD DUP2 MSTORE SWAP1 PUSH1 0x1 ADD SWAP1 PUSH1 0x20 ADD DUP1 DUP4 GT PUSH2 0xED2 JUMPI DUP3 SWAP1 SUB PUSH1 0x1F AND DUP3 ADD SWAP2 JUMPDEST POP POP POP POP POP SWAP1 POP DUP2 MLOAD PUSH1 0x0 SUB PUSH2 0xF06 JUMPI SWAP4 SWAP3 POP POP POP JUMP JUMPDEST PUSH1 0x7 DUP2 MLOAD GT DUP1 ISZERO PUSH2 0x130B JUMPI POP DUP1 PUSH1 0x0 DUP2 MLOAD DUP2 LT PUSH2 0xF25 JUMPI PUSH2 0xF25 PUSH2 0x2042 JUMP JUMPDEST PUSH1 0x20 SWAP2 ADD ADD MLOAD PUSH1 0x1 PUSH1 0x1 PUSH1 0xF8 SHL SUB NOT AND PUSH1 0x69 PUSH1 0xF8 SHL EQ DUP1 ISZERO PUSH2 0xF6C JUMPI POP DUP1 PUSH1 0x1 DUP2 MLOAD DUP2 LT PUSH2 0xF55 JUMPI PUSH2 0xF55 PUSH2 0x2042 JUMP JUMPDEST PUSH1 0x20 SWAP2 ADD ADD MLOAD PUSH1 0x1 PUSH1 0x1 PUSH1 0xF8 SHL SUB NOT AND PUSH1 0x7 PUSH1 0xFC SHL EQ JUMPDEST DUP1 ISZERO PUSH2 0xF9D JUMPI POP DUP1 PUSH1 0x2 DUP2 MLOAD DUP2 LT PUSH2 0xF86 JUMPI PUSH2 0xF86 PUSH2 0x2042 JUMP JUMPDEST PUSH1 0x20 SWAP2 ADD ADD MLOAD PUSH1 0x1 PUSH1 0x1 PUSH1 0xF8 SHL SUB NOT AND PUSH1 0x33 PUSH1 0xF9 SHL EQ JUMPDEST DUP1 ISZERO PUSH2 0xFCE JUMPI POP DUP1 PUSH1 0x3 DUP2 MLOAD DUP2 LT PUSH2 0xFB7 JUMPI PUSH2 0xFB7 PUSH2 0x2042 JUMP JUMPDEST PUSH1 0x20 SWAP2 ADD ADD MLOAD PUSH1 0x1 PUSH1 0x1 PUSH1 0xF8 SHL SUB NOT AND PUSH1 0x73 PUSH1 0xF8 SHL EQ JUMPDEST DUP1 ISZERO PUSH2 0xFFF JUMPI POP DUP1 PUSH1 0x4 DUP2 MLOAD DUP2 LT PUSH2 0xFE8 JUMPI PUSH2 0xFE8 PUSH2 0x2042 JUMP JUMPDEST PUSH1 0x20 SWAP2 ADD ADD MLOAD PUSH1 0x1 PUSH1 0x1 PUSH1 0xF8 SHL SUB NOT AND PUSH1 0x1D PUSH1 0xF9 SHL EQ JUMPDEST DUP1 ISZERO PUSH2 0x1030 JUMPI POP DUP1 PUSH1 0x5 DUP2 MLOAD DUP2 LT PUSH2 0x1019 JUMPI PUSH2 0x1019 PUSH2 0x2042 JUMP JUMPDEST PUSH1 0x20 SWAP2 ADD ADD MLOAD PUSH1 0x1 PUSH1 0x1 PUSH1 0xF8 SHL SUB NOT AND PUSH1 0x2F PUSH1 0xF8 SHL EQ JUMPDEST DUP1 ISZERO PUSH2 0x1061 JUMPI POP DUP1 PUSH1 0x6 DUP2 MLOAD DUP2 LT PUSH2 0x104A JUMPI PUSH2 0x104A PUSH2 0x2042 JUMP JUMPDEST PUSH1 0x20 SWAP2 ADD ADD MLOAD PUSH1 0x1 PUSH1 0x1 PUSH1 0xF8 SHL SUB NOT AND PUSH1 0x2F PUSH1 0xF8 SHL EQ JUMPDEST DUP1 PUSH2 0x11B6 JUMPI POP DUP1 PUSH1 0x0 DUP2 MLOAD DUP2 LT PUSH2 0x107A JUMPI PUSH2 0x107A PUSH2 0x2042 JUMP JUMPDEST PUSH1 0x20 SWAP2 ADD ADD MLOAD PUSH1 0x1 PUSH1 0x1 PUSH1 0xF8 SHL SUB NOT AND PUSH1 0xD PUSH1 0xFB SHL EQ DUP1 ISZERO PUSH2 0x10C1 JUMPI POP DUP1 PUSH1 0x1 DUP2 MLOAD DUP2 LT PUSH2 0x10AA JUMPI PUSH2 0x10AA PUSH2 0x2042 JUMP JUMPDEST PUSH1 0x20 SWAP2 ADD ADD MLOAD PUSH1 0x1 PUSH1 0x1 PUSH1 0xF8 SHL SUB NOT AND PUSH1 0x1D PUSH1 0xFA SHL EQ JUMPDEST DUP1 ISZERO PUSH2 0x10F2 JUMPI POP DUP1 PUSH1 0x2 DUP2 MLOAD DUP2 LT PUSH2 0x10DB JUMPI PUSH2 0x10DB PUSH2 0x2042 JUMP JUMPDEST PUSH1 0x20 SWAP2 ADD ADD MLOAD PUSH1 0x1 PUSH1 0x1 PUSH1 0xF8 SHL SUB NOT AND PUSH1 0x1D PUSH1 0xFA SHL EQ JUMPDEST DUP1 ISZERO PUSH2 0x1123 JUMPI POP DUP1 PUSH1 0x3 DUP2 MLOAD DUP2 LT PUSH2 0x110C JUMPI PUSH2 0x110C PUSH2 0x2042 JUMP JUMPDEST PUSH1 0x20 SWAP2 ADD ADD MLOAD PUSH1 0x1 PUSH1 0x1 PUSH1 0xF8 SHL SUB NOT AND PUSH1 0x7 PUSH1 0xFC SHL EQ JUMPDEST DUP1 ISZERO PUSH2 0x1154 JUMPI POP DUP1 PUSH1 0x4 DUP2 MLOAD DUP2 LT PUSH2 0x113D JUMPI PUSH2 0x113D PUSH2 0x2042 JUMP JUMPDEST PUSH1 0x20 SWAP2 ADD ADD MLOAD PUSH1 0x1 PUSH1 0x1 PUSH1 0xF8 SHL SUB NOT AND PUSH1 0x73 PUSH1 0xF8 SHL EQ JUMPDEST DUP1 ISZERO PUSH2 0x1185 JUMPI POP DUP1 PUSH1 0x5 DUP2 MLOAD DUP2 LT PUSH2 0x116E JUMPI PUSH2 0x116E PUSH2 0x2042 JUMP JUMPDEST PUSH1 0x20 SWAP2 ADD ADD MLOAD PUSH1 0x1 PUSH1 0x1 PUSH1 0xF8 SHL SUB NOT AND PUSH1 0x1D PUSH1 0xF9 SHL EQ JUMPDEST DUP1 ISZERO PUSH2 0x11B6 JUMPI POP DUP1 PUSH1 0x6 DUP2 MLOAD DUP2 LT PUSH2 0x119F JUMPI PUSH2 0x119F PUSH2 0x2042 JUMP JUMPDEST PUSH1 0x20 SWAP2 ADD ADD MLOAD PUSH1 0x1 PUSH1 0x1 PUSH1 0xF8 SHL SUB NOT AND PUSH1 0x2F PUSH1 0xF8 SHL EQ JUMPDEST DUP1 PUSH2 0x130B JUMPI POP DUP1 PUSH1 0x0 DUP2 MLOAD DUP2 LT PUSH2 0x11CF JUMPI PUSH2 0x11CF PUSH2 0x2042 JUMP JUMPDEST PUSH1 0x20 SWAP2 ADD ADD MLOAD PUSH1 0x1 PUSH1 0x1 PUSH1 0xF8 SHL SUB NOT AND PUSH1 0xD PUSH1 0xFB SHL EQ DUP1 ISZERO PUSH2 0x1216 JUMPI POP DUP1 PUSH1 0x1 DUP2 MLOAD DUP2 LT PUSH2 0x11FF JUMPI PUSH2 0x11FF PUSH2 0x2042 JUMP JUMPDEST PUSH1 0x20 SWAP2 ADD ADD MLOAD PUSH1 0x1 PUSH1 0x1 PUSH1 0xF8 SHL SUB NOT AND PUSH1 0x1D PUSH1 0xFA SHL EQ JUMPDEST DUP1 ISZERO PUSH2 0x1247 JUMPI POP DUP1 PUSH1 0x2 DUP2 MLOAD DUP2 LT PUSH2 0x1230 JUMPI PUSH2 0x1230 PUSH2 0x2042 JUMP JUMPDEST PUSH1 0x20 SWAP2 ADD ADD MLOAD PUSH1 0x1 PUSH1 0x1 PUSH1 0xF8 SHL SUB NOT AND PUSH1 0x1D PUSH1 0xFA SHL EQ JUMPDEST DUP1 ISZERO PUSH2 0x1278 JUMPI POP DUP1 PUSH1 0x3 DUP2 MLOAD DUP2 LT PUSH2 0x1261 JUMPI PUSH2 0x1261 PUSH2 0x2042 JUMP JUMPDEST PUSH1 0x20 SWAP2 ADD ADD MLOAD PUSH1 0x1 PUSH1 0x1 PUSH1 0xF8 SHL SUB NOT AND PUSH1 0x7 PUSH1 0xFC SHL EQ JUMPDEST DUP1 ISZERO PUSH2 0x12A9 JUMPI POP DUP1 PUSH1 0x4 DUP2 MLOAD DUP2 LT PUSH2 0x1292 JUMPI PUSH2 0x1292 PUSH2 0x2042 JUMP JUMPDEST PUSH1 0x20 SWAP2 ADD ADD MLOAD PUSH1 0x1 PUSH1 0x1 PUSH1 0xF8 SHL SUB NOT AND PUSH1 0x1D PUSH1 0xF9 SHL EQ JUMPDEST DUP1 ISZERO PUSH2 0x12DA JUMPI POP DUP1 PUSH1 0x5 DUP2 MLOAD DUP2 LT PUSH2 0x12C3 JUMPI PUSH2 0x12C3 PUSH2 0x2042 JUMP JUMPDEST PUSH1 0x20 SWAP2 ADD ADD MLOAD PUSH1 0x1 PUSH1 0x1 PUSH1 0xF8 SHL SUB NOT AND PUSH1 0x2F PUSH1 0xF8 SHL EQ JUMPDEST DUP1 ISZERO PUSH2 0x130B JUMPI POP DUP1 PUSH1 0x6 DUP2 MLOAD DUP2 LT PUSH2 0x12F4 JUMPI PUSH2 0x12F4 PUSH2 0x2042 JUMP JUMPDEST PUSH1 0x20 SWAP2 ADD ADD MLOAD PUSH1 0x1 PUSH1 0x1 PUSH1 0xF8 SHL SUB NOT AND PUSH1 0x2F PUSH1 0xF8 SHL EQ JUMPDEST PUSH2 0x133A JUMPI DUP2 DUP2 PUSH1 0x40 MLOAD PUSH1 0x20 ADD PUSH2 0x1322 SWAP3 SWAP2 SWAP1 PUSH2 0x2249 JUMP JUMPDEST PUSH1 0x40 MLOAD PUSH1 0x20 DUP2 DUP4 SUB SUB DUP2 MSTORE SWAP1 PUSH1 0x40 MSTORE SWAP3 POP POP POP SWAP2 SWAP1 POP JUMP JUMPDEST SWAP4 SWAP3 POP POP POP JUMP JUMPDEST PUSH1 0x1 PUSH1 0x1 PUSH1 0xA0 SHL SUB SWAP2 DUP3 AND PUSH1 0x0 SWAP1 DUP2 MSTORE PUSH1 0x5 PUSH1 0x20 SWAP1 DUP2 MSTORE PUSH1 0x40 DUP1 DUP4 KECCAK256 SWAP4 SWAP1 SWAP5 AND DUP3 MSTORE SWAP2 SWAP1 SWAP2 MSTORE KECCAK256 SLOAD PUSH1 0xFF AND SWAP1 JUMP JUMPDEST PUSH2 0x1377 PUSH2 0x1418 JUMP JUMPDEST PUSH1 0x1 PUSH1 0x1 PUSH1 0xA0 SHL SUB DUP2 AND PUSH2 0x13A1 JUMPI PUSH1 0x40 MLOAD PUSH4 0x1E4FBDF7 PUSH1 0xE0 SHL DUP2 MSTORE PUSH1 0x0 PUSH1 0x4 DUP3 ADD MSTORE PUSH1 0x24 ADD PUSH2 0x548 JUMP JUMPDEST PUSH2 0x13AA DUP2 PUSH2 0x149E JUMP JUMPDEST POP JUMP JUMPDEST PUSH1 0x0 PUSH1 0x1 PUSH1 0x1 PUSH1 0xE0 SHL SUB NOT DUP3 AND PUSH4 0x780E9D63 PUSH1 0xE0 SHL EQ DUP1 PUSH2 0x422 JUMPI POP PUSH2 0x422 DUP3 PUSH2 0x16C9 JUMP JUMPDEST PUSH1 0x0 DUP2 DUP2 MSTORE PUSH1 0x2 PUSH1 0x20 MSTORE PUSH1 0x40 DUP2 KECCAK256 SLOAD PUSH1 0x1 PUSH1 0x1 PUSH1 0xA0 SHL SUB AND DUP1 PUSH2 0x422 JUMPI PUSH1 0x40 MLOAD PUSH4 0x7E273289 PUSH1 0xE0 SHL DUP2 MSTORE PUSH1 0x4 DUP2 ADD DUP5 SWAP1 MSTORE PUSH1 0x24 ADD PUSH2 0x548 JUMP JUMPDEST PUSH2 0x6B1 DUP4 DUP4 DUP4 PUSH1 0x1 PUSH2 0x1719 JUMP JUMPDEST PUSH1 0xA SLOAD PUSH1 0x1 PUSH1 0x1 PUSH1 0xA0 SHL SUB AND CALLER EQ PUSH2 0xDA7 JUMPI PUSH1 0x40 MLOAD PUSH4 0x118CDAA7 PUSH1 0xE0 SHL DUP2 MSTORE CALLER PUSH1 0x4 DUP3 ADD MSTORE PUSH1 0x24 ADD PUSH2 0x548 JUMP JUMPDEST PUSH1 0x0 PUSH2 0x1452 DUP5 DUP5 DUP5 PUSH2 0x181F JUMP JUMPDEST SWAP5 SWAP4 POP POP POP POP JUMP JUMPDEST PUSH1 0x2 PUSH1 0xB SLOAD SUB PUSH2 0x147D JUMPI PUSH1 0x40 MLOAD PUSH4 0x3EE5AEB5 PUSH1 0xE0 SHL DUP2 MSTORE PUSH1 0x4 ADD PUSH1 0x40 MLOAD DUP1 SWAP2 SUB SWAP1 REVERT JUMPDEST PUSH1 0x2 PUSH1 0xB SSTORE JUMP JUMPDEST PUSH2 0x4EE DUP3 DUP3 PUSH1 0x40 MLOAD DUP1 PUSH1 0x20 ADD PUSH1 0x40 MSTORE DUP1 PUSH1 0x0 DUP2 MSTORE POP PUSH2 0x18EC JUMP JUMPDEST PUSH1 0xA DUP1 SLOAD PUSH1 0x1 PUSH1 0x1 PUSH1 0xA0 SHL SUB DUP4 DUP2 AND PUSH1 0x1 PUSH1 0x1 PUSH1 0xA0 SHL SUB NOT DUP4 AND DUP2 OR SWAP1 SWAP4 SSTORE PUSH1 0x40 MLOAD SWAP2 AND SWAP2 SWAP1 DUP3 SWAP1 PUSH32 0x8BE0079C531659141344CD1FD0A4F28419497F9722A3DAAFE3B4186F6B6457E0 SWAP1 PUSH1 0x0 SWAP1 LOG3 POP POP JUMP JUMPDEST PUSH1 0x1 PUSH1 0x1 PUSH1 0xA0 SHL SUB DUP3 AND PUSH2 0x1522 JUMPI PUSH1 0x40 MLOAD PUSH4 0xB611743 PUSH1 0xE3 SHL DUP2 MSTORE PUSH1 0x1 PUSH1 0x1 PUSH1 0xA0 SHL SUB DUP4 AND PUSH1 0x4 DUP3 ADD MSTORE PUSH1 0x24 ADD PUSH2 0x548 JUMP JUMPDEST PUSH1 0x1 PUSH1 0x1 PUSH1 0xA0 SHL SUB DUP4 DUP2 AND PUSH1 0x0 DUP2 DUP2 MSTORE PUSH1 0x5 PUSH1 0x20 SWAP1 DUP2 MSTORE PUSH1 0x40 DUP1 DUP4 KECCAK256 SWAP5 DUP8 AND DUP1 DUP5 MSTORE SWAP5 DUP3 MSTORE SWAP2 DUP3 SWAP1 KECCAK256 DUP1 SLOAD PUSH1 0xFF NOT AND DUP7 ISZERO ISZERO SWAP1 DUP2 OR SWAP1 SWAP2 SSTORE SWAP2 MLOAD SWAP2 DUP3 MSTORE PUSH32 0x17307EAB39AB6107E8899845AD3D59BD9653F200F220920489CA2B5937696C31 SWAP2 ADD PUSH1 0x40 MLOAD DUP1 SWAP2 SUB SWAP1 LOG3 POP POP POP JUMP JUMPDEST PUSH1 0x1 PUSH1 0x1 PUSH1 0xA0 SHL SUB DUP4 AND EXTCODESIZE ISZERO PUSH2 0x16B3 JUMPI PUSH1 0x40 MLOAD PUSH4 0xA85BD01 PUSH1 0xE1 SHL DUP2 MSTORE PUSH1 0x1 PUSH1 0x1 PUSH1 0xA0 SHL SUB DUP5 AND SWAP1 PUSH4 0x150B7A02 SWAP1 PUSH2 0x15D1 SWAP1 DUP9 SWAP1 DUP9 SWAP1 DUP8 SWAP1 DUP8 SWAP1 PUSH1 0x4 ADD PUSH2 0x2278 JUMP JUMPDEST PUSH1 0x20 PUSH1 0x40 MLOAD DUP1 DUP4 SUB DUP2 PUSH1 0x0 DUP8 GAS CALL SWAP3 POP POP POP DUP1 ISZERO PUSH2 0x160C JUMPI POP PUSH1 0x40 DUP1 MLOAD PUSH1 0x1F RETURNDATASIZE SWAP1 DUP2 ADD PUSH1 0x1F NOT AND DUP3 ADD SWAP1 SWAP3 MSTORE PUSH2 0x1609 SWAP2 DUP2 ADD SWAP1 PUSH2 0x22B5 JUMP JUMPDEST PUSH1 0x1 JUMPDEST PUSH2 0x1675 JUMPI RETURNDATASIZE DUP1 DUP1 ISZERO PUSH2 0x163A JUMPI PUSH1 0x40 MLOAD SWAP2 POP PUSH1 0x1F NOT PUSH1 0x3F RETURNDATASIZE ADD AND DUP3 ADD PUSH1 0x40 MSTORE RETURNDATASIZE DUP3 MSTORE RETURNDATASIZE PUSH1 0x0 PUSH1 0x20 DUP5 ADD RETURNDATACOPY PUSH2 0x163F JUMP JUMPDEST PUSH1 0x60 SWAP2 POP JUMPDEST POP DUP1 MLOAD PUSH1 0x0 SUB PUSH2 0x166D JUMPI PUSH1 0x40 MLOAD PUSH4 0x32505749 PUSH1 0xE1 SHL DUP2 MSTORE PUSH1 0x1 PUSH1 0x1 PUSH1 0xA0 SHL SUB DUP6 AND PUSH1 0x4 DUP3 ADD MSTORE PUSH1 0x24 ADD PUSH2 0x548 JUMP JUMPDEST DUP1 MLOAD PUSH1 0x20 DUP3 ADD REVERT JUMPDEST PUSH1 0x1 PUSH1 0x1 PUSH1 0xE0 SHL SUB NOT DUP2 AND PUSH4 0xA85BD01 PUSH1 0xE1 SHL EQ PUSH2 0x16B1 JUMPI PUSH1 0x40 MLOAD PUSH4 0x32505749 PUSH1 0xE1 SHL DUP2 MSTORE PUSH1 0x1 PUSH1 0x1 PUSH1 0xA0 SHL SUB DUP6 AND PUSH1 0x4 DUP3 ADD MSTORE PUSH1 0x24 ADD PUSH2 0x548 JUMP JUMPDEST POP JUMPDEST POP POP POP POP POP JUMP JUMPDEST PUSH1 0x60 PUSH1 0x11 DUP1 SLOAD PUSH2 0x437 SWAP1 PUSH2 0x2008 JUMP JUMPDEST PUSH1 0x0 PUSH1 0x1 PUSH1 0x1 PUSH1 0xE0 SHL SUB NOT DUP3 AND PUSH4 0x80AC58CD PUSH1 0xE0 SHL EQ DUP1 PUSH2 0x16FA JUMPI POP PUSH1 0x1 PUSH1 0x1 PUSH1 0xE0 SHL SUB NOT DUP3 AND PUSH4 0x5B5E139F PUSH1 0xE0 SHL EQ JUMPDEST DUP1 PUSH2 0x422 JUMPI POP PUSH4 0x1FFC9A7 PUSH1 0xE0 SHL PUSH1 0x1 PUSH1 0x1 PUSH1 0xE0 SHL SUB NOT DUP4 AND EQ PUSH2 0x422 JUMP JUMPDEST DUP1 DUP1 PUSH2 0x172D JUMPI POP PUSH1 0x1 PUSH1 0x1 PUSH1 0xA0 SHL SUB DUP3 AND ISZERO ISZERO JUMPDEST ISZERO PUSH2 0x17EF JUMPI PUSH1 0x0 PUSH2 0x173D DUP5 PUSH2 0x13D2 JUMP JUMPDEST SWAP1 POP PUSH1 0x1 PUSH1 0x1 PUSH1 0xA0 SHL SUB DUP4 AND ISZERO DUP1 ISZERO SWAP1 PUSH2 0x1769 JUMPI POP DUP3 PUSH1 0x1 PUSH1 0x1 PUSH1 0xA0 SHL SUB AND DUP2 PUSH1 0x1 PUSH1 0x1 PUSH1 0xA0 SHL SUB AND EQ ISZERO JUMPDEST DUP1 ISZERO PUSH2 0x177C JUMPI POP PUSH2 0x177A DUP2 DUP5 PUSH2 0x1341 JUMP JUMPDEST ISZERO JUMPDEST ISZERO PUSH2 0x17A5 JUMPI PUSH1 0x40 MLOAD PUSH4 0xA9FBF51F PUSH1 0xE0 SHL DUP2 MSTORE PUSH1 0x1 PUSH1 0x1 PUSH1 0xA0 SHL SUB DUP5 AND PUSH1 0x4 DUP3 ADD MSTORE PUSH1 0x24 ADD PUSH2 0x548 JUMP JUMPDEST DUP2 ISZERO PUSH2 0x17ED JUMPI DUP4 DUP6 PUSH1 0x1 PUSH1 0x1 PUSH1 0xA0 SHL SUB AND DUP3 PUSH1 0x1 PUSH1 0x1 PUSH1 0xA0 SHL SUB AND PUSH32 0x8C5BE1E5EBEC7D5BD14F71427D1E84F3DD0314C0F7B2291E5B200AC8C7C3B925 PUSH1 0x40 MLOAD PUSH1 0x40 MLOAD DUP1 SWAP2 SUB SWAP1 LOG4 JUMPDEST POP JUMPDEST POP POP PUSH1 0x0 SWAP1 DUP2 MSTORE PUSH1 0x4 PUSH1 0x20 MSTORE PUSH1 0x40 SWAP1 KECCAK256 DUP1 SLOAD PUSH1 0x1 PUSH1 0x1 PUSH1 0xA0 SHL SUB NOT AND PUSH1 0x1 PUSH1 0x1 PUSH1 0xA0 SHL SUB SWAP3 SWAP1 SWAP3 AND SWAP2 SWAP1 SWAP2 OR SWAP1 SSTORE JUMP JUMPDEST PUSH1 0x0 DUP1 PUSH2 0x182D DUP6 DUP6 DUP6 PUSH2 0x1904 JUMP JUMPDEST SWAP1 POP PUSH1 0x1 PUSH1 0x1 PUSH1 0xA0 SHL SUB DUP2 AND PUSH2 0x188A JUMPI PUSH2 0x1885 DUP5 PUSH1 0x8 DUP1 SLOAD PUSH1 0x0 DUP4 DUP2 MSTORE PUSH1 0x9 PUSH1 0x20 MSTORE PUSH1 0x40 DUP2 KECCAK256 DUP3 SWAP1 SSTORE PUSH1 0x1 DUP3 ADD DUP4 SSTORE SWAP2 SWAP1 SWAP2 MSTORE PUSH32 0xF3F7A9FE364FAAB93B216DA50A3214154F22A0A2B415B23A84C8169E8B636EE3 ADD SSTORE JUMP JUMPDEST PUSH2 0x18AD JUMP JUMPDEST DUP5 PUSH1 0x1 PUSH1 0x1 PUSH1 0xA0 SHL SUB AND DUP2 PUSH1 0x1 PUSH1 0x1 PUSH1 0xA0 SHL SUB AND EQ PUSH2 0x18AD JUMPI PUSH2 0x18AD DUP2 DUP6 PUSH2 0x19FD JUMP JUMPDEST PUSH1 0x1 PUSH1 0x1 PUSH1 0xA0 SHL SUB DUP6 AND PUSH2 0x18C9 JUMPI PUSH2 0x18C4 DUP5 PUSH2 0x1A7E JUMP JUMPDEST PUSH2 0x1452 JUMP JUMPDEST DUP5 PUSH1 0x1 PUSH1 0x1 PUSH1 0xA0 SHL SUB AND DUP2 PUSH1 0x1 PUSH1 0x1 PUSH1 0xA0 SHL SUB AND EQ PUSH2 0x1452 JUMPI PUSH2 0x1452 DUP6 DUP6 PUSH2 0x1B2D JUMP JUMPDEST PUSH2 0x18F6 DUP4 DUP4 PUSH2 0x1B7D JUMP JUMPDEST PUSH2 0x6B1 CALLER PUSH1 0x0 DUP6 DUP6 DUP6 PUSH2 0x158F JUMP JUMPDEST PUSH1 0x0 DUP3 DUP2 MSTORE PUSH1 0x2 PUSH1 0x20 MSTORE PUSH1 0x40 DUP2 KECCAK256 SLOAD PUSH1 0x1 PUSH1 0x1 PUSH1 0xA0 SHL SUB SWAP1 DUP2 AND SWAP1 DUP4 AND ISZERO PUSH2 0x1931 JUMPI PUSH2 0x1931 DUP2 DUP5 DUP7 PUSH2 0x1BE2 JUMP JUMPDEST PUSH1 0x1 PUSH1 0x1 PUSH1 0xA0 SHL SUB DUP2 AND ISZERO PUSH2 0x196F JUMPI PUSH2 0x194E PUSH1 0x0 DUP6 PUSH1 0x0 DUP1 PUSH2 0x1719 JUMP JUMPDEST PUSH1 0x1 PUSH1 0x1 PUSH1 0xA0 SHL SUB DUP2 AND PUSH1 0x0 SWAP1 DUP2 MSTORE PUSH1 0x3 PUSH1 0x20 MSTORE PUSH1 0x40 SWAP1 KECCAK256 DUP1 SLOAD PUSH1 0x0 NOT ADD SWAP1 SSTORE JUMPDEST PUSH1 0x1 PUSH1 0x1 PUSH1 0xA0 SHL SUB DUP6 AND ISZERO PUSH2 0x199E JUMPI PUSH1 0x1 PUSH1 0x1 PUSH1 0xA0 SHL SUB DUP6 AND PUSH1 0x0 SWAP1 DUP2 MSTORE PUSH1 0x3 PUSH1 0x20 MSTORE PUSH1 0x40 SWAP1 KECCAK256 DUP1 SLOAD PUSH1 0x1 ADD SWAP1 SSTORE JUMPDEST PUSH1 0x0 DUP5 DUP2 MSTORE PUSH1 0x2 PUSH1 0x20 MSTORE PUSH1 0x40 DUP1 DUP3 KECCAK256 DUP1 SLOAD PUSH1 0x1 PUSH1 0x1 PUSH1 0xA0 SHL SUB NOT AND PUSH1 0x1 PUSH1 0x1 PUSH1 0xA0 SHL SUB DUP10 DUP2 AND SWAP2 DUP3 OR SWAP1 SWAP3 SSTORE SWAP2 MLOAD DUP8 SWAP4 SWAP2 DUP6 AND SWAP2 PUSH32 0xDDF252AD1BE2C89B69C2B068FC378DAA952BA7F163C4A11628F55A4DF523B3EF SWAP2 LOG4 SWAP5 SWAP4 POP POP POP POP JUMP JUMPDEST PUSH1 0x0 PUSH2 0x1A08 DUP4 PUSH2 0xD4D JUMP JUMPDEST PUSH1 0x0 DUP4 DUP2 MSTORE PUSH1 0x7 PUSH1 0x20 SWAP1 DUP2 MSTORE PUSH1 0x40 DUP1 DUP4 KECCAK256 SLOAD PUSH1 0x1 PUSH1 0x1 PUSH1 0xA0 SHL SUB DUP9 AND DUP5 MSTORE PUSH1 0x6 SWAP1 SWAP3 MSTORE SWAP1 SWAP2 KECCAK256 SWAP2 SWAP3 POP SWAP1 DUP2 DUP4 EQ PUSH2 0x1A5F JUMPI PUSH1 0x0 DUP4 DUP2 MSTORE PUSH1 0x20 DUP3 DUP2 MSTORE PUSH1 0x40 DUP1 DUP4 KECCAK256 SLOAD DUP6 DUP5 MSTORE DUP2 DUP5 KECCAK256 DUP2 SWAP1 SSTORE DUP4 MSTORE PUSH1 0x7 SWAP1 SWAP2 MSTORE SWAP1 KECCAK256 DUP3 SWAP1 SSTORE JUMPDEST PUSH1 0x0 SWAP4 DUP5 MSTORE PUSH1 0x7 PUSH1 0x20 SWAP1 DUP2 MSTORE PUSH1 0x40 DUP1 DUP7 KECCAK256 DUP7 SWAP1 SSTORE SWAP4 DUP6 MSTORE MSTORE POP DUP2 KECCAK256 SSTORE POP JUMP JUMPDEST PUSH1 0x8 SLOAD PUSH1 0x0 SWAP1 PUSH2 0x1A90 SWAP1 PUSH1 0x1 SWAP1 PUSH2 0x21C7 JUMP JUMPDEST PUSH1 0x0 DUP4 DUP2 MSTORE PUSH1 0x9 PUSH1 0x20 MSTORE PUSH1 0x40 DUP2 KECCAK256 SLOAD PUSH1 0x8 DUP1 SLOAD SWAP4 SWAP5 POP SWAP1 SWAP3 DUP5 SWAP1 DUP2 LT PUSH2 0x1AB8 JUMPI PUSH2 0x1AB8 PUSH2 0x2042 JUMP JUMPDEST SWAP1 PUSH1 0x0 MSTORE PUSH1 0x20 PUSH1 0x0 KECCAK256 ADD SLOAD SWAP1 POP DUP1 PUSH1 0x8 DUP4 DUP2 SLOAD DUP2 LT PUSH2 0x1AD9 JUMPI PUSH2 0x1AD9 PUSH2 0x2042 JUMP JUMPDEST PUSH1 0x0 SWAP2 DUP3 MSTORE PUSH1 0x20 DUP1 DUP4 KECCAK256 SWAP1 SWAP2 ADD SWAP3 SWAP1 SWAP3 SSTORE DUP3 DUP2 MSTORE PUSH1 0x9 SWAP1 SWAP2 MSTORE PUSH1 0x40 DUP1 DUP3 KECCAK256 DUP5 SWAP1 SSTORE DUP6 DUP3 MSTORE DUP2 KECCAK256 SSTORE PUSH1 0x8 DUP1 SLOAD DUP1 PUSH2 0x1B11 JUMPI PUSH2 0x1B11 PUSH2 0x22D2 JUMP JUMPDEST PUSH1 0x1 SWAP1 SUB DUP2 DUP2 SWAP1 PUSH1 0x0 MSTORE PUSH1 0x20 PUSH1 0x0 KECCAK256 ADD PUSH1 0x0 SWAP1 SSTORE SWAP1 SSTORE POP POP POP POP JUMP JUMPDEST PUSH1 0x0 PUSH1 0x1 PUSH2 0x1B3A DUP5 PUSH2 0xD4D JUMP JUMPDEST PUSH2 0x1B44 SWAP2 SWAP1 PUSH2 0x21C7 JUMP JUMPDEST PUSH1 0x1 PUSH1 0x1 PUSH1 0xA0 SHL SUB SWAP1 SWAP4 AND PUSH1 0x0 SWAP1 DUP2 MSTORE PUSH1 0x6 PUSH1 0x20 SWAP1 DUP2 MSTORE PUSH1 0x40 DUP1 DUP4 KECCAK256 DUP7 DUP5 MSTORE DUP3 MSTORE DUP1 DUP4 KECCAK256 DUP6 SWAP1 SSTORE SWAP4 DUP3 MSTORE PUSH1 0x7 SWAP1 MSTORE SWAP2 SWAP1 SWAP2 KECCAK256 SWAP2 SWAP1 SWAP2 SSTORE POP JUMP JUMPDEST PUSH1 0x1 PUSH1 0x1 PUSH1 0xA0 SHL SUB DUP3 AND PUSH2 0x1BA7 JUMPI PUSH1 0x40 MLOAD PUSH4 0x32505749 PUSH1 0xE1 SHL DUP2 MSTORE PUSH1 0x0 PUSH1 0x4 DUP3 ADD MSTORE PUSH1 0x24 ADD PUSH2 0x548 JUMP JUMPDEST PUSH1 0x0 PUSH2 0x1BB5 DUP4 DUP4 PUSH1 0x0 PUSH2 0x1445 JUMP JUMPDEST SWAP1 POP PUSH1 0x1 PUSH1 0x1 PUSH1 0xA0 SHL SUB DUP2 AND ISZERO PUSH2 0x6B1 JUMPI PUSH1 0x40 MLOAD PUSH4 0x39E35637 PUSH1 0xE1 SHL DUP2 MSTORE PUSH1 0x0 PUSH1 0x4 DUP3 ADD MSTORE PUSH1 0x24 ADD PUSH2 0x548 JUMP JUMPDEST PUSH2 0x1BED DUP4 DUP4 DUP4 PUSH2 0x1C46 JUMP JUMPDEST PUSH2 0x6B1 JUMPI PUSH1 0x1 PUSH1 0x1 PUSH1 0xA0 SHL SUB DUP4 AND PUSH2 0x1C1B JUMPI PUSH1 0x40 MLOAD PUSH4 0x7E273289 PUSH1 0xE0 SHL DUP2 MSTORE PUSH1 0x4 DUP2 ADD DUP3 SWAP1 MSTORE PUSH1 0x24 ADD PUSH2 0x548 JUMP JUMPDEST PUSH1 0x40 MLOAD PUSH4 0x177E802F PUSH1 0xE0 SHL DUP2 MSTORE PUSH1 0x1 PUSH1 0x1 PUSH1 0xA0 SHL SUB DUP4 AND PUSH1 0x4 DUP3 ADD MSTORE PUSH1 0x24 DUP2 ADD DUP3 SWAP1 MSTORE PUSH1 0x44 ADD PUSH2 0x548 JUMP JUMPDEST PUSH1 0x0 PUSH1 0x1 PUSH1 0x1 PUSH1 0xA0 SHL SUB DUP4 AND ISZERO DUP1 ISZERO SWAP1 PUSH2 0x1452 JUMPI POP DUP3 PUSH1 0x1 PUSH1 0x1 PUSH1 0xA0 SHL SUB AND DUP5 PUSH1 0x1 PUSH1 0x1 PUSH1 0xA0 SHL SUB AND EQ DUP1 PUSH2 0x1C80 JUMPI POP PUSH2 0x1C80 DUP5 DUP5 PUSH2 0x1341 JUMP JUMPDEST DUP1 PUSH2 0x1452 JUMPI POP POP PUSH1 0x0 SWAP1 DUP2 MSTORE PUSH1 0x4 PUSH1 0x20 MSTORE PUSH1 0x40 SWAP1 KECCAK256 SLOAD PUSH1 0x1 PUSH1 0x1 PUSH1 0xA0 SHL SUB SWAP1 DUP2 AND SWAP2 AND EQ SWAP2 SWAP1 POP JUMP JUMPDEST PUSH1 0x1 PUSH1 0x1 PUSH1 0xE0 SHL SUB NOT DUP2 AND DUP2 EQ PUSH2 0x13AA JUMPI PUSH1 0x0 DUP1 REVERT JUMPDEST PUSH1 0x0 PUSH1 0x20 DUP3 DUP5 SUB SLT ISZERO PUSH2 0x1CD1 JUMPI PUSH1 0x0 DUP1 REVERT JUMPDEST DUP2 CALLDATALOAD PUSH2 0x133A DUP2 PUSH2 0x1CA9 JUMP JUMPDEST PUSH1 0x0 JUMPDEST DUP4 DUP2 LT ISZERO PUSH2 0x1CF7 JUMPI DUP2 DUP2 ADD MLOAD DUP4 DUP3 ADD MSTORE PUSH1 0x20 ADD PUSH2 0x1CDF JUMP JUMPDEST POP POP PUSH1 0x0 SWAP2 ADD MSTORE JUMP JUMPDEST PUSH1 0x0 DUP2 MLOAD DUP1 DUP5 MSTORE PUSH2 0x1D18 DUP2 PUSH1 0x20 DUP7 ADD PUSH1 0x20 DUP7 ADD PUSH2 0x1CDC JUMP JUMPDEST PUSH1 0x1F ADD PUSH1 0x1F NOT AND SWAP3 SWAP1 SWAP3 ADD PUSH1 0x20 ADD SWAP3 SWAP2 POP POP JUMP JUMPDEST PUSH1 0x20 DUP2 MSTORE PUSH1 0x0 PUSH2 0x133A PUSH1 0x20 DUP4 ADD DUP5 PUSH2 0x1D00 JUMP JUMPDEST PUSH1 0x0 PUSH1 0x20 DUP3 DUP5 SUB SLT ISZERO PUSH2 0x1D51 JUMPI PUSH1 0x0 DUP1 REVERT JUMPDEST POP CALLDATALOAD SWAP2 SWAP1 POP JUMP JUMPDEST DUP1 CALLDATALOAD PUSH1 0x1 PUSH1 0x1 PUSH1 0xA0 SHL SUB DUP2 AND DUP2 EQ PUSH2 0x1D6F JUMPI PUSH1 0x0 DUP1 REVERT JUMPDEST SWAP2 SWAP1 POP JUMP JUMPDEST PUSH1 0x0 DUP1 PUSH1 0x40 DUP4 DUP6 SUB SLT ISZERO PUSH2 0x1D87 JUMPI PUSH1 0x0 DUP1 REVERT JUMPDEST PUSH2 0x1D90 DUP4 PUSH2 0x1D58 JUMP JUMPDEST SWAP5 PUSH1 0x20 SWAP4 SWAP1 SWAP4 ADD CALLDATALOAD SWAP4 POP POP POP JUMP JUMPDEST PUSH1 0x0 DUP1 PUSH1 0x0 PUSH1 0x60 DUP5 DUP7 SUB SLT ISZERO PUSH2 0x1DB3 JUMPI PUSH1 0x0 DUP1 REVERT JUMPDEST POP POP DUP2 CALLDATALOAD SWAP4 PUSH1 0x20 DUP4 ADD CALLDATALOAD SWAP4 POP PUSH1 0x40 SWAP1 SWAP3 ADD CALLDATALOAD SWAP2 SWAP1 POP JUMP JUMPDEST PUSH1 0x0 DUP1 PUSH1 0x0 PUSH1 0x60 DUP5 DUP7 SUB SLT ISZERO PUSH2 0x1DDF JUMPI PUSH1 0x0 DUP1 REVERT JUMPDEST PUSH2 0x1DE8 DUP5 PUSH2 0x1D58 JUMP JUMPDEST SWAP3 POP PUSH2 0x1DF6 PUSH1 0x20 DUP6 ADD PUSH2 0x1D58 JUMP JUMPDEST SWAP3 SWAP6 SWAP3 SWAP5 POP POP POP PUSH1 0x40 SWAP2 SWAP1 SWAP2 ADD CALLDATALOAD SWAP1 JUMP JUMPDEST PUSH1 0x0 DUP1 PUSH1 0x20 DUP4 DUP6 SUB SLT ISZERO PUSH2 0x1E1A JUMPI PUSH1 0x0 DUP1 REVERT JUMPDEST DUP3 CALLDATALOAD PUSH8 0xFFFFFFFFFFFFFFFF DUP2 GT ISZERO PUSH2 0x1E31 JUMPI PUSH1 0x0 DUP1 REVERT JUMPDEST DUP4 ADD PUSH1 0x1F DUP2 ADD DUP6 SGT PUSH2 0x1E42 JUMPI PUSH1 0x0 DUP1 REVERT JUMPDEST DUP1 CALLDATALOAD PUSH8 0xFFFFFFFFFFFFFFFF DUP2 GT ISZERO PUSH2 0x1E59 JUMPI PUSH1 0x0 DUP1 REVERT JUMPDEST DUP6 PUSH1 0x20 DUP3 DUP5 ADD ADD GT ISZERO PUSH2 0x1E6B JUMPI PUSH1 0x0 DUP1 REVERT JUMPDEST PUSH1 0x20 SWAP2 SWAP1 SWAP2 ADD SWAP6 SWAP1 SWAP5 POP SWAP3 POP POP POP JUMP JUMPDEST PUSH1 0x0 PUSH1 0x20 DUP3 DUP5 SUB SLT ISZERO PUSH2 0x1E8D JUMPI PUSH1 0x0 DUP1 REVERT JUMPDEST PUSH2 0x133A DUP3 PUSH2 0x1D58 JUMP JUMPDEST DUP1 ISZERO ISZERO DUP2 EQ PUSH2 0x13AA JUMPI PUSH1 0x0 DUP1 REVERT JUMPDEST PUSH1 0x0 DUP1 PUSH1 0x40 DUP4 DUP6 SUB SLT ISZERO PUSH2 0x1EB7 JUMPI PUSH1 0x0 DUP1 REVERT JUMPDEST PUSH2 0x1EC0 DUP4 PUSH2 0x1D58 JUMP JUMPDEST SWAP2 POP PUSH1 0x20 DUP4 ADD CALLDATALOAD PUSH2 0x1ED0 DUP2 PUSH2 0x1E96 JUMP JUMPDEST DUP1 SWAP2 POP POP SWAP3 POP SWAP3 SWAP1 POP JUMP JUMPDEST PUSH4 0x4E487B71 PUSH1 0xE0 SHL PUSH1 0x0 MSTORE PUSH1 0x41 PUSH1 0x4 MSTORE PUSH1 0x24 PUSH1 0x0 REVERT JUMPDEST PUSH1 0x0 DUP1 PUSH1 0x0 DUP1 PUSH1 0x80 DUP6 DUP8 SUB SLT ISZERO PUSH2 0x1F07 JUMPI PUSH1 0x0 DUP1 REVERT JUMPDEST PUSH2 0x1F10 DUP6 PUSH2 0x1D58 JUMP JUMPDEST SWAP4 POP PUSH2 0x1F1E PUSH1 0x20 DUP7 ADD PUSH2 0x1D58 JUMP JUMPDEST SWAP3 POP PUSH1 0x40 DUP6 ADD CALLDATALOAD SWAP2 POP PUSH1 0x60 DUP6 ADD CALLDATALOAD PUSH8 0xFFFFFFFFFFFFFFFF DUP2 GT ISZERO PUSH2 0x1F41 JUMPI PUSH1 0x0 DUP1 REVERT JUMPDEST DUP6 ADD PUSH1 0x1F DUP2 ADD DUP8 SGT PUSH2 0x1F52 JUMPI PUSH1 0x0 DUP1 REVERT JUMPDEST DUP1 CALLDATALOAD PUSH8 0xFFFFFFFFFFFFFFFF DUP2 GT ISZERO PUSH2 0x1F6C JUMPI PUSH2 0x1F6C PUSH2 0x1EDB JUMP JUMPDEST PUSH1 0x40 MLOAD PUSH1 0x1F DUP3 ADD PUSH1 0x1F NOT SWAP1 DUP2 AND PUSH1 0x3F ADD AND DUP2 ADD PUSH8 0xFFFFFFFFFFFFFFFF DUP2 GT DUP3 DUP3 LT OR ISZERO PUSH2 0x1F9B JUMPI PUSH2 0x1F9B PUSH2 0x1EDB JUMP JUMPDEST PUSH1 0x40 MSTORE DUP2 DUP2 MSTORE DUP3 DUP3 ADD PUSH1 0x20 ADD DUP10 LT ISZERO PUSH2 0x1FB3 JUMPI PUSH1 0x0 DUP1 REVERT JUMPDEST DUP2 PUSH1 0x20 DUP5 ADD PUSH1 0x20 DUP4 ADD CALLDATACOPY PUSH1 0x0 PUSH1 0x20 DUP4 DUP4 ADD ADD MSTORE DUP1 SWAP4 POP POP POP POP SWAP3 SWAP6 SWAP2 SWAP5 POP SWAP3 POP JUMP JUMPDEST PUSH1 0x0 DUP1 PUSH1 0x40 DUP4 DUP6 SUB SLT ISZERO PUSH2 0x1FE8 JUMPI PUSH1 0x0 DUP1 REVERT JUMPDEST PUSH2 0x1FF1 DUP4 PUSH2 0x1D58 JUMP JUMPDEST SWAP2 POP PUSH2 0x1FFF PUSH1 0x20 DUP5 ADD PUSH2 0x1D58 JUMP JUMPDEST SWAP1 POP SWAP3 POP SWAP3 SWAP1 POP JUMP JUMPDEST PUSH1 0x1 DUP2 DUP2 SHR SWAP1 DUP3 AND DUP1 PUSH2 0x201C JUMPI PUSH1 0x7F DUP3 AND SWAP2 POP JUMPDEST PUSH1 0x20 DUP3 LT DUP2 SUB PUSH2 0x203C JUMPI PUSH4 0x4E487B71 PUSH1 0xE0 SHL PUSH1 0x0 MSTORE PUSH1 0x22 PUSH1 0x4 MSTORE PUSH1 0x24 PUSH1 0x0 REVERT JUMPDEST POP SWAP2 SWAP1 POP JUMP JUMPDEST PUSH4 0x4E487B71 PUSH1 0xE0 SHL PUSH1 0x0 MSTORE PUSH1 0x32 PUSH1 0x4 MSTORE PUSH1 0x24 PUSH1 0x0 REVERT JUMPDEST PUSH1 0x1F DUP3 GT ISZERO PUSH2 0x6B1 JUMPI DUP1 PUSH1 0x0 MSTORE PUSH1 0x20 PUSH1 0x0 KECCAK256 PUSH1 0x1F DUP5 ADD PUSH1 0x5 SHR DUP2 ADD PUSH1 0x20 DUP6 LT ISZERO PUSH2 0x207F JUMPI POP DUP1 JUMPDEST PUSH1 0x1F DUP5 ADD PUSH1 0x5 SHR DUP3 ADD SWAP2 POP JUMPDEST DUP2 DUP2 LT ISZERO PUSH2 0x16B3 JUMPI PUSH1 0x0 DUP2 SSTORE PUSH1 0x1 ADD PUSH2 0x208B JUMP JUMPDEST PUSH8 0xFFFFFFFFFFFFFFFF DUP4 GT ISZERO PUSH2 0x20B7 JUMPI PUSH2 0x20B7 PUSH2 0x1EDB JUMP JUMPDEST PUSH2 0x20CB DUP4 PUSH2 0x20C5 DUP4 SLOAD PUSH2 0x2008 JUMP JUMPDEST DUP4 PUSH2 0x2058 JUMP JUMPDEST PUSH1 0x0 PUSH1 0x1F DUP5 GT PUSH1 0x1 DUP2 EQ PUSH2 0x20FF JUMPI PUSH1 0x0 DUP6 ISZERO PUSH2 0x20E7 JUMPI POP DUP4 DUP3 ADD CALLDATALOAD JUMPDEST PUSH1 0x0 NOT PUSH1 0x3 DUP8 SWAP1 SHL SHR NOT AND PUSH1 0x1 DUP7 SWAP1 SHL OR DUP4 SSTORE PUSH2 0x16B3 JUMP JUMPDEST PUSH1 0x0 DUP4 DUP2 MSTORE PUSH1 0x20 SWAP1 KECCAK256 PUSH1 0x1F NOT DUP7 AND SWAP1 DUP4 JUMPDEST DUP3 DUP2 LT ISZERO PUSH2 0x2130 JUMPI DUP7 DUP6 ADD CALLDATALOAD DUP3 SSTORE PUSH1 0x20 SWAP5 DUP6 ADD SWAP5 PUSH1 0x1 SWAP1 SWAP3 ADD SWAP2 ADD PUSH2 0x2110 JUMP JUMPDEST POP DUP7 DUP3 LT ISZERO PUSH2 0x214D JUMPI PUSH1 0x0 NOT PUSH1 0xF8 DUP9 PUSH1 0x3 SHL AND SHR NOT DUP5 DUP8 ADD CALLDATALOAD AND DUP2 SSTORE JUMPDEST POP POP PUSH1 0x1 DUP6 PUSH1 0x1 SHL ADD DUP4 SSTORE POP POP POP POP POP JUMP JUMPDEST PUSH1 0x0 PUSH1 0x20 DUP3 DUP5 SUB SLT ISZERO PUSH2 0x2171 JUMPI PUSH1 0x0 DUP1 REVERT JUMPDEST POP MLOAD SWAP2 SWAP1 POP JUMP JUMPDEST PUSH4 0x4E487B71 PUSH1 0xE0 SHL PUSH1 0x0 MSTORE PUSH1 0x11 PUSH1 0x4 MSTORE PUSH1 0x24 PUSH1 0x0 REVERT JUMPDEST DUP1 DUP3 MUL DUP2 ISZERO DUP3 DUP3 DIV DUP5 EQ OR PUSH2 0x422 JUMPI PUSH2 0x422 PUSH2 0x2178 JUMP JUMPDEST PUSH1 0x0 DUP3 PUSH2 0x21C2 JUMPI PUSH4 0x4E487B71 PUSH1 0xE0 SHL PUSH1 0x0 MSTORE PUSH1 0x12 PUSH1 0x4 MSTORE PUSH1 0x24 PUSH1 0x0 REVERT JUMPDEST POP DIV SWAP1 JUMP JUMPDEST DUP2 DUP2 SUB DUP2 DUP2 GT ISZERO PUSH2 0x422 JUMPI PUSH2 0x422 PUSH2 0x2178 JUMP JUMPDEST PUSH1 0x0 PUSH1 0x20 DUP3 DUP5 SUB SLT ISZERO PUSH2 0x21EC JUMPI PUSH1 0x0 DUP1 REVERT JUMPDEST DUP2 MLOAD PUSH2 0x133A DUP2 PUSH2 0x1E96 JUMP JUMPDEST PUSH1 0x0 PUSH1 0x1 DUP3 ADD PUSH2 0x2209 JUMPI PUSH2 0x2209 PUSH2 0x2178 JUMP JUMPDEST POP PUSH1 0x1 ADD SWAP1 JUMP JUMPDEST PUSH1 0x40 DUP2 MSTORE DUP3 PUSH1 0x40 DUP3 ADD MSTORE DUP3 DUP5 PUSH1 0x60 DUP4 ADD CALLDATACOPY PUSH1 0x0 PUSH1 0x60 DUP5 DUP4 ADD ADD MSTORE PUSH1 0x0 PUSH1 0x60 PUSH1 0x1F NOT PUSH1 0x1F DUP7 ADD AND DUP4 ADD ADD SWAP1 POP DUP3 PUSH1 0x20 DUP4 ADD MSTORE SWAP5 SWAP4 POP POP POP POP JUMP JUMPDEST PUSH1 0x0 DUP4 MLOAD PUSH2 0x225B DUP2 DUP5 PUSH1 0x20 DUP9 ADD PUSH2 0x1CDC JUMP JUMPDEST DUP4 MLOAD SWAP1 DUP4 ADD SWAP1 PUSH2 0x226F DUP2 DUP4 PUSH1 0x20 DUP9 ADD PUSH2 0x1CDC JUMP JUMPDEST ADD SWAP5 SWAP4 POP POP POP POP JUMP JUMPDEST PUSH1 0x1 PUSH1 0x1 PUSH1 0xA0 SHL SUB DUP6 DUP2 AND DUP3 MSTORE DUP5 AND PUSH1 0x20 DUP3 ADD MSTORE PUSH1 0x40 DUP2 ADD DUP4 SWAP1 MSTORE PUSH1 0x80 PUSH1 0x60 DUP3 ADD DUP2 SWAP1 MSTORE PUSH1 0x0 SWAP1 PUSH2 0x22AB SWAP1 DUP4 ADD DUP5 PUSH2 0x1D00 JUMP JUMPDEST SWAP7 SWAP6 POP POP POP POP POP POP JUMP JUMPDEST PUSH1 0x0 PUSH1 0x20 DUP3 DUP5 SUB SLT ISZERO PUSH2 0x22C7 JUMPI PUSH1 0x0 DUP1 REVERT JUMPDEST DUP2 MLOAD PUSH2 0x133A DUP2 PUSH2 0x1CA9 JUMP JUMPDEST PUSH4 0x4E487B71 PUSH1 0xE0 SHL PUSH1 0x0 MSTORE PUSH1 0x31 PUSH1 0x4 MSTORE PUSH1 0x24 PUSH1 0x0 REVERT INVALID LOG2 PUSH5 0x6970667358 0x22 SLT KECCAK256 GT 0xDA 0xEA 0xC2 0x28 0x22 SWAP10 SGT 0xA7 0xE3 GASPRICE 0xDE SWAP2 PUSH1 0x98 DUP5 TLOAD 0x4C 0xC4 CREATE 0xB7 0xC3 0xDB 0x4B 0xBC MSIZE CODECOPY MSTORE 0xE6 REVERT 0x2E SSTORE PUSH5 0x736F6C6343 STOP ADDMOD SHR STOP CALLER "},"methodIdentifiers":{"approve(address,uint256)":"095ea7b3","balanceOf(address)":"70a08231","bkcToken()":"2402ff97","delegationManager()":"ea4d3c9b","getApproved(uint256)":"081812fc","isApprovedForAll(address,address)":"e985e9c5","minimumPStakeRequired()":"11107936","name()":"06fdde03","notarizeDocument(string)":"6a33bf87","notarizeFeeBKC()":"1c484cbb","owner()":"8da5cb5b","ownerOf(uint256)":"6352211e","renounceOwnership()":"715018a6","safeTransferFrom(address,address,uint256)":"42842e0e","safeTransferFrom(address,address,uint256,bytes)":"b88d4fde","setApprovalForAll(address,bool)":"a22cb465","setBaseURI(string)":"55f804b3","setNotarySettings(uint256,uint256,uint256)":"1dd627e7","supportsInterface(bytes4)":"01ffc9a7","symbol()":"95d89b41","tokenByIndex(uint256)":"4f6ccce7","tokenOfOwnerByIndex(address,uint256)":"2f745c59","tokenURI(uint256)":"c87b56dd","totalSupply()":"18160ddd","transferFrom(address,address,uint256)":"23b872dd","transferOwnership(address)":"f2fde38b","treasuryFeeBips()":"a7351d1c","treasuryWallet()":"4626402b"}}}}}