{
  "_format": "hh-sol-artifact-1",
  "contractName": "SimpleBKCFaucet",
  "sourceName": "contracts/SimpleBKCFaucet.sol",
  "abi": [
    {
      "inputs": [
        {
          "internalType": "address",
          "name": "_tokenAddress",
          "type": "address"
        }
      ],
      "stateMutability": "nonpayable",
      "type": "constructor"
    },
    {
      "inputs": [
        {
          "internalType": "address",
          "name": "owner",
          "type": "address"
        }
      ],
      "name": "OwnableInvalidOwner",
      "type": "error"
    },
    {
      "inputs": [
        {
          "internalType": "address",
          "name": "account",
          "type": "address"
        }
      ],
      "name": "OwnableUnauthorizedAccount",
      "type": "error"
    },
    {
      "inputs": [],
      "name": "ReentrancyGuardReentrantCall",
      "type": "error"
    },
    {
      "anonymous": false,
      "inputs": [
        {
          "indexed": true,
          "internalType": "address",
          "name": "previousOwner",
          "type": "address"
        },
        {
          "indexed": true,
          "internalType": "address",
          "name": "newOwner",
          "type": "address"
        }
      ],
      "name": "OwnershipTransferred",
      "type": "event"
    },
    {
      "anonymous": false,
      "inputs": [
        {
          "indexed": true,
          "internalType": "address",
          "name": "recipient",
          "type": "address"
        },
        {
          "indexed": false,
          "internalType": "uint256",
          "name": "amount",
          "type": "uint256"
        }
      ],
      "name": "TokensClaimed",
      "type": "event"
    },
    {
      "inputs": [],
      "name": "claim",
      "outputs": [],
      "stateMutability": "nonpayable",
      "type": "function"
    },
    {
      "inputs": [],
      "name": "claimAmount",
      "outputs": [
        {
          "internalType": "uint256",
          "name": "",
          "type": "uint256"
        }
      ],
      "stateMutability": "view",
      "type": "function"
    },
    {
      "inputs": [
        {
          "internalType": "address",
          "name": "",
          "type": "address"
        }
      ],
      "name": "hasClaimed",
      "outputs": [
        {
          "internalType": "bool",
          "name": "",
          "type": "bool"
        }
      ],
      "stateMutability": "view",
      "type": "function"
    },
    {
      "inputs": [],
      "name": "owner",
      "outputs": [
        {
          "internalType": "address",
          "name": "",
          "type": "address"
        }
      ],
      "stateMutability": "view",
      "type": "function"
    },
    {
      "inputs": [],
      "name": "renounceOwnership",
      "outputs": [],
      "stateMutability": "nonpayable",
      "type": "function"
    },
    {
      "inputs": [],
      "name": "token",
      "outputs": [
        {
          "internalType": "contract IERC20",
          "name": "",
          "type": "address"
        }
      ],
      "stateMutability": "view",
      "type": "function"
    },
    {
      "inputs": [
        {
          "internalType": "address",
          "name": "newOwner",
          "type": "address"
        }
      ],
      "name": "transferOwnership",
      "outputs": [],
      "stateMutability": "nonpayable",
      "type": "function"
    },
    {
      "inputs": [],
      "name": "withdrawETH",
      "outputs": [],
      "stateMutability": "nonpayable",
      "type": "function"
    },
    {
      "inputs": [],
      "name": "withdrawRemainingTokens",
      "outputs": [],
      "stateMutability": "nonpayable",
      "type": "function"
    },
    {
      "stateMutability": "payable",
      "type": "receive"
    }
  ],
  "bytecode": "0x60c06040526902a5a058fc295ed0000060a05234801561001e57600080fd5b50604051610ac8380380610ac883398101604081905261003d91610129565b338061006457604051631e4fbdf760e01b8152600060048201526024015b60405180910390fd5b61006d816100d9565b50600180556001600160a01b0381166100c85760405162461bcd60e51b815260206004820152601d60248201527f4661756365743a20496e76616c696420746f6b656e2061646472657373000000604482015260640161005b565b6001600160a01b0316608052610159565b600080546001600160a01b038381166001600160a01b0319831681178455604051919092169283917f8be0079c531659141344cd1fd0a4f28419497f9722a3daafe3b4186f6b6457e09190a35050565b60006020828403121561013b57600080fd5b81516001600160a01b038116811461015257600080fd5b9392505050565b60805160a0516109196101af60003960008181610170015281816102e0015281816103ff01526104ef01526000818161022e01528181610302015281816104260152818161057d015261061701526109196000f3fe60806040526004361061008a5760003560e01c80638afbf669116100595780638afbf669146101a05780638da5cb5b146101b5578063e086e5ec146101e7578063f2fde38b146101fc578063fc0c546a1461021c57600080fd5b80634e71d92d146100ed578063715018a61461010457806373b2e80e14610119578063830953ab1461015e57600080fd5b366100e85760405162461bcd60e51b8152602060048201526024808201527f4661756365743a20436f6e747261637420646f6573206e6f74206163636570746044820152630408aa8960e31b60648201526084015b60405180910390fd5b600080fd5b3480156100f957600080fd5b50610102610250565b005b34801561011057600080fd5b5061010261054b565b34801561012557600080fd5b50610149610134366004610878565b60026020526000908152604090205460ff1681565b60405190151581526020015b60405180910390f35b34801561016a57600080fd5b506101927f000000000000000000000000000000000000000000000000000000000000000081565b604051908152602001610155565b3480156101ac57600080fd5b5061010261055d565b3480156101c157600080fd5b506000546001600160a01b03165b6040516001600160a01b039091168152602001610155565b3480156101f357600080fd5b506101026106eb565b34801561020857600080fd5b50610102610217366004610878565b610796565b34801561022857600080fd5b506101cf7f000000000000000000000000000000000000000000000000000000000000000081565b6102586107d1565b3360009081526002602052604090205460ff16156102cb5760405162461bcd60e51b815260206004820152602a60248201527f4661756365743a20416464726573732068617320616c726561647920636c61696044820152696d656420746f6b656e7360b01b60648201526084016100df565b6040516370a0823160e01b81523060048201527f0000000000000000000000000000000000000000000000000000000000000000907f00000000000000000000000000000000000000000000000000000000000000006001600160a01b0316906370a0823190602401602060405180830381865afa158015610351573d6000803e3d6000fd5b505050506040513d601f19601f8201168201806040525081019061037591906108a8565b10156103cf5760405162461bcd60e51b8152602060048201526024808201527f4661756365743a20496e73756666696369656e742066756e647320696e2066616044820152631d58d95d60e21b60648201526084016100df565b33600081815260026020526040808220805460ff191660011790555163a9059cbb60e01b815260048101929092527f00000000000000000000000000000000000000000000000000000000000000006024830152907f00000000000000000000000000000000000000000000000000000000000000006001600160a01b03169063a9059cbb906044016020604051808303816000875af1158015610477573d6000803e3d6000fd5b505050506040513d601f19601f8201168201806040525081019061049b91906108c1565b9050806104ea5760405162461bcd60e51b815260206004820152601d60248201527f4661756365743a20546f6b656e207472616e73666572206661696c656400000060448201526064016100df565b6040517f0000000000000000000000000000000000000000000000000000000000000000815233907f896e034966eaaf1adc54acc0f257056febbd300c9e47182cf761982cf1f5e4309060200160405180910390a25061054960018055565b565b6105536107fb565b6105496000610828565b6105656107fb565b6040516370a0823160e01b81523060048201526000907f00000000000000000000000000000000000000000000000000000000000000006001600160a01b0316906370a0823190602401602060405180830381865afa1580156105cc573d6000803e3d6000fd5b505050506040513d601f19601f820116820180604052508101906105f091906108a8565b905080156106e85760405163a9059cbb60e01b8152336004820152602481018290526000907f00000000000000000000000000000000000000000000000000000000000000006001600160a01b03169063a9059cbb906044016020604051808303816000875af1158015610668573d6000803e3d6000fd5b505050506040513d601f19601f8201168201806040525081019061068c91906108c1565b9050806106e65760405162461bcd60e51b815260206004820152602260248201527f4661756365743a205769746864726177616c207472616e73666572206661696c604482015261195960f21b60648201526084016100df565b505b50565b6106f36107fb565b600080546040516001600160a01b039091169047908381818185875af1925050503d8060008114610740576040519150601f19603f3d011682016040523d82523d6000602084013e610745565b606091505b50509050806106e85760405162461bcd60e51b815260206004820152601d60248201527f4661756365743a20455448207769746864726177616c206661696c656400000060448201526064016100df565b61079e6107fb565b6001600160a01b0381166107c857604051631e4fbdf760e01b8152600060048201526024016100df565b6106e881610828565b6002600154036107f457604051633ee5aeb560e01b815260040160405180910390fd5b6002600155565b6000546001600160a01b031633146105495760405163118cdaa760e01b81523360048201526024016100df565b600080546001600160a01b038381166001600160a01b0319831681178455604051919092169283917f8be0079c531659141344cd1fd0a4f28419497f9722a3daafe3b4186f6b6457e09190a35050565b60006020828403121561088a57600080fd5b81356001600160a01b03811681146108a157600080fd5b9392505050565b6000602082840312156108ba57600080fd5b5051919050565b6000602082840312156108d357600080fd5b815180151581146108a157600080fdfea2646970667358221220ee6cd2d2230f7fce5b166eda21281e55d5510268e75ddaac14e255bbca1a3ac064736f6c634300081c0033",
  "linkReferences": {},
  "deployedLinkReferences": {}
}