{
  "_format": "hh-sol-artifact-1",
  "contractName": "PublicSale",
  "sourceName": "contracts/PublicSale.sol",
  "abi": [
    {
      "inputs": [
        {
          "internalType": "address",
          "name": "_nftContractAddress",
          "type": "address"
        },
        {
          "internalType": "address",
          "name": "_initialOwner",
          "type": "address"
        },
        {
          "internalType": "address",
          "name": "_treasury",
          "type": "address"
        }
      ],
      "stateMutability": "nonpayable",
      "type": "constructor"
    },
    {
      "inputs": [
        {
          "internalType": "address",
          "name": "owner",
          "type": "address"
        }
      ],
      "name": "OwnableInvalidOwner",
      "type": "error"
    },
    {
      "inputs": [
        {
          "internalType": "address",
          "name": "account",
          "type": "address"
        }
      ],
      "name": "OwnableUnauthorizedAccount",
      "type": "error"
    },
    {
      "anonymous": false,
      "inputs": [
        {
          "indexed": true,
          "internalType": "address",
          "name": "owner",
          "type": "address"
        },
        {
          "indexed": true,
          "internalType": "uint256",
          "name": "tierId",
          "type": "uint256"
        },
        {
          "indexed": true,
          "internalType": "uint256",
          "name": "tokenId",
          "type": "uint256"
        }
      ],
      "name": "NFTRescued",
      "type": "event"
    },
    {
      "anonymous": false,
      "inputs": [
        {
          "indexed": true,
          "internalType": "address",
          "name": "buyer",
          "type": "address"
        },
        {
          "indexed": true,
          "internalType": "uint256",
          "name": "tierId",
          "type": "uint256"
        },
        {
          "indexed": true,
          "internalType": "uint256",
          "name": "tokenId",
          "type": "uint256"
        },
        {
          "indexed": false,
          "internalType": "uint256",
          "name": "price",
          "type": "uint256"
        }
      ],
      "name": "NFTSold",
      "type": "event"
    },
    {
      "anonymous": false,
      "inputs": [
        {
          "indexed": true,
          "internalType": "address",
          "name": "previousOwner",
          "type": "address"
        },
        {
          "indexed": true,
          "internalType": "address",
          "name": "newOwner",
          "type": "address"
        }
      ],
      "name": "OwnershipTransferred",
      "type": "event"
    },
    {
      "inputs": [
        {
          "internalType": "uint256",
          "name": "_tierId",
          "type": "uint256"
        },
        {
          "internalType": "uint256",
          "name": "_quantity",
          "type": "uint256"
        }
      ],
      "name": "buyMultipleNFTs",
      "outputs": [],
      "stateMutability": "payable",
      "type": "function"
    },
    {
      "inputs": [
        {
          "internalType": "uint256",
          "name": "_tierId",
          "type": "uint256"
        }
      ],
      "name": "buyNFT",
      "outputs": [],
      "stateMutability": "payable",
      "type": "function"
    },
    {
      "inputs": [],
      "name": "nftContract",
      "outputs": [
        {
          "internalType": "contract IERC721",
          "name": "",
          "type": "address"
        }
      ],
      "stateMutability": "view",
      "type": "function"
    },
    {
      "inputs": [
        {
          "internalType": "address",
          "name": "",
          "type": "address"
        },
        {
          "internalType": "address",
          "name": "",
          "type": "address"
        },
        {
          "internalType": "uint256",
          "name": "",
          "type": "uint256"
        },
        {
          "internalType": "bytes",
          "name": "",
          "type": "bytes"
        }
      ],
      "name": "onERC721Received",
      "outputs": [
        {
          "internalType": "bytes4",
          "name": "",
          "type": "bytes4"
        }
      ],
      "stateMutability": "nonpayable",
      "type": "function"
    },
    {
      "inputs": [],
      "name": "owner",
      "outputs": [
        {
          "internalType": "address",
          "name": "",
          "type": "address"
        }
      ],
      "stateMutability": "view",
      "type": "function"
    },
    {
      "inputs": [],
      "name": "renounceOwnership",
      "outputs": [],
      "stateMutability": "nonpayable",
      "type": "function"
    },
    {
      "inputs": [
        {
          "internalType": "uint256",
          "name": "_tierId",
          "type": "uint256"
        },
        {
          "internalType": "uint256",
          "name": "_tokenId",
          "type": "uint256"
        }
      ],
      "name": "rescueNFT",
      "outputs": [],
      "stateMutability": "nonpayable",
      "type": "function"
    },
    {
      "inputs": [
        {
          "internalType": "uint256",
          "name": "_tierId",
          "type": "uint256"
        },
        {
          "internalType": "uint256",
          "name": "_priceInWei",
          "type": "uint256"
        },
        {
          "internalType": "uint256[]",
          "name": "_tokenIds",
          "type": "uint256[]"
        }
      ],
      "name": "setTier",
      "outputs": [],
      "stateMutability": "nonpayable",
      "type": "function"
    },
    {
      "inputs": [
        {
          "internalType": "uint256",
          "name": "",
          "type": "uint256"
        }
      ],
      "name": "tiers",
      "outputs": [
        {
          "internalType": "uint256",
          "name": "priceInWei",
          "type": "uint256"
        },
        {
          "internalType": "uint256",
          "name": "nextTokenIndex",
          "type": "uint256"
        }
      ],
      "stateMutability": "view",
      "type": "function"
    },
    {
      "inputs": [
        {
          "internalType": "address",
          "name": "newOwner",
          "type": "address"
        }
      ],
      "name": "transferOwnership",
      "outputs": [],
      "stateMutability": "nonpayable",
      "type": "function"
    },
    {
      "inputs": [],
      "name": "treasuryWallet",
      "outputs": [
        {
          "internalType": "address",
          "name": "",
          "type": "address"
        }
      ],
      "stateMutability": "view",
      "type": "function"
    },
    {
      "inputs": [],
      "name": "withdrawFunds",
      "outputs": [],
      "stateMutability": "nonpayable",
      "type": "function"
    },
    {
      "inputs": [
        {
          "internalType": "uint256",
          "name": "_tierId",
          "type": "uint256"
        }
      ],
      "name": "withdrawUnsoldNFTs",
      "outputs": [],
      "stateMutability": "nonpayable",
      "type": "function"
    }
  ],
  "bytecode": "0x60a060405234801561001057600080fd5b506040516111eb3803806111eb83398101604081905261002f916100fe565b816001600160a01b03811661005e57604051631e4fbdf760e01b81526000600482015260240160405180910390fd5b61006781610092565b506001600160a01b03928316608052600180546001600160a01b031916919093161790915550610141565b600080546001600160a01b038381166001600160a01b0319831681178455604051919092169283917f8be0079c531659141344cd1fd0a4f28419497f9722a3daafe3b4186f6b6457e09190a35050565b80516001600160a01b03811681146100f957600080fd5b919050565b60008060006060848603121561011357600080fd5b61011c846100e2565b925061012a602085016100e2565b9150610138604085016100e2565b90509250925092565b60805161106c61017f60003960008181610273015281816103f50152818161071e0152818161097b01528181610a5c0152610b70015261106c6000f3fe6080604052600436106100c25760003560e01c80634c2830bf1161007f578063715018a611610059578063715018a61461022e5780638da5cb5b14610243578063d56d229d14610261578063f2fde38b1461029557600080fd5b80634c2830bf146101db57806351ed8288146101fb57806361efe6461461020e57600080fd5b8063039af9eb146100c7578063150b7a021461011557806324600fc31461015957806329d2a6d0146101705780634626402b146101905780634977197a146101c8575b600080fd5b3480156100d357600080fd5b506100fb6100e2366004610d48565b6002602081905260009182526040909120805491015482565b604080519283526020830191909152015b60405180910390f35b34801561012157600080fd5b50610140610130366004610d8c565b630a85bd0160e11b949350505050565b6040516001600160e01b0319909116815260200161010c565b34801561016557600080fd5b5061016e6102b5565b005b34801561017c57600080fd5b5061016e61018b366004610d48565b610357565b34801561019c57600080fd5b506001546101b0906001600160a01b031681565b6040516001600160a01b03909116815260200161010c565b61016e6101d6366004610e74565b6104c1565b3480156101e757600080fd5b5061016e6101f6366004610e74565b61079d565b61016e610209366004610d48565b610a14565b34801561021a57600080fd5b5061016e610229366004610e96565b610a1f565b34801561023a57600080fd5b5061016e610c1c565b34801561024f57600080fd5b506000546001600160a01b03166101b0565b34801561026d57600080fd5b506101b07f000000000000000000000000000000000000000000000000000000000000000081565b3480156102a157600080fd5b5061016e6102b0366004610f1c565b610c30565b6102bd610c6b565b6001546040516000916001600160a01b03169047908381818185875af1925050503d806000811461030a576040519150601f19603f3d011682016040523d82523d6000602084013e61030f565b606091505b50509050806103545760405162461bcd60e51b815260206004820152600c60248201526b53617175652066616c686f7560a01b60448201526064015b60405180910390fd5b50565b61035f610c6b565b600081815260026020819052604082209081015460018201549192916103859190610f56565b9050600081116103e15760405162461bcd60e51b815260206004820152602160248201527f4e656e68756d204e4654206e616f2076656e6469646f206e65737465207469656044820152603960f91b606482015260840161034b565b60028201545b60018301548110156104b1577f00000000000000000000000000000000000000000000000000000000000000006001600160a01b03166342842e0e306104356000546001600160a01b031690565b86600101858154811061044a5761044a610f6f565b90600052602060002001546040518463ffffffff1660e01b815260040161047393929190610f85565b600060405180830381600087803b15801561048d57600080fd5b505af11580156104a1573d6000803e3d6000fd5b5050600190920191506103e79050565b5050600181015460029091015550565b600081116105255760405162461bcd60e51b815260206004820152602b60248201527f56656e64613a2041207175616e746964616465206465766520736572206d616960448201526a6f7220717565207a65726f60a81b606482015260840161034b565b600082815260026020526040902080546105815760405162461bcd60e51b815260206004820152601b60248201527f56656e64613a2054696572206e616f20636f6e666967757261646f0000000000604482015260640161034b565b8054600090610591908490610fa9565b90508034146106085760405162461bcd60e51b815260206004820152603a60248201527f56656e64613a2056616c6f7220656d2045544820696e636f727265746f20706160448201527f72612061207175616e74696461646520736f6c69636974616461000000000000606482015260840161034b565b6001820154600283015461061d908590610fc0565b11156106825760405162461bcd60e51b815260206004820152602e60248201527f56656e64613a205175616e74696461646520736f6c696369746164612065786360448201526d656465206f206573746f7175652160901b606482015260840161034b565b60005b83811015610796576000836001018460020154815481106106a8576106a8610f6f565b600091825260208220015460028601805491935090916106c783610fd3565b909155505083546040519081528190879033907f306b3d0468e32a4a4b287be94a0ff526c42c78f7fcc5387b40c45df6b58872359060200160405180910390a4604051632142170760e11b81526001600160a01b037f000000000000000000000000000000000000000000000000000000000000000016906342842e0e9061075790309033908690600401610f85565b600060405180830381600087803b15801561077157600080fd5b505af1158015610785573d6000803e3d6000fd5b505060019093019250610685915050565b5050505050565b6107a5610c6b565b60008281526002602052604090206001810154806107fb5760405162461bcd60e51b815260206004820152601360248201527254696572206e616f2074656d20746f6b656e7360681b604482015260640161034b565b60001960005b8281101561083f578484600101828154811061081f5761081f610f6f565b9060005260206000200154036108375780915061083f565b600101610801565b5060001981036108915760405162461bcd60e51b815260206004820152601c60248201527f546f6b656e206e616f20656e636f6e747261646f206e6f207469657200000000604482015260640161034b565b6000836001016001846108a49190610f56565b815481106108b4576108b4610f6f565b90600052602060002001549050808460010183815481106108d7576108d7610f6f565b600091825260209091200155600184018054806108f6576108f6610fec565b6001900381819060005260206000200160009055905583600201548210156109305760028401805490600061092a83611002565b91905055505b84866109446000546001600160a01b031690565b6001600160a01b03167f890c0c8eff5dd29c2a6688f5582633bab9158fe8adcf97cb084b32526d2388bd60405160405180910390a47f00000000000000000000000000000000000000000000000000000000000000006001600160a01b03166342842e0e306109bb6000546001600160a01b031690565b886040518463ffffffff1660e01b81526004016109da93929190610f85565b600060405180830381600087803b1580156109f457600080fd5b505af1158015610a08573d6000803e3d6000fd5b50505050505050505050565b6103548160016104c1565b610a27610c6b565b6000848152600260205260409020838155610a46600182018484610ce8565b506000600282018190555b82811015610c1457337f00000000000000000000000000000000000000000000000000000000000000006001600160a01b0316636352211e868685818110610a9b57610a9b610f6f565b905060200201356040518263ffffffff1660e01b8152600401610ac091815260200190565b602060405180830381865afa158015610add573d6000803e3d6000fd5b505050506040513d601f19601f82011682018060405250810190610b019190611019565b6001600160a01b031614610b6e5760405162461bcd60e51b815260206004820152602e60248201527f446f6e6f206465766520706f737375697220746f646f73206f73204e4654732060448201526d70617261206c697374612d6c6f7360901b606482015260840161034b565b7f00000000000000000000000000000000000000000000000000000000000000006001600160a01b03166342842e0e3330878786818110610bb157610bb1610f6f565b905060200201356040518463ffffffff1660e01b8152600401610bd693929190610f85565b600060405180830381600087803b158015610bf057600080fd5b505af1158015610c04573d6000803e3d6000fd5b505060019092019150610a519050565b505050505050565b610c24610c6b565b610c2e6000610c98565b565b610c38610c6b565b6001600160a01b038116610c6257604051631e4fbdf760e01b81526000600482015260240161034b565b61035481610c98565b6000546001600160a01b03163314610c2e5760405163118cdaa760e01b815233600482015260240161034b565b600080546001600160a01b038381166001600160a01b0319831681178455604051919092169283917f8be0079c531659141344cd1fd0a4f28419497f9722a3daafe3b4186f6b6457e09190a35050565b828054828255906000526020600020908101928215610d23579160200282015b82811115610d23578235825591602001919060010190610d08565b50610d2f929150610d33565b5090565b5b80821115610d2f5760008155600101610d34565b600060208284031215610d5a57600080fd5b5035919050565b6001600160a01b038116811461035457600080fd5b634e487b7160e01b600052604160045260246000fd5b60008060008060808587031215610da257600080fd5b8435610dad81610d61565b93506020850135610dbd81610d61565b925060408501359150606085013567ffffffffffffffff811115610de057600080fd5b8501601f81018713610df157600080fd5b803567ffffffffffffffff811115610e0b57610e0b610d76565b604051601f8201601f19908116603f0116810167ffffffffffffffff81118282101715610e3a57610e3a610d76565b604052818152828201602001891015610e5257600080fd5b8160208401602083013760006020838301015280935050505092959194509250565b60008060408385031215610e8757600080fd5b50508035926020909101359150565b60008060008060608587031215610eac57600080fd5b8435935060208501359250604085013567ffffffffffffffff811115610ed157600080fd5b8501601f81018713610ee257600080fd5b803567ffffffffffffffff811115610ef957600080fd5b8760208260051b8401011115610f0e57600080fd5b949793965060200194505050565b600060208284031215610f2e57600080fd5b8135610f3981610d61565b9392505050565b634e487b7160e01b600052601160045260246000fd5b81810381811115610f6957610f69610f40565b92915050565b634e487b7160e01b600052603260045260246000fd5b6001600160a01b039384168152919092166020820152604081019190915260600190565b8082028115828204841417610f6957610f69610f40565b80820180821115610f6957610f69610f40565b600060018201610fe557610fe5610f40565b5060010190565b634e487b7160e01b600052603160045260246000fd5b60008161101157611011610f40565b506000190190565b60006020828403121561102b57600080fd5b8151610f3981610d6156fea2646970667358221220431820ddf65e89abcdabee46d79dedc018382dffe792728d9ac1511c24231dad64736f6c634300081c0033",
  "linkReferences": {},
  "deployedLinkReferences": {}
}