{
  "_format": "hh-sol-artifact-1",
  "contractName": "RewardManager",
  "sourceName": "contracts/RewardManager.sol",
  "abi": [
    {
      "inputs": [
        {
          "internalType": "address",
          "name": "_bkcTokenAddress",
          "type": "address"
        },
        {
          "internalType": "address",
          "name": "_treasuryWallet",
          "type": "address"
        },
        {
          "internalType": "address",
          "name": "_initialOwner",
          "type": "address"
        }
      ],
      "stateMutability": "nonpayable",
      "type": "constructor"
    },
    {
      "inputs": [],
      "name": "ERC721EnumerableForbiddenBatchMint",
      "type": "error"
    },
    {
      "inputs": [
        {
          "internalType": "address",
          "name": "sender",
          "type": "address"
        },
        {
          "internalType": "uint256",
          "name": "tokenId",
          "type": "uint256"
        },
        {
          "internalType": "address",
          "name": "owner",
          "type": "address"
        }
      ],
      "name": "ERC721IncorrectOwner",
      "type": "error"
    },
    {
      "inputs": [
        {
          "internalType": "address",
          "name": "operator",
          "type": "address"
        },
        {
          "internalType": "uint256",
          "name": "tokenId",
          "type": "uint256"
        }
      ],
      "name": "ERC721InsufficientApproval",
      "type": "error"
    },
    {
      "inputs": [
        {
          "internalType": "address",
          "name": "approver",
          "type": "address"
        }
      ],
      "name": "ERC721InvalidApprover",
      "type": "error"
    },
    {
      "inputs": [
        {
          "internalType": "address",
          "name": "operator",
          "type": "address"
        }
      ],
      "name": "ERC721InvalidOperator",
      "type": "error"
    },
    {
      "inputs": [
        {
          "internalType": "address",
          "name": "owner",
          "type": "address"
        }
      ],
      "name": "ERC721InvalidOwner",
      "type": "error"
    },
    {
      "inputs": [
        {
          "internalType": "address",
          "name": "receiver",
          "type": "address"
        }
      ],
      "name": "ERC721InvalidReceiver",
      "type": "error"
    },
    {
      "inputs": [
        {
          "internalType": "address",
          "name": "sender",
          "type": "address"
        }
      ],
      "name": "ERC721InvalidSender",
      "type": "error"
    },
    {
      "inputs": [
        {
          "internalType": "uint256",
          "name": "tokenId",
          "type": "uint256"
        }
      ],
      "name": "ERC721NonexistentToken",
      "type": "error"
    },
    {
      "inputs": [
        {
          "internalType": "address",
          "name": "owner",
          "type": "address"
        },
        {
          "internalType": "uint256",
          "name": "index",
          "type": "uint256"
        }
      ],
      "name": "ERC721OutOfBoundsIndex",
      "type": "error"
    },
    {
      "inputs": [
        {
          "internalType": "address",
          "name": "owner",
          "type": "address"
        }
      ],
      "name": "OwnableInvalidOwner",
      "type": "error"
    },
    {
      "inputs": [
        {
          "internalType": "address",
          "name": "account",
          "type": "address"
        }
      ],
      "name": "OwnableUnauthorizedAccount",
      "type": "error"
    },
    {
      "inputs": [],
      "name": "ReentrancyGuardReentrantCall",
      "type": "error"
    },
    {
      "anonymous": false,
      "inputs": [
        {
          "indexed": true,
          "internalType": "address",
          "name": "owner",
          "type": "address"
        },
        {
          "indexed": true,
          "internalType": "address",
          "name": "approved",
          "type": "address"
        },
        {
          "indexed": true,
          "internalType": "uint256",
          "name": "tokenId",
          "type": "uint256"
        }
      ],
      "name": "Approval",
      "type": "event"
    },
    {
      "anonymous": false,
      "inputs": [
        {
          "indexed": true,
          "internalType": "address",
          "name": "owner",
          "type": "address"
        },
        {
          "indexed": true,
          "internalType": "address",
          "name": "operator",
          "type": "address"
        },
        {
          "indexed": false,
          "internalType": "bool",
          "name": "approved",
          "type": "bool"
        }
      ],
      "name": "ApprovalForAll",
      "type": "event"
    },
    {
      "anonymous": false,
      "inputs": [
        {
          "indexed": true,
          "internalType": "uint256",
          "name": "tokenId",
          "type": "uint256"
        },
        {
          "indexed": true,
          "internalType": "address",
          "name": "owner",
          "type": "address"
        },
        {
          "indexed": false,
          "internalType": "uint256",
          "name": "amountToOwner",
          "type": "uint256"
        },
        {
          "indexed": false,
          "internalType": "uint256",
          "name": "penaltyAmount",
          "type": "uint256"
        }
      ],
      "name": "CertificateWithdrawn",
      "type": "event"
    },
    {
      "anonymous": false,
      "inputs": [
        {
          "indexed": true,
          "internalType": "address",
          "name": "miner",
          "type": "address"
        },
        {
          "indexed": false,
          "internalType": "uint256",
          "name": "amount",
          "type": "uint256"
        }
      ],
      "name": "MinerRewardClaimed",
      "type": "event"
    },
    {
      "anonymous": false,
      "inputs": [
        {
          "indexed": true,
          "internalType": "address",
          "name": "previousOwner",
          "type": "address"
        },
        {
          "indexed": true,
          "internalType": "address",
          "name": "newOwner",
          "type": "address"
        }
      ],
      "name": "OwnershipTransferred",
      "type": "event"
    },
    {
      "anonymous": false,
      "inputs": [
        {
          "indexed": true,
          "internalType": "address",
          "name": "from",
          "type": "address"
        },
        {
          "indexed": true,
          "internalType": "address",
          "name": "to",
          "type": "address"
        },
        {
          "indexed": true,
          "internalType": "uint256",
          "name": "tokenId",
          "type": "uint256"
        }
      ],
      "name": "Transfer",
      "type": "event"
    },
    {
      "anonymous": false,
      "inputs": [
        {
          "indexed": true,
          "internalType": "uint256",
          "name": "tokenId",
          "type": "uint256"
        },
        {
          "indexed": true,
          "internalType": "address",
          "name": "recipient",
          "type": "address"
        },
        {
          "indexed": false,
          "internalType": "uint256",
          "name": "netAmount",
          "type": "uint256"
        }
      ],
      "name": "VestingCertificateCreated",
      "type": "event"
    },
    {
      "inputs": [],
      "name": "INITIAL_PENALTY_BIPS",
      "outputs": [
        {
          "internalType": "uint256",
          "name": "",
          "type": "uint256"
        }
      ],
      "stateMutability": "view",
      "type": "function"
    },
    {
      "inputs": [],
      "name": "MAX_SUPPLY",
      "outputs": [
        {
          "internalType": "uint256",
          "name": "",
          "type": "uint256"
        }
      ],
      "stateMutability": "view",
      "type": "function"
    },
    {
      "inputs": [],
      "name": "MINT_POOL",
      "outputs": [
        {
          "internalType": "uint256",
          "name": "",
          "type": "uint256"
        }
      ],
      "stateMutability": "view",
      "type": "function"
    },
    {
      "inputs": [],
      "name": "TGE_SUPPLY",
      "outputs": [
        {
          "internalType": "uint256",
          "name": "",
          "type": "uint256"
        }
      ],
      "stateMutability": "view",
      "type": "function"
    },
    {
      "inputs": [],
      "name": "VESTING_DURATION",
      "outputs": [
        {
          "internalType": "uint256",
          "name": "",
          "type": "uint256"
        }
      ],
      "stateMutability": "view",
      "type": "function"
    },
    {
      "inputs": [
        {
          "internalType": "address",
          "name": "to",
          "type": "address"
        },
        {
          "internalType": "uint256",
          "name": "tokenId",
          "type": "uint256"
        }
      ],
      "name": "approve",
      "outputs": [],
      "stateMutability": "nonpayable",
      "type": "function"
    },
    {
      "inputs": [
        {
          "internalType": "address",
          "name": "owner",
          "type": "address"
        }
      ],
      "name": "balanceOf",
      "outputs": [
        {
          "internalType": "uint256",
          "name": "",
          "type": "uint256"
        }
      ],
      "stateMutability": "view",
      "type": "function"
    },
    {
      "inputs": [],
      "name": "bkcToken",
      "outputs": [
        {
          "internalType": "contract BKCToken",
          "name": "",
          "type": "address"
        }
      ],
      "stateMutability": "view",
      "type": "function"
    },
    {
      "inputs": [],
      "name": "claimMinerRewards",
      "outputs": [],
      "stateMutability": "nonpayable",
      "type": "function"
    },
    {
      "inputs": [
        {
          "internalType": "address",
          "name": "_recipient",
          "type": "address"
        },
        {
          "internalType": "uint256",
          "name": "_grossAmount",
          "type": "uint256"
        }
      ],
      "name": "createVestingCertificate",
      "outputs": [],
      "stateMutability": "nonpayable",
      "type": "function"
    },
    {
      "inputs": [],
      "name": "delegationManager",
      "outputs": [
        {
          "internalType": "contract DelegationManager",
          "name": "",
          "type": "address"
        }
      ],
      "stateMutability": "view",
      "type": "function"
    },
    {
      "inputs": [
        {
          "internalType": "uint256",
          "name": "tokenId",
          "type": "uint256"
        }
      ],
      "name": "getApproved",
      "outputs": [
        {
          "internalType": "address",
          "name": "",
          "type": "address"
        }
      ],
      "stateMutability": "view",
      "type": "function"
    },
    {
      "inputs": [
        {
          "internalType": "address",
          "name": "owner",
          "type": "address"
        },
        {
          "internalType": "address",
          "name": "operator",
          "type": "address"
        }
      ],
      "name": "isApprovedForAll",
      "outputs": [
        {
          "internalType": "bool",
          "name": "",
          "type": "bool"
        }
      ],
      "stateMutability": "view",
      "type": "function"
    },
    {
      "inputs": [
        {
          "internalType": "address",
          "name": "",
          "type": "address"
        }
      ],
      "name": "minerRewardsOwed",
      "outputs": [
        {
          "internalType": "uint256",
          "name": "",
          "type": "uint256"
        }
      ],
      "stateMutability": "view",
      "type": "function"
    },
    {
      "inputs": [],
      "name": "name",
      "outputs": [
        {
          "internalType": "string",
          "name": "",
          "type": "string"
        }
      ],
      "stateMutability": "view",
      "type": "function"
    },
    {
      "inputs": [],
      "name": "owner",
      "outputs": [
        {
          "internalType": "address",
          "name": "",
          "type": "address"
        }
      ],
      "stateMutability": "view",
      "type": "function"
    },
    {
      "inputs": [
        {
          "internalType": "uint256",
          "name": "tokenId",
          "type": "uint256"
        }
      ],
      "name": "ownerOf",
      "outputs": [
        {
          "internalType": "address",
          "name": "",
          "type": "address"
        }
      ],
      "stateMutability": "view",
      "type": "function"
    },
    {
      "inputs": [],
      "name": "renounceOwnership",
      "outputs": [],
      "stateMutability": "nonpayable",
      "type": "function"
    },
    {
      "inputs": [
        {
          "internalType": "address",
          "name": "from",
          "type": "address"
        },
        {
          "internalType": "address",
          "name": "to",
          "type": "address"
        },
        {
          "internalType": "uint256",
          "name": "tokenId",
          "type": "uint256"
        }
      ],
      "name": "safeTransferFrom",
      "outputs": [],
      "stateMutability": "nonpayable",
      "type": "function"
    },
    {
      "inputs": [
        {
          "internalType": "address",
          "name": "from",
          "type": "address"
        },
        {
          "internalType": "address",
          "name": "to",
          "type": "address"
        },
        {
          "internalType": "uint256",
          "name": "tokenId",
          "type": "uint256"
        },
        {
          "internalType": "bytes",
          "name": "data",
          "type": "bytes"
        }
      ],
      "name": "safeTransferFrom",
      "outputs": [],
      "stateMutability": "nonpayable",
      "type": "function"
    },
    {
      "inputs": [
        {
          "internalType": "address",
          "name": "operator",
          "type": "address"
        },
        {
          "internalType": "bool",
          "name": "approved",
          "type": "bool"
        }
      ],
      "name": "setApprovalForAll",
      "outputs": [],
      "stateMutability": "nonpayable",
      "type": "function"
    },
    {
      "inputs": [
        {
          "internalType": "string",
          "name": "newBaseURI",
          "type": "string"
        }
      ],
      "name": "setBaseURI",
      "outputs": [],
      "stateMutability": "nonpayable",
      "type": "function"
    },
    {
      "inputs": [
        {
          "internalType": "address",
          "name": "_delegationManagerAddress",
          "type": "address"
        }
      ],
      "name": "setDelegationManager",
      "outputs": [],
      "stateMutability": "nonpayable",
      "type": "function"
    },
    {
      "inputs": [
        {
          "internalType": "bytes4",
          "name": "interfaceId",
          "type": "bytes4"
        }
      ],
      "name": "supportsInterface",
      "outputs": [
        {
          "internalType": "bool",
          "name": "",
          "type": "bool"
        }
      ],
      "stateMutability": "view",
      "type": "function"
    },
    {
      "inputs": [],
      "name": "symbol",
      "outputs": [
        {
          "internalType": "string",
          "name": "",
          "type": "string"
        }
      ],
      "stateMutability": "view",
      "type": "function"
    },
    {
      "inputs": [
        {
          "internalType": "uint256",
          "name": "index",
          "type": "uint256"
        }
      ],
      "name": "tokenByIndex",
      "outputs": [
        {
          "internalType": "uint256",
          "name": "",
          "type": "uint256"
        }
      ],
      "stateMutability": "view",
      "type": "function"
    },
    {
      "inputs": [
        {
          "internalType": "address",
          "name": "owner",
          "type": "address"
        },
        {
          "internalType": "uint256",
          "name": "index",
          "type": "uint256"
        }
      ],
      "name": "tokenOfOwnerByIndex",
      "outputs": [
        {
          "internalType": "uint256",
          "name": "",
          "type": "uint256"
        }
      ],
      "stateMutability": "view",
      "type": "function"
    },
    {
      "inputs": [
        {
          "internalType": "uint256",
          "name": "tokenId",
          "type": "uint256"
        }
      ],
      "name": "tokenURI",
      "outputs": [
        {
          "internalType": "string",
          "name": "",
          "type": "string"
        }
      ],
      "stateMutability": "view",
      "type": "function"
    },
    {
      "inputs": [],
      "name": "totalSupply",
      "outputs": [
        {
          "internalType": "uint256",
          "name": "",
          "type": "uint256"
        }
      ],
      "stateMutability": "view",
      "type": "function"
    },
    {
      "inputs": [
        {
          "internalType": "address",
          "name": "from",
          "type": "address"
        },
        {
          "internalType": "address",
          "name": "to",
          "type": "address"
        },
        {
          "internalType": "uint256",
          "name": "tokenId",
          "type": "uint256"
        }
      ],
      "name": "transferFrom",
      "outputs": [],
      "stateMutability": "nonpayable",
      "type": "function"
    },
    {
      "inputs": [
        {
          "internalType": "address",
          "name": "newOwner",
          "type": "address"
        }
      ],
      "name": "transferOwnership",
      "outputs": [],
      "stateMutability": "nonpayable",
      "type": "function"
    },
    {
      "inputs": [],
      "name": "treasuryWallet",
      "outputs": [
        {
          "internalType": "address",
          "name": "",
          "type": "address"
        }
      ],
      "stateMutability": "view",
      "type": "function"
    },
    {
      "inputs": [
        {
          "internalType": "uint256",
          "name": "",
          "type": "uint256"
        }
      ],
      "name": "vestingPositions",
      "outputs": [
        {
          "internalType": "uint256",
          "name": "totalAmount",
          "type": "uint256"
        },
        {
          "internalType": "uint256",
          "name": "startTime",
          "type": "uint256"
        }
      ],
      "stateMutability": "view",
      "type": "function"
    },
    {
      "inputs": [
        {
          "internalType": "uint256",
          "name": "_tokenId",
          "type": "uint256"
        }
      ],
      "name": "withdraw",
      "outputs": [],
      "stateMutability": "nonpayable",
      "type": "function"
    }
  ],
  "bytecode": "0x60c060405234801561001057600080fd5b50604051612eed380380612eed83398101604081905261002f916101c6565b806040518060400160405280601d81526020017f4261636b636861696e2056657374696e67204365727469666963617465000000815250604051806040016040528060048152602001632125a1ab60e11b815250816000908161009291906102a8565b50600161009f82826102a8565b5050506001600160a01b0381166100d157604051631e4fbdf760e01b8152600060048201526024015b60405180910390fd5b6100da81610158565b506001600b556001600160a01b0383161580159061010057506001600160a01b03821615155b6101405760405162461bcd60e51b8152602060048201526011602482015270496e76616c69642061646472657373657360781b60448201526064016100c8565b506001600160a01b039182166080521660a052610366565b600a80546001600160a01b038381166001600160a01b0319831681179093556040519116919082907f8be0079c531659141344cd1fd0a4f28419497f9722a3daafe3b4186f6b6457e090600090a35050565b80516001600160a01b03811681146101c157600080fd5b919050565b6000806000606084860312156101db57600080fd5b6101e4846101aa565b92506101f2602085016101aa565b9150610200604085016101aa565b90509250925092565b634e487b7160e01b600052604160045260246000fd5b600181811c9082168061023357607f821691505b60208210810361025357634e487b7160e01b600052602260045260246000fd5b50919050565b601f8211156102a357806000526020600020601f840160051c810160208510156102805750805b601f840160051c820191505b818110156102a0576000815560010161028c565b50505b505050565b81516001600160401b038111156102c1576102c1610209565b6102d5816102cf845461021f565b84610259565b6020601f82116001811461030957600083156102f15750848201515b600019600385901b1c1916600184901b1784556102a0565b600084815260208120601f198516915b828110156103395787850151825560209485019460019092019101610319565b50848210156103575786840151600019600387901b60f8161c191681555b50505050600190811b01905550565b60805160a051612b006103ed600039600081816103570152818161080f01528181610f9701526113210152600081816102e5015281816107e2015281816108a201528181610b7101528181610fc6015281816110a1015281816111ba015281816112f4015281816113c80152818161144f015281816114d001526119da0152612b006000f3fe608060405234801561001057600080fd5b50600436106102065760003560e01c80636352211e1161011a57806395d89b41116100ad578063b88d4fde1161007c578063b88d4fde1461047e578063c87b56dd14610491578063e985e9c5146104a4578063ea4d3c9b146104b7578063f2fde38b146104ca57600080fd5b806395d89b4114610448578063a21b517f14610450578063a22cb46514610458578063b507aa1d1461046b57600080fd5b80637c81ff56116100e95780637c81ff56146103e15780637f09d23e146103f357806385ef5c4a1461042f5780638da5cb5b1461043757600080fd5b80636352211e146103aa578063647fad2e146103bd57806370a08231146103c6578063715018a6146103d957600080fd5b80632402ff971161019d57806342842e0e1161016c57806342842e0e1461033f5780634626402b146103525780634cfc4d30146103795780634f6ccce71461038457806355f804b31461039757600080fd5b80632402ff97146102e05780632e1a7d4d146103075780632f745c591461031a57806332cb6b0c1461032d57600080fd5b806318160ddd116101d957806318160ddd146102885780631a8c0a5a1461029a5780631a8d0de2146102ba57806323b872dd146102cd57600080fd5b806301ffc9a71461020b57806306fdde0314610233578063081812fc14610248578063095ea7b314610273575b600080fd5b61021e61021936600461239f565b6104dd565b60405190151581526020015b60405180910390f35b61023b6104ee565b60405161022a9190612409565b61025b61025636600461241c565b610580565b6040516001600160a01b03909116815260200161022a565b61028661028136600461244a565b6105a9565b005b6008545b60405190815260200161022a565b61028c6102a8366004612476565b600f6020526000908152604090205481565b6102866102c8366004612476565b6105b8565b6102866102db366004612493565b610688565b61025b7f000000000000000000000000000000000000000000000000000000000000000081565b61028661031536600461241c565b610713565b61028c61032836600461244a565b610972565b61028c6aa56fa5b99019a5c800000081565b61028661034d366004612493565b6109c9565b61025b7f000000000000000000000000000000000000000000000000000000000000000081565b61028c630966018081565b61028c61039236600461241c565b6109e9565b6102866103a53660046124d4565b610a3d565b61025b6103b836600461241c565b610a52565b61028c61138881565b61028c6103d4366004612476565b610a5d565b610286610aa5565b61028c6a211654585005212800000081565b61041a61040136600461241c565b6011602052600090815260409020805460019091015482565b6040805192835260208301919091520161022a565b61028c610ab9565b600a546001600160a01b031661025b565b61023b610adc565b610286610aeb565b610286610466366004612556565b610c8a565b61028661047936600461244a565b610c95565b61028661048c3660046125d6565b61165e565b61023b61049f36600461241c565b611676565b61021e6104b236600461269f565b611701565b600c5461025b906001600160a01b031681565b6102866104d8366004612476565b61172f565b60006104e88261176a565b92915050565b6060600080546104fd906126cd565b80601f0160208091040260200160405190810160405280929190818152602001828054610529906126cd565b80156105765780601f1061054b57610100808354040283529160200191610576565b820191906000526020600020905b81548152906001019060200180831161055957829003601f168201915b5050505050905090565b600061058b8261178f565b506000828152600460205260409020546001600160a01b03166104e8565b6105b48282336117c8565b5050565b6105c06117d5565b6001600160a01b03811661061b5760405162461bcd60e51b815260206004820152601a60248201527f524d3a20416464726573732063616e6e6f74206265207a65726f00000000000060448201526064015b60405180910390fd5b600c546001600160a01b0316156106665760405162461bcd60e51b815260206004820152600f60248201526e14934e88105b1c9958591e481cd95d608a1b6044820152606401610612565b600c80546001600160a01b0319166001600160a01b0392909216919091179055565b6001600160a01b0382166106b257604051633250574960e11b815260006004820152602401610612565b60006106bf838333611802565b9050836001600160a01b0316816001600160a01b03161461070d576040516364283d7b60e01b81526001600160a01b0380861660048301526024820184905282166044820152606401610612565b50505050565b61071b611817565b3361072582610a52565b6001600160a01b03161461076b5760405162461bcd60e51b815260206004820152600d60248201526c2737ba103a34329037bbb732b960991b6044820152606401610612565b600081815260116020908152604080832081518083019092528054825260018101549282019290925290919081906107a290611841565b60008681526011602052604081208181556001015590925090506107c5846118a9565b80156108855760405163a9059cbb60e01b81526001600160a01b037f0000000000000000000000000000000000000000000000000000000000000000169063a9059cbb90610839907f0000000000000000000000000000000000000000000000000000000000000000908590600401612707565b6020604051808303816000875af1158015610858573d6000803e3d6000fd5b505050506040513d601f19601f8201168201806040525081019061087c9190612720565b61088557600080fd5b81156109255760405163a9059cbb60e01b81526001600160a01b037f0000000000000000000000000000000000000000000000000000000000000000169063a9059cbb906108d99033908690600401612707565b6020604051808303816000875af11580156108f8573d6000803e3d6000fd5b505050506040513d601f19601f8201168201806040525081019061091c9190612720565b61092557600080fd5b6040805183815260208101839052339186917f7cd7da4c046b1f0a02aa2a3e5302b417cf90122f48f2882063ef88ca15d50cb3910160405180910390a350505061096f6001600b55565b50565b600061097d83610a5d565b82106109a057828260405163295f44f760e21b8152600401610612929190612707565b506001600160a01b03919091166000908152600660209081526040808320938352929052205490565b6109e48383836040518060200160405280600081525061165e565b505050565b60006109f460085490565b8210610a185760008260405163295f44f760e21b8152600401610612929190612707565b60088281548110610a2b57610a2b61273d565b90600052602060002001549050919050565b610a456117d5565b600d6109e482848361279a565b60006104e88261178f565b60006001600160a01b038216610a89576040516322718ad960e21b815260006004820152602401610612565b506001600160a01b031660009081526003602052604090205490565b610aad6117d5565b610ab760006118e4565b565b610ad96a21165458500521280000006aa56fa5b99019a5c8000000612870565b81565b6060600180546104fd906126cd565b610af3611817565b336000908152600f602052604090205480610b505760405162461bcd60e51b815260206004820152601d60248201527f524d3a204e6f206d696e6572207265776172647320746f20636c61696d0000006044820152606401610612565b336000818152600f6020526040808220919091555163a9059cbb60e01b81527f00000000000000000000000000000000000000000000000000000000000000006001600160a01b03169163a9059cbb91610baf91908590600401612707565b6020604051808303816000875af1158015610bce573d6000803e3d6000fd5b505050506040513d601f19601f82011682018060405250810190610bf29190612720565b610c4a5760405162461bcd60e51b8152602060048201526024808201527f524d3a204661696c656420746f207472616e73666572206d696e6572207265776044820152636172647360e01b6064820152608401610612565b60405181815233907f08526084592d720c4ec7e426c88ca4df1d1801a7de92703b2fc61dad658bd6f49060200160405180910390a250610ab76001600b55565b6105b4338383611936565b610c9d611817565b600c546001600160a01b0316610cf55760405162461bcd60e51b815260206004820152601d60248201527f524d3a2044656c65676174696f6e4d616e61676572206e6f74207365740000006044820152606401610612565b60008111610d515760405162461bcd60e51b8152602060048201526024808201527f524d3a20416d6f756e74206d7573742062652067726561746572207468616e206044820152637a65726f60e01b6064820152608401610612565b6001600160a01b038216610d9f5760405162461bcd60e51b815260206004820152601560248201527414934e88125b9d985b1a59081c9958da5c1a595b9d605a1b6044820152606401610612565b600c5460405163c684e0e160e01b8152336004820152600091839183916001600160a01b03169063c684e0e190602401602060405180830381865afa158015610dec573d6000803e3d6000fd5b505050506040513d601f19601f82011682018060405250810190610e109190612883565b90506000600c60009054906101000a90046001600160a01b03166001600160a01b03166358f01c796040518163ffffffff1660e01b8152600401602060405180830381865afa158015610e67573d6000803e3d6000fd5b505050506040513d601f19601f82011682018060405250810190610e8b9190612883565b90508015610efe57600081610ea28461271061289c565b610eac91906128c9565b9050600a811015610ed5576064610ec487600561289c565b610ece91906128c9565b9450610ef8565b6064811015610ef8576064610eeb87600261289c565b610ef591906128c9565b94505b50610f18565b6064610f0b86600561289c565b610f1591906128c9565b93505b831561107f57610f288486612870565b925060008311610f7a5760405162461bcd60e51b815260206004820152601c60248201527f524d3a20416d6f756e7420616674657220666565206973207a65726f000000006044820152606401610612565b6040516323b872dd60e01b81523360048201526001600160a01b037f000000000000000000000000000000000000000000000000000000000000000081166024830152604482018690527f000000000000000000000000000000000000000000000000000000000000000016906323b872dd906064016020604051808303816000875af115801561100f573d6000803e3d6000fd5b505050506040513d601f19601f820116820180604052508101906110339190612720565b61107f5760405162461bcd60e51b815260206004820152601760248201527f524d3a20466565207472616e73666572206661696c65640000000000000000006044820152606401610612565b6040516323b872dd60e01b8152336004820152306024820152604481018490527f00000000000000000000000000000000000000000000000000000000000000006001600160a01b0316906323b872dd906064016020604051808303816000875af11580156110f2573d6000803e3d6000fd5b505050506040513d601f19601f820116820180604052508101906111169190612720565b6111625760405162461bcd60e51b815260206004820152601960248201527f524d3a20546f6b656e207472616e73666572206661696c6564000000000000006044820152606401610612565b600061116d866119d5565b90508381156115ba576000606461118584600a61289c565b61118f91906128c9565b905061119b81836128dd565b91508015611224576040516340c10f1960e01b81526001600160a01b037f000000000000000000000000000000000000000000000000000000000000000016906340c10f19906111f19030908590600401612707565b600060405180830381600087803b15801561120b57600080fd5b505af115801561121f573d6000803e3d6000fd5b505050505b600061122e611b8a565b90506001600160a01b0381166112865760405162461bcd60e51b815260206004820152601c60248201527f524d3a20436f756c64206e6f742073656c6563742061206d696e6572000000006044820152606401610612565b6000606461129586600a61289c565b61129f91906128c9565b9050600060646112b087600f61289c565b6112ba91906128c9565b9050600060646112cb88604161289c565b6112d591906128c9565b9050821561137e576040516340c10f1960e01b81526001600160a01b037f000000000000000000000000000000000000000000000000000000000000000016906340c10f199061134b907f0000000000000000000000000000000000000000000000000000000000000000908790600401612707565b600060405180830381600087803b15801561136557600080fd5b505af1158015611379573d6000803e3d6000fd5b505050505b8115611432576001600160a01b0384166000908152600f6020526040812080548492906113ac9084906128dd565b90915550506040516340c10f1960e01b81526001600160a01b037f000000000000000000000000000000000000000000000000000000000000000016906340c10f19906113ff9030908690600401612707565b600060405180830381600087803b15801561141957600080fd5b505af115801561142d573d6000803e3d6000fd5b505050505b80156115b4576040516340c10f1960e01b81526001600160a01b037f000000000000000000000000000000000000000000000000000000000000000016906340c10f19906114869030908590600401612707565b600060405180830381600087803b1580156114a057600080fd5b505af11580156114b4573d6000803e3d6000fd5b5050600c5460405163095ea7b360e01b81526001600160a01b037f00000000000000000000000000000000000000000000000000000000000000008116945063095ea7b3935061150a9216908590600401612707565b6020604051808303816000875af1158015611529573d6000803e3d6000fd5b505050506040513d601f19601f8201168201806040525081019061154d9190612720565b50600c5460405163bdd071fb60e01b815260006004820152602481018390526001600160a01b039091169063bdd071fb90604401600060405180830381600087803b15801561159b57600080fd5b505af11580156115af573d6000803e3d6000fd5b505050505b50505050505b600e8054600091826115cb836128f0565b9190505590506115db8982611c72565b604080518082018252838152426020808301918252600085815260119091528390209151825551600190910155516001600160a01b038a169082907f947ba8a5c8251ee740e822a581cb301ec8a0696f0f13d0741d8576c510399d8f906116459086815260200190565b60405180910390a3505050505050506105b46001600b55565b611669848484610688565b61070d3385858585611c8c565b6060600061168383610a52565b6001600160a01b0316036116d95760405162461bcd60e51b815260206004820152601860248201527f4552433732313a20696e76616c696420746f6b656e20494400000000000000006044820152606401610612565b600d6040516020016116eb9190612909565b6040516020818303038152906040529050919050565b6001600160a01b03918216600090815260056020908152604080832093909416825291909152205460ff1690565b6117376117d5565b6001600160a01b03811661176157604051631e4fbdf760e01b815260006004820152602401610612565b61096f816118e4565b60006001600160e01b0319821663780e9d6360e01b14806104e857506104e882611db7565b6000818152600260205260408120546001600160a01b0316806104e857604051637e27328960e01b815260048101849052602401610612565b6109e48383836001611e07565b600a546001600160a01b03163314610ab75760405163118cdaa760e01b8152336004820152602401610612565b600061180f848484611f0d565b949350505050565b6002600b540361183a57604051633ee5aeb560e01b815260040160405180910390fd5b6002600b55565b60008060008360200151426118569190612870565b90506309660180811061186e57505090519160009150565b60006127106113888660000151611885919061289c565b61188f91906128c9565b855190915061189f908290612870565b9590945092505050565b60006118b86000836000611802565b90506001600160a01b0381166105b457604051637e27328960e01b815260048101839052602401610612565b600a80546001600160a01b038381166001600160a01b0319831681179093556040519116919082907f8be0079c531659141344cd1fd0a4f28419497f9722a3daafe3b4186f6b6457e090600090a35050565b6001600160a01b03821661196857604051630b61174360e31b81526001600160a01b0383166004820152602401610612565b6001600160a01b03838116600081815260056020908152604080832094871680845294825291829020805460ff191686151590811790915591519182527f17307eab39ab6107e8899845ad3d59bd9653f200f220920489ca2b5937696c31910160405180910390a3505050565b6000807f00000000000000000000000000000000000000000000000000000000000000006001600160a01b03166318160ddd6040518163ffffffff1660e01b8152600401602060405180830381865afa158015611a36573d6000803e3d6000fd5b505050506040513d601f19601f82011682018060405250810190611a5a9190612883565b90506aa56fa5b99019a5c80000008110611a775750600092915050565b60006a21165458500521280000008211611a92576000611aa7565b611aa76a211654585005212800000083612870565b9050600081611acc6a21165458500521280000006aa56fa5b99019a5c8000000612870565b611ad69190612870565b905080600003611aeb57506000949350505050565b6000611b0d6a21165458500521280000006aa56fa5b99019a5c8000000612870565b611b1f83670de0b6b3a764000061289c565b611b2991906128c9565b90506000670de0b6b3a7640000611b40838961289c565b611b4a91906128c9565b90506aa56fa5b99019a5c8000000611b6282876128dd565b1115611b8057611b7d856aa56fa5b99019a5c8000000612870565b90505b9695505050505050565b600080600c60009054906101000a90046001600160a01b03166001600160a01b031663f3513a376040518163ffffffff1660e01b8152600401600060405180830381865afa158015611be0573d6000803e3d6000fd5b505050506040513d6000823e601f3d908101601f19168201604052611c089190810190612997565b80519091506000819003611c1f5760009250505090565b8060105410611c2e5760006010555b60008260105481518110611c4457611c4461273d565b60200260200101519050816010546001611c5e91906128dd565b611c689190612a50565b6010559392505050565b6105b4828260405180602001604052806000815250611fda565b6001600160a01b0383163b15611db057604051630a85bd0160e11b81526001600160a01b0384169063150b7a0290611cce908890889087908790600401612a64565b6020604051808303816000875af1925050508015611d09575060408051601f3d908101601f19168201909252611d0691810190612a97565b60015b611d72573d808015611d37576040519150601f19603f3d011682016040523d82523d6000602084013e611d3c565b606091505b508051600003611d6a57604051633250574960e11b81526001600160a01b0385166004820152602401610612565b805160208201fd5b6001600160e01b03198116630a85bd0160e11b14611dae57604051633250574960e11b81526001600160a01b0385166004820152602401610612565b505b5050505050565b60006001600160e01b031982166380ac58cd60e01b1480611de857506001600160e01b03198216635b5e139f60e01b145b806104e857506301ffc9a760e01b6001600160e01b03198316146104e8565b8080611e1b57506001600160a01b03821615155b15611edd576000611e2b8461178f565b90506001600160a01b03831615801590611e575750826001600160a01b0316816001600160a01b031614155b8015611e6a5750611e688184611701565b155b15611e935760405163a9fbf51f60e01b81526001600160a01b0384166004820152602401610612565b8115611edb5783856001600160a01b0316826001600160a01b03167f8c5be1e5ebec7d5bd14f71427d1e84f3dd0314c0f7b2291e5b200ac8c7c3b92560405160405180910390a45b505b5050600090815260046020526040902080546001600160a01b0319166001600160a01b0392909216919091179055565b600080611f1b858585611ff2565b90506001600160a01b038116611f7857611f7384600880546000838152600960205260408120829055600182018355919091527ff3f7a9fe364faab93b216da50a3214154f22a0a2b415b23a84c8169e8b636ee30155565b611f9b565b846001600160a01b0316816001600160a01b031614611f9b57611f9b81856120eb565b6001600160a01b038516611fb757611fb28461216c565b61180f565b846001600160a01b0316816001600160a01b03161461180f5761180f858561221b565b611fe4838361226b565b6109e4336000858585611c8c565b6000828152600260205260408120546001600160a01b039081169083161561201f5761201f8184866122d0565b6001600160a01b0381161561205d5761203c600085600080611e07565b6001600160a01b038116600090815260036020526040902080546000190190555b6001600160a01b0385161561208c576001600160a01b0385166000908152600360205260409020805460010190555b60008481526002602052604080822080546001600160a01b0319166001600160a01b0389811691821790925591518793918516917fddf252ad1be2c89b69c2b068fc378daa952ba7f163c4a11628f55a4df523b3ef91a4949350505050565b60006120f683610a5d565b6000838152600760209081526040808320546001600160a01b038816845260069092529091209192509081831461214d57600083815260208281526040808320548584528184208190558352600790915290208290555b6000938452600760209081526040808620869055938552525081205550565b60085460009061217e90600190612870565b600083815260096020526040812054600880549394509092849081106121a6576121a661273d565b9060005260206000200154905080600883815481106121c7576121c761273d565b60009182526020808320909101929092558281526009909152604080822084905585825281205560088054806121ff576121ff612ab4565b6001900381819060005260206000200160009055905550505050565b6000600161222884610a5d565b6122329190612870565b6001600160a01b039093166000908152600660209081526040808320868452825280832085905593825260079052919091209190915550565b6001600160a01b03821661229557604051633250574960e11b815260006004820152602401610612565b60006122a383836000611802565b90506001600160a01b038116156109e4576040516339e3563760e11b815260006004820152602401610612565b6122db838383612326565b6109e4576001600160a01b03831661230957604051637e27328960e01b815260048101829052602401610612565b818160405163177e802f60e01b8152600401610612929190612707565b60006001600160a01b0383161580159061180f5750826001600160a01b0316846001600160a01b0316148061236057506123608484611701565b8061180f5750506000908152600460205260409020546001600160a01b03908116911614919050565b6001600160e01b03198116811461096f57600080fd5b6000602082840312156123b157600080fd5b81356123bc81612389565b9392505050565b6000815180845260005b818110156123e9576020818501810151868301820152016123cd565b506000602082860101526020601f19601f83011685010191505092915050565b6020815260006123bc60208301846123c3565b60006020828403121561242e57600080fd5b5035919050565b6001600160a01b038116811461096f57600080fd5b6000806040838503121561245d57600080fd5b823561246881612435565b946020939093013593505050565b60006020828403121561248857600080fd5b81356123bc81612435565b6000806000606084860312156124a857600080fd5b83356124b381612435565b925060208401356124c381612435565b929592945050506040919091013590565b600080602083850312156124e757600080fd5b823567ffffffffffffffff8111156124fe57600080fd5b8301601f8101851361250f57600080fd5b803567ffffffffffffffff81111561252657600080fd5b85602082840101111561253857600080fd5b6020919091019590945092505050565b801515811461096f57600080fd5b6000806040838503121561256957600080fd5b823561257481612435565b9150602083013561258481612548565b809150509250929050565b634e487b7160e01b600052604160045260246000fd5b604051601f8201601f1916810167ffffffffffffffff811182821017156125ce576125ce61258f565b604052919050565b600080600080608085870312156125ec57600080fd5b84356125f781612435565b9350602085013561260781612435565b925060408501359150606085013567ffffffffffffffff81111561262a57600080fd5b8501601f8101871361263b57600080fd5b803567ffffffffffffffff8111156126555761265561258f565b612668601f8201601f19166020016125a5565b81815288602083850101111561267d57600080fd5b8160208401602083013760006020838301015280935050505092959194509250565b600080604083850312156126b257600080fd5b82356126bd81612435565b9150602083013561258481612435565b600181811c908216806126e157607f821691505b60208210810361270157634e487b7160e01b600052602260045260246000fd5b50919050565b6001600160a01b03929092168252602082015260400190565b60006020828403121561273257600080fd5b81516123bc81612548565b634e487b7160e01b600052603260045260246000fd5b601f8211156109e457806000526020600020601f840160051c8101602085101561277a5750805b601f840160051c820191505b81811015611db05760008155600101612786565b67ffffffffffffffff8311156127b2576127b261258f565b6127c6836127c083546126cd565b83612753565b6000601f8411600181146127fa57600085156127e25750838201355b600019600387901b1c1916600186901b178355611db0565b600083815260209020601f19861690835b8281101561282b578685013582556020948501946001909201910161280b565b50868210156128485760001960f88860031b161c19848701351681555b505060018560011b0183555050505050565b634e487b7160e01b600052601160045260246000fd5b818103818111156104e8576104e861285a565b60006020828403121561289557600080fd5b5051919050565b80820281158282048414176104e8576104e861285a565b634e487b7160e01b600052601260045260246000fd5b6000826128d8576128d86128b3565b500490565b808201808211156104e8576104e861285a565b6000600182016129025761290261285a565b5060010190565b6000808354612917816126cd565b60018216801561292e576001811461294357612973565b60ff1983168652811515820286019350612973565b86600052602060002060005b8381101561296b5781548882015260019091019060200161294f565b505081860193505b5050703b32b9ba34b733afb1b2b93a173539b7b760791b8252506011019392505050565b6000602082840312156129a957600080fd5b815167ffffffffffffffff8111156129c057600080fd5b8201601f810184136129d157600080fd5b805167ffffffffffffffff8111156129eb576129eb61258f565b8060051b6129fb602082016125a5565b91825260208184018101929081019087841115612a1757600080fd5b6020850194505b83851015612a455784519250612a3383612435565b82825260209485019490910190612a1e565b979650505050505050565b600082612a5f57612a5f6128b3565b500690565b6001600160a01b0385811682528416602082015260408101839052608060608201819052600090611b80908301846123c3565b600060208284031215612aa957600080fd5b81516123bc81612389565b634e487b7160e01b600052603160045260246000fdfea264697066735822122016416c221e34e564a69d3a2f1f722150d58a8803148b7e4032285837dcb7667b64736f6c634300081c0033",
  "linkReferences": {},
  "deployedLinkReferences": {}
}