{
  "_format": "hh-sol-artifact-1",
  "contractName": "RewardBoosterNFT",
  "sourceName": "contracts/RewardBoosterNFT.sol",
  "abi": [
    {
      "inputs": [
        {
          "internalType": "address",
          "name": "_initialOwner",
          "type": "address"
        }
      ],
      "stateMutability": "nonpayable",
      "type": "constructor"
    },
    {
      "inputs": [
        {
          "internalType": "address",
          "name": "sender",
          "type": "address"
        },
        {
          "internalType": "uint256",
          "name": "tokenId",
          "type": "uint256"
        },
        {
          "internalType": "address",
          "name": "owner",
          "type": "address"
        }
      ],
      "name": "ERC721IncorrectOwner",
      "type": "error"
    },
    {
      "inputs": [
        {
          "internalType": "address",
          "name": "operator",
          "type": "address"
        },
        {
          "internalType": "uint256",
          "name": "tokenId",
          "type": "uint256"
        }
      ],
      "name": "ERC721InsufficientApproval",
      "type": "error"
    },
    {
      "inputs": [
        {
          "internalType": "address",
          "name": "approver",
          "type": "address"
        }
      ],
      "name": "ERC721InvalidApprover",
      "type": "error"
    },
    {
      "inputs": [
        {
          "internalType": "address",
          "name": "operator",
          "type": "address"
        }
      ],
      "name": "ERC721InvalidOperator",
      "type": "error"
    },
    {
      "inputs": [
        {
          "internalType": "address",
          "name": "owner",
          "type": "address"
        }
      ],
      "name": "ERC721InvalidOwner",
      "type": "error"
    },
    {
      "inputs": [
        {
          "internalType": "address",
          "name": "receiver",
          "type": "address"
        }
      ],
      "name": "ERC721InvalidReceiver",
      "type": "error"
    },
    {
      "inputs": [
        {
          "internalType": "address",
          "name": "sender",
          "type": "address"
        }
      ],
      "name": "ERC721InvalidSender",
      "type": "error"
    },
    {
      "inputs": [
        {
          "internalType": "uint256",
          "name": "tokenId",
          "type": "uint256"
        }
      ],
      "name": "ERC721NonexistentToken",
      "type": "error"
    },
    {
      "inputs": [
        {
          "internalType": "address",
          "name": "owner",
          "type": "address"
        }
      ],
      "name": "OwnableInvalidOwner",
      "type": "error"
    },
    {
      "inputs": [
        {
          "internalType": "address",
          "name": "account",
          "type": "address"
        }
      ],
      "name": "OwnableUnauthorizedAccount",
      "type": "error"
    },
    {
      "anonymous": false,
      "inputs": [
        {
          "indexed": true,
          "internalType": "address",
          "name": "owner",
          "type": "address"
        },
        {
          "indexed": true,
          "internalType": "address",
          "name": "approved",
          "type": "address"
        },
        {
          "indexed": true,
          "internalType": "uint256",
          "name": "tokenId",
          "type": "uint256"
        }
      ],
      "name": "Approval",
      "type": "event"
    },
    {
      "anonymous": false,
      "inputs": [
        {
          "indexed": true,
          "internalType": "address",
          "name": "owner",
          "type": "address"
        },
        {
          "indexed": true,
          "internalType": "address",
          "name": "operator",
          "type": "address"
        },
        {
          "indexed": false,
          "internalType": "bool",
          "name": "approved",
          "type": "bool"
        }
      ],
      "name": "ApprovalForAll",
      "type": "event"
    },
    {
      "anonymous": false,
      "inputs": [
        {
          "indexed": true,
          "internalType": "uint256",
          "name": "tokenId",
          "type": "uint256"
        },
        {
          "indexed": true,
          "internalType": "address",
          "name": "owner",
          "type": "address"
        },
        {
          "indexed": false,
          "internalType": "uint256",
          "name": "boostInBips",
          "type": "uint256"
        }
      ],
      "name": "BoosterMinted",
      "type": "event"
    },
    {
      "anonymous": false,
      "inputs": [
        {
          "indexed": true,
          "internalType": "address",
          "name": "previousOwner",
          "type": "address"
        },
        {
          "indexed": true,
          "internalType": "address",
          "name": "newOwner",
          "type": "address"
        }
      ],
      "name": "OwnershipTransferred",
      "type": "event"
    },
    {
      "anonymous": false,
      "inputs": [
        {
          "indexed": true,
          "internalType": "address",
          "name": "from",
          "type": "address"
        },
        {
          "indexed": true,
          "internalType": "address",
          "name": "to",
          "type": "address"
        },
        {
          "indexed": true,
          "internalType": "uint256",
          "name": "tokenId",
          "type": "uint256"
        }
      ],
      "name": "Transfer",
      "type": "event"
    },
    {
      "inputs": [
        {
          "internalType": "address",
          "name": "to",
          "type": "address"
        },
        {
          "internalType": "uint256",
          "name": "tokenId",
          "type": "uint256"
        }
      ],
      "name": "approve",
      "outputs": [],
      "stateMutability": "nonpayable",
      "type": "function"
    },
    {
      "inputs": [
        {
          "internalType": "address",
          "name": "owner",
          "type": "address"
        }
      ],
      "name": "balanceOf",
      "outputs": [
        {
          "internalType": "uint256",
          "name": "",
          "type": "uint256"
        }
      ],
      "stateMutability": "view",
      "type": "function"
    },
    {
      "inputs": [
        {
          "internalType": "address",
          "name": "to",
          "type": "address"
        },
        {
          "internalType": "uint256",
          "name": "quantity",
          "type": "uint256"
        },
        {
          "internalType": "uint256",
          "name": "boostInBips",
          "type": "uint256"
        },
        {
          "internalType": "string",
          "name": "metadataFile",
          "type": "string"
        }
      ],
      "name": "batchSafeMintWithBoost",
      "outputs": [],
      "stateMutability": "nonpayable",
      "type": "function"
    },
    {
      "inputs": [
        {
          "internalType": "address",
          "name": "from",
          "type": "address"
        },
        {
          "internalType": "address",
          "name": "to",
          "type": "address"
        },
        {
          "internalType": "uint256[]",
          "name": "tokenIds",
          "type": "uint256[]"
        }
      ],
      "name": "batchTransferFrom",
      "outputs": [],
      "stateMutability": "nonpayable",
      "type": "function"
    },
    {
      "inputs": [
        {
          "internalType": "uint256",
          "name": "",
          "type": "uint256"
        }
      ],
      "name": "boostBips",
      "outputs": [
        {
          "internalType": "uint256",
          "name": "",
          "type": "uint256"
        }
      ],
      "stateMutability": "view",
      "type": "function"
    },
    {
      "inputs": [
        {
          "internalType": "uint256",
          "name": "tokenId",
          "type": "uint256"
        }
      ],
      "name": "getApproved",
      "outputs": [
        {
          "internalType": "address",
          "name": "",
          "type": "address"
        }
      ],
      "stateMutability": "view",
      "type": "function"
    },
    {
      "inputs": [
        {
          "internalType": "address",
          "name": "user",
          "type": "address"
        }
      ],
      "name": "getHighestBoost",
      "outputs": [
        {
          "internalType": "uint256",
          "name": "",
          "type": "uint256"
        }
      ],
      "stateMutability": "view",
      "type": "function"
    },
    {
      "inputs": [
        {
          "internalType": "address",
          "name": "owner",
          "type": "address"
        },
        {
          "internalType": "address",
          "name": "operator",
          "type": "address"
        }
      ],
      "name": "isApprovedForAll",
      "outputs": [
        {
          "internalType": "bool",
          "name": "",
          "type": "bool"
        }
      ],
      "stateMutability": "view",
      "type": "function"
    },
    {
      "inputs": [],
      "name": "name",
      "outputs": [
        {
          "internalType": "string",
          "name": "",
          "type": "string"
        }
      ],
      "stateMutability": "view",
      "type": "function"
    },
    {
      "inputs": [],
      "name": "owner",
      "outputs": [
        {
          "internalType": "address",
          "name": "",
          "type": "address"
        }
      ],
      "stateMutability": "view",
      "type": "function"
    },
    {
      "inputs": [
        {
          "internalType": "uint256",
          "name": "tokenId",
          "type": "uint256"
        }
      ],
      "name": "ownerOf",
      "outputs": [
        {
          "internalType": "address",
          "name": "",
          "type": "address"
        }
      ],
      "stateMutability": "view",
      "type": "function"
    },
    {
      "inputs": [],
      "name": "renounceOwnership",
      "outputs": [],
      "stateMutability": "nonpayable",
      "type": "function"
    },
    {
      "inputs": [
        {
          "internalType": "address",
          "name": "from",
          "type": "address"
        },
        {
          "internalType": "address",
          "name": "to",
          "type": "address"
        },
        {
          "internalType": "uint256",
          "name": "tokenId",
          "type": "uint256"
        }
      ],
      "name": "safeTransferFrom",
      "outputs": [],
      "stateMutability": "nonpayable",
      "type": "function"
    },
    {
      "inputs": [
        {
          "internalType": "address",
          "name": "from",
          "type": "address"
        },
        {
          "internalType": "address",
          "name": "to",
          "type": "address"
        },
        {
          "internalType": "uint256",
          "name": "tokenId",
          "type": "uint256"
        },
        {
          "internalType": "bytes",
          "name": "data",
          "type": "bytes"
        }
      ],
      "name": "safeTransferFrom",
      "outputs": [],
      "stateMutability": "nonpayable",
      "type": "function"
    },
    {
      "inputs": [
        {
          "internalType": "address",
          "name": "operator",
          "type": "address"
        },
        {
          "internalType": "bool",
          "name": "approved",
          "type": "bool"
        }
      ],
      "name": "setApprovalForAll",
      "outputs": [],
      "stateMutability": "nonpayable",
      "type": "function"
    },
    {
      "inputs": [
        {
          "internalType": "string",
          "name": "newBaseURI",
          "type": "string"
        }
      ],
      "name": "setBaseURI",
      "outputs": [],
      "stateMutability": "nonpayable",
      "type": "function"
    },
    {
      "inputs": [
        {
          "internalType": "bytes4",
          "name": "interfaceId",
          "type": "bytes4"
        }
      ],
      "name": "supportsInterface",
      "outputs": [
        {
          "internalType": "bool",
          "name": "",
          "type": "bool"
        }
      ],
      "stateMutability": "view",
      "type": "function"
    },
    {
      "inputs": [],
      "name": "symbol",
      "outputs": [
        {
          "internalType": "string",
          "name": "",
          "type": "string"
        }
      ],
      "stateMutability": "view",
      "type": "function"
    },
    {
      "inputs": [
        {
          "internalType": "uint256",
          "name": "",
          "type": "uint256"
        }
      ],
      "name": "tokenMetadataFile",
      "outputs": [
        {
          "internalType": "string",
          "name": "",
          "type": "string"
        }
      ],
      "stateMutability": "view",
      "type": "function"
    },
    {
      "inputs": [
        {
          "internalType": "address",
          "name": "owner",
          "type": "address"
        },
        {
          "internalType": "uint256",
          "name": "index",
          "type": "uint256"
        }
      ],
      "name": "tokenOfOwnerByIndex",
      "outputs": [
        {
          "internalType": "uint256",
          "name": "",
          "type": "uint256"
        }
      ],
      "stateMutability": "view",
      "type": "function"
    },
    {
      "inputs": [
        {
          "internalType": "uint256",
          "name": "tokenId",
          "type": "uint256"
        }
      ],
      "name": "tokenURI",
      "outputs": [
        {
          "internalType": "string",
          "name": "",
          "type": "string"
        }
      ],
      "stateMutability": "view",
      "type": "function"
    },
    {
      "inputs": [
        {
          "internalType": "address",
          "name": "from",
          "type": "address"
        },
        {
          "internalType": "address",
          "name": "to",
          "type": "address"
        },
        {
          "internalType": "uint256",
          "name": "tokenId",
          "type": "uint256"
        }
      ],
      "name": "transferFrom",
      "outputs": [],
      "stateMutability": "nonpayable",
      "type": "function"
    },
    {
      "inputs": [
        {
          "internalType": "address",
          "name": "newOwner",
          "type": "address"
        }
      ],
      "name": "transferOwnership",
      "outputs": [],
      "stateMutability": "nonpayable",
      "type": "function"
    }
  ],
  "bytecode": "0x608060405234801561001057600080fd5b50604051611b36380380611b3683398101604081905261002f91610132565b806040518060400160405280601881526020017f4261636b636861696e2052657761726420426f6f737465720000000000000000815250604051806040016040528060048152602001632125a1a160e11b81525081600090816100929190610201565b50600161009f8282610201565b5050506001600160a01b0381166100d057604051631e4fbdf760e01b81526000600482015260240160405180910390fd5b6100d9816100e0565b50506102bf565b600680546001600160a01b038381166001600160a01b0319831681179093556040519116919082907f8be0079c531659141344cd1fd0a4f28419497f9722a3daafe3b4186f6b6457e090600090a35050565b60006020828403121561014457600080fd5b81516001600160a01b038116811461015b57600080fd5b9392505050565b634e487b7160e01b600052604160045260246000fd5b600181811c9082168061018c57607f821691505b6020821081036101ac57634e487b7160e01b600052602260045260246000fd5b50919050565b601f8211156101fc57806000526020600020601f840160051c810160208510156101d95750805b601f840160051c820191505b818110156101f957600081556001016101e5565b50505b505050565b81516001600160401b0381111561021a5761021a610162565b61022e816102288454610178565b846101b2565b6020601f821160018114610262576000831561024a5750848201515b600019600385901b1c1916600184901b1784556101f9565b600084815260208120601f198516915b828110156102925787850151825560209485019460019092019101610272565b50848210156102b05786840151600019600387901b60f8161c191681555b50505050600190811b01905550565b611868806102ce6000396000f3fe608060405234801561001057600080fd5b506004361061014d5760003560e01c8063715018a6116100c3578063c87b56dd1161007c578063c87b56dd146102bc578063e1245ca0146102cf578063e985e9c5146102ef578063f16f3ff714610302578063f2fde38b14610315578063f3993d111461032857600080fd5b8063715018a6146102625780638da5cb5b1461026a57806395d89b411461027b578063a0cda13914610283578063a22cb46514610296578063b88d4fde146102a957600080fd5b80632f745c59116101155780632f745c59146101e257806342842e0e1461020357806355f804b3146102165780636352211e146102295780636976ab051461023c57806370a082311461024f57600080fd5b806301ffc9a71461015257806306fdde031461017a578063081812fc1461018f578063095ea7b3146101ba57806323b872dd146101cf575b600080fd5b6101656101603660046111a6565b61033b565b60405190151581526020015b60405180910390f35b61018261038d565b6040516101719190611213565b6101a261019d366004611226565b61041f565b6040516001600160a01b039091168152602001610171565b6101cd6101c836600461125b565b610448565b005b6101cd6101dd366004611285565b610457565b6101f56101f036600461125b565b6104e7565b604051908152602001610171565b6101cd610211366004611285565b610558565b6101cd61022436600461130b565b610578565b6101a2610237366004611226565b61058d565b6101cd61024a36600461134d565b610598565b6101f561025d3660046113b5565b610622565b6101cd61066a565b6006546001600160a01b03166101a2565b61018261067e565b610182610291366004611226565b61068d565b6101cd6102a43660046113d0565b610727565b6101cd6102b7366004611422565b610732565b6101826102ca366004611226565b61074a565b6101f56102dd366004611226565b60076020526000908152604090205481565b6101656102fd366004611506565b61089a565b6101f56103103660046113b5565b6108c8565b6101cd6103233660046113b5565b610951565b6101cd610336366004611539565b61098f565b60006001600160e01b031982166380ac58cd60e01b148061036c57506001600160e01b03198216635b5e139f60e01b145b8061038757506301ffc9a760e01b6001600160e01b03198316145b92915050565b60606000805461039c906115cd565b80601f01602080910402602001604051908101604052809291908181526020018280546103c8906115cd565b80156104155780601f106103ea57610100808354040283529160200191610415565b820191906000526020600020905b8154815290600101906020018083116103f857829003601f168201915b5050505050905090565b600061042a82610a4a565b506000828152600460205260409020546001600160a01b0316610387565b610453828233610a83565b5050565b6001600160a01b03821661048657604051633250574960e11b8152600060048201526024015b60405180910390fd5b6000610493838333610a90565b9050836001600160a01b0316816001600160a01b0316146104e1576040516364283d7b60e01b81526001600160a01b038086166004830152602482018490528216604482015260640161047d565b50505050565b60405162461bcd60e51b815260206004820152603760248201527f52424e46543a20456e756d65726174696f6e2066756e6374696f6e2072656d6f60448201527f76656420666f722067617320656666696369656e63792e000000000000000000606482015260009060840161047d565b61057383838360405180602001604052806000815250610732565b505050565b610580610b89565b600961057382848361164e565b600061038782610a4a565b6105a0610b89565b600084116105fb5760405162461bcd60e51b815260206004820152602260248201527f5175616e74697479206d7573742062652067726561746572207468616e207a65604482015261726f60f01b606482015260840161047d565b60005b8481101561061a5761061286858585610bb6565b6001016105fe565b505050505050565b60006001600160a01b03821661064e576040516322718ad960e21b81526000600482015260240161047d565b506001600160a01b031660009081526003602052604090205490565b610672610b89565b61067c6000610c49565b565b60606001805461039c906115cd565b600860205260009081526040902080546106a6906115cd565b80601f01602080910402602001604051908101604052809291908181526020018280546106d2906115cd565b801561071f5780601f106106f45761010080835404028352916020019161071f565b820191906000526020600020905b81548152906001019060200180831161070257829003601f168201915b505050505081565b610453338383610c9b565b61073d848484610457565b6104e13385858585610d3a565b606061075582610e5c565b6107b15760405162461bcd60e51b815260206004820152602760248201527f4552433732313a2055524920717565727920666f72206e6f6e6578697374656e6044820152663a103a37b5b2b760c91b606482015260840161047d565b6000600980546107c0906115cd565b80601f01602080910402602001604051908101604052809291908181526020018280546107ec906115cd565b80156108395780601f1061080e57610100808354040283529160200191610839565b820191906000526020600020905b81548152906001019060200180831161081c57829003601f168201915b50505050509050600081511161085e5760405180602001604052806000815250610893565b806008600085815260200190815260200160002060405160200161088392919061170e565b6040516020818303038152906040525b9392505050565b6001600160a01b03918216600090815260056020908152604080832093909416825291909152205460ff1690565b60405162461bcd60e51b815260206004820152604f60248201527f52424e46543a204869676865737420626f6f7374206d7573742062652063616c60448201527f63756c61746564206f66662d636861696e206f7220726571756972657320455260648201526e219b9918a2b73ab6b2b930b136329760891b608482015260009060a40161047d565b610959610b89565b6001600160a01b03811661098357604051631e4fbdf760e01b81526000600482015260240161047d565b61098c81610c49565b50565b6001600160a01b0384163314806109ab57506109ab843361089a565b610a0d5760405162461bcd60e51b815260206004820152602d60248201527f4552433732313a2063616c6c6572206973206e6f7420746f6b656e206f776e6560448201526c1c881bdc88185c1c1c9bdd9959609a1b606482015260840161047d565b60005b81811015610a4357610a3b8585858585818110610a2f57610a2f61179b565b90506020020135610e79565b600101610a10565b5050505050565b6000818152600260205260408120546001600160a01b03168061038757604051637e27328960e01b81526004810184905260240161047d565b6105738383836001610f29565b6000828152600260205260408120546001600160a01b0390811690831615610abd57610abd81848661102f565b6001600160a01b03811615610afb57610ada600085600080610f29565b6001600160a01b038116600090815260036020526040902080546000190190555b6001600160a01b03851615610b2a576001600160a01b0385166000908152600360205260409020805460010190555b60008481526002602052604080822080546001600160a01b0319166001600160a01b0389811691821790925591518793918516917fddf252ad1be2c89b69c2b068fc378daa952ba7f163c4a11628f55a4df523b3ef91a4949350505050565b6006546001600160a01b0316331461067c5760405163118cdaa760e01b815233600482015260240161047d565b600a805460009182610bc7836117b1565b919050559050610bd78582611093565b600081815260076020908152604080832087905560089091529020610bfd83858361164e565b50846001600160a01b0316817f54d5f2009309bfca693d4576a80122265f66467190efeb763d2fa2184189433286604051610c3a91815260200190565b60405180910390a35050505050565b600680546001600160a01b038381166001600160a01b0319831681179093556040519116919082907f8be0079c531659141344cd1fd0a4f28419497f9722a3daafe3b4186f6b6457e090600090a35050565b6001600160a01b038216610ccd57604051630b61174360e31b81526001600160a01b038316600482015260240161047d565b6001600160a01b03838116600081815260056020908152604080832094871680845294825291829020805460ff191686151590811790915591519182527f17307eab39ab6107e8899845ad3d59bd9653f200f220920489ca2b5937696c31910160405180910390a3505050565b6001600160a01b0383163b15610a4357604051630a85bd0160e11b81526001600160a01b0384169063150b7a0290610d7c9088908890879087906004016117d8565b6020604051808303816000875af1925050508015610db7575060408051601f3d908101601f19168201909252610db491810190611815565b60015b610e20573d808015610de5576040519150601f19603f3d011682016040523d82523d6000602084013e610dea565b606091505b508051600003610e1857604051633250574960e11b81526001600160a01b038516600482015260240161047d565b805160208201fd5b6001600160e01b03198116630a85bd0160e11b1461061a57604051633250574960e11b81526001600160a01b038516600482015260240161047d565b600080610e688361058d565b6001600160a01b0316141592915050565b6001600160a01b038216610ea357604051633250574960e11b81526000600482015260240161047d565b6000610eb183836000610a90565b90506001600160a01b038116610edd57604051637e27328960e01b81526004810183905260240161047d565b836001600160a01b0316816001600160a01b0316146104e1576040516364283d7b60e01b81526001600160a01b038086166004830152602482018490528216604482015260640161047d565b8080610f3d57506001600160a01b03821615155b15610fff576000610f4d84610a4a565b90506001600160a01b03831615801590610f795750826001600160a01b0316816001600160a01b031614155b8015610f8c5750610f8a818461089a565b155b15610fb55760405163a9fbf51f60e01b81526001600160a01b038416600482015260240161047d565b8115610ffd5783856001600160a01b0316826001600160a01b03167f8c5be1e5ebec7d5bd14f71427d1e84f3dd0314c0f7b2291e5b200ac8c7c3b92560405160405180910390a45b505b5050600090815260046020526040902080546001600160a01b0319166001600160a01b0392909216919091179055565b61103a8383836110ad565b610573576001600160a01b03831661106857604051637e27328960e01b81526004810182905260240161047d565b60405163177e802f60e01b81526001600160a01b03831660048201526024810182905260440161047d565b610453828260405180602001604052806000815250611113565b60006001600160a01b0383161580159061110b5750826001600160a01b0316846001600160a01b031614806110e757506110e7848461089a565b8061110b57506000828152600460205260409020546001600160a01b038481169116145b949350505050565b61111d838361112b565b610573336000858585610d3a565b6001600160a01b03821661115557604051633250574960e11b81526000600482015260240161047d565b600061116383836000610a90565b90506001600160a01b03811615610573576040516339e3563760e11b81526000600482015260240161047d565b6001600160e01b03198116811461098c57600080fd5b6000602082840312156111b857600080fd5b813561089381611190565b60005b838110156111de5781810151838201526020016111c6565b50506000910152565b600081518084526111ff8160208601602086016111c3565b601f01601f19169290920160200192915050565b60208152600061089360208301846111e7565b60006020828403121561123857600080fd5b5035919050565b80356001600160a01b038116811461125657600080fd5b919050565b6000806040838503121561126e57600080fd5b6112778361123f565b946020939093013593505050565b60008060006060848603121561129a57600080fd5b6112a38461123f565b92506112b16020850161123f565b929592945050506040919091013590565b60008083601f8401126112d457600080fd5b50813567ffffffffffffffff8111156112ec57600080fd5b60208301915083602082850101111561130457600080fd5b9250929050565b6000806020838503121561131e57600080fd5b823567ffffffffffffffff81111561133557600080fd5b611341858286016112c2565b90969095509350505050565b60008060008060006080868803121561136557600080fd5b61136e8661123f565b94506020860135935060408601359250606086013567ffffffffffffffff81111561139857600080fd5b6113a4888289016112c2565b969995985093965092949392505050565b6000602082840312156113c757600080fd5b6108938261123f565b600080604083850312156113e357600080fd5b6113ec8361123f565b91506020830135801515811461140157600080fd5b809150509250929050565b634e487b7160e01b600052604160045260246000fd5b6000806000806080858703121561143857600080fd5b6114418561123f565b935061144f6020860161123f565b925060408501359150606085013567ffffffffffffffff81111561147257600080fd5b8501601f8101871361148357600080fd5b803567ffffffffffffffff81111561149d5761149d61140c565b604051601f8201601f19908116603f0116810167ffffffffffffffff811182821017156114cc576114cc61140c565b6040528181528282016020018910156114e457600080fd5b8160208401602083013760006020838301015280935050505092959194509250565b6000806040838503121561151957600080fd5b6115228361123f565b91506115306020840161123f565b90509250929050565b6000806000806060858703121561154f57600080fd5b6115588561123f565b93506115666020860161123f565b9250604085013567ffffffffffffffff81111561158257600080fd5b8501601f8101871361159357600080fd5b803567ffffffffffffffff8111156115aa57600080fd5b8760208260051b84010111156115bf57600080fd5b949793965060200194505050565b600181811c908216806115e157607f821691505b60208210810361160157634e487b7160e01b600052602260045260246000fd5b50919050565b601f82111561057357806000526020600020601f840160051c8101602085101561162e5750805b601f840160051c820191505b81811015610a43576000815560010161163a565b67ffffffffffffffff8311156116665761166661140c565b61167a8361167483546115cd565b83611607565b6000601f8411600181146116ae57600085156116965750838201355b600019600387901b1c1916600186901b178355610a43565b600083815260209020601f19861690835b828110156116df57868501358255602094850194600190920191016116bf565b50868210156116fc5760001960f88860031b161c19848701351681555b505060018560011b0183555050505050565b600083516117208184602088016111c3565b808301905060008454611732816115cd565b600182168015611749576001811461175e5761178e565b60ff198316855281151582028501935061178e565b87600052602060002060005b838110156117865781548782015260019091019060200161176a565b505081850193505b5091979650505050505050565b634e487b7160e01b600052603260045260246000fd5b6000600182016117d157634e487b7160e01b600052601160045260246000fd5b5060010190565b6001600160a01b038581168252841660208201526040810183905260806060820181905260009061180b908301846111e7565b9695505050505050565b60006020828403121561182757600080fd5b81516108938161119056fea2646970667358221220e04cf2533fbbd3781cd71e52839b89ac538d08ad201d0b069bc8d144350b4b6764736f6c634300081c0033",
  "linkReferences": {},
  "deployedLinkReferences": {}
}